{"abi":[{"type":"constructor","inputs":[{"name":"xcmOracleAddress","type":"address","internalType":"address"},{"name":"_projectOwner","type":"address","internalType":"address"},{"name":"_projectToken","type":"address","internalType":"address"},{"name":"_acceptedVAsset","type":"address","internalType":"address"},{"name":"_acceptedNativeAsset","type":"address","internalType":"address"},{"name":"_startBlock","type":"uint128","internalType":"uint128"},{"name":"_endBlock","type":"uint128","internalType":"uint128"},{"name":"_maxVAssetPerStaker","type":"uint256","internalType":"uint256"},{"name":"_changeBlocks","type":"uint128[]","internalType":"uint128[]"},{"name":"_emissionRateChanges","type":"uint256[]","internalType":"uint256[]"}],"stateMutability":"nonpayable"},{"type":"function","name":"BASE_PRECISION","inputs":[],"outputs":[{"name":"","type":"uint256","internalType":"uint256"}],"stateMutability":"view"},{"type":"function","name":"MAX_DECIMALS","inputs":[],"outputs":[{"name":"","type":"uint256","internalType":"uint256"}],"stateMutability":"view"},{"type":"function","name":"ONE_VTOKEN","inputs":[],"outputs":[{"name":"","type":"uint256","internalType":"uint256"}],"stateMutability":"view"},{"type":"function","name":"SCALING_FACTOR","inputs":[],"outputs":[{"name":"","type":"uint256","internalType":"uint256"}],"stateMutability":"view"},{"type":"function","name":"acceptedNativeAsset","inputs":[],"outputs":[{"name":"","type":"address","internalType":"contract IERC20"}],"stateMutability":"view"},{"type":"function","name":"acceptedVAsset","inputs":[],"outputs":[{"name":"","type":"address","internalType":"contract IERC20"}],"stateMutability":"view"},{"type":"function","name":"avgNativeExRateGradient","inputs":[],"outputs":[{"name":"","type":"uint256","internalType":"uint256"}],"stateMutability":"view"},{"type":"function","name":"changeBlocks","inputs":[{"name":"","type":"uint256","internalType":"uint256"}],"outputs":[{"name":"","type":"uint128","internalType":"uint128"}],"stateMutability":"view"},{"type":"function","name":"claimLeftoverProjectToken","inputs":[],"outputs":[],"stateMutability":"nonpayable"},{"type":"function","name":"claimOwnerInterest","inputs":[],"outputs":[],"stateMutability":"nonpayable"},{"type":"function","name":"claimPlatformFee","inputs":[],"outputs":[],"stateMutability":"nonpayable"},{"type":"function","name":"claimProjectTokens","inputs":[],"outputs":[],"stateMutability":"nonpayable"},{"type":"function","name":"cumulativeExchangeRate","inputs":[],"outputs":[{"name":"","type":"uint256","internalType":"uint256"}],"stateMutability":"view"},{"type":"function","name":"emissionRateChanges","inputs":[{"name":"","type":"uint128","internalType":"uint128"}],"outputs":[{"name":"","type":"uint256","internalType":"uint256"}],"stateMutability":"view"},{"type":"function","name":"endBlock","inputs":[],"outputs":[{"name":"","type":"uint128","internalType":"uint128"}],"stateMutability":"view"},{"type":"function","name":"getClaimableProjectToken","inputs":[{"name":"_investor","type":"address","internalType":"address"}],"outputs":[{"name":"","type":"uint256","internalType":"uint256"}],"stateMutability":"view"},{"type":"function","name":"getEmissionRate","inputs":[],"outputs":[{"name":"","type":"uint256","internalType":"uint256"}],"stateMutability":"view"},{"type":"function","name":"getPoolInfo","inputs":[],"outputs":[{"name":"","type":"uint128","internalType":"uint128"},{"name":"","type":"uint128","internalType":"uint128"},{"name":"","type":"uint256","internalType":"uint256"},{"name":"","type":"uint256","internalType":"uint256"}],"stateMutability":"view"},{"type":"function","name":"getStakerNativeAmount","inputs":[{"name":"_investor","type":"address","internalType":"address"}],"outputs":[{"name":"","type":"uint256","internalType":"uint256"}],"stateMutability":"view"},{"type":"function","name":"getStakingRange","inputs":[],"outputs":[{"name":"","type":"uint256","internalType":"uint256"},{"name":"","type":"uint256","internalType":"uint256"}],"stateMutability":"view"},{"type":"function","name":"getTotalProjectToken","inputs":[],"outputs":[{"name":"","type":"uint256","internalType":"uint256"}],"stateMutability":"view"},{"type":"function","name":"getTotalStakedVTokens","inputs":[],"outputs":[{"name":"","type":"uint256","internalType":"uint256"}],"stateMutability":"view"},{"type":"function","name":"getWithdrawableVTokens","inputs":[{"name":"_withdrawnNativeTokens","type":"uint256","internalType":"uint256"}],"outputs":[{"name":"withdrawableVAssets","type":"uint256","internalType":"uint256"}],"stateMutability":"view"},{"type":"function","name":"lastNativeExRate","inputs":[],"outputs":[{"name":"","type":"uint256","internalType":"uint256"}],"stateMutability":"view"},{"type":"function","name":"lastNativeExRateUpdateBlock","inputs":[],"outputs":[{"name":"","type":"uint128","internalType":"uint128"}],"stateMutability":"view"},{"type":"function","name":"lastProcessedChangeBlockIndex","inputs":[],"outputs":[{"name":"","type":"uint256","internalType":"uint256"}],"stateMutability":"view"},{"type":"function","name":"maxStakers","inputs":[],"outputs":[{"name":"","type":"uint256","internalType":"uint256"}],"stateMutability":"view"},{"type":"function","name":"maxVAssetPerStaker","inputs":[],"outputs":[{"name":"","type":"uint256","internalType":"uint256"}],"stateMutability":"view"},{"type":"function","name":"nativeExRateSampleCount","inputs":[],"outputs":[{"name":"","type":"uint128","internalType":"uint128"}],"stateMutability":"view"},{"type":"function","name":"owner","inputs":[],"outputs":[{"name":"","type":"address","internalType":"address"}],"stateMutability":"view"},{"type":"function","name":"ownerShareOfInterest","inputs":[],"outputs":[{"name":"","type":"uint128","internalType":"uint128"}],"stateMutability":"view"},{"type":"function","name":"pause","inputs":[],"outputs":[],"stateMutability":"nonpayable"},{"type":"function","name":"paused","inputs":[],"outputs":[{"name":"","type":"bool","internalType":"bool"}],"stateMutability":"view"},{"type":"function","name":"platformAdminAddress","inputs":[],"outputs":[{"name":"","type":"address","internalType":"address"}],"stateMutability":"view"},{"type":"function","name":"platformFeeClaimed","inputs":[],"outputs":[{"name":"","type":"bool","internalType":"bool"}],"stateMutability":"view"},{"type":"function","name":"projectToken","inputs":[],"outputs":[{"name":"","type":"address","internalType":"contract IERC20"}],"stateMutability":"view"},{"type":"function","name":"recoverWrongToken","inputs":[{"name":"_tokenAddress","type":"address","internalType":"address"}],"outputs":[],"stateMutability":"nonpayable"},{"type":"function","name":"renounceOwnership","inputs":[],"outputs":[],"stateMutability":"nonpayable"},{"type":"function","name":"setXCMOracleAddress","inputs":[{"name":"_xcmOracleAddress","type":"address","internalType":"address"}],"outputs":[],"stateMutability":"nonpayable"},{"type":"function","name":"stake","inputs":[{"name":"_vTokenAmount","type":"uint256","internalType":"uint256"}],"outputs":[],"stateMutability":"nonpayable"},{"type":"function","name":"stakers","inputs":[{"name":"","type":"address","internalType":"address"}],"outputs":[{"name":"nativeAmount","type":"uint256","internalType":"uint256"},{"name":"claimOffset","type":"uint256","internalType":"uint256"}],"stateMutability":"view"},{"type":"function","name":"startBlock","inputs":[],"outputs":[{"name":"","type":"uint128","internalType":"uint128"}],"stateMutability":"view"},{"type":"function","name":"tickBlock","inputs":[],"outputs":[{"name":"","type":"uint128","internalType":"uint128"}],"stateMutability":"view"},{"type":"function","name":"totalNativeStake","inputs":[],"outputs":[{"name":"","type":"uint256","internalType":"uint256"}],"stateMutability":"view"},{"type":"function","name":"transferOwnership","inputs":[{"name":"newOwner","type":"address","internalType":"address"}],"outputs":[],"stateMutability":"nonpayable"},{"type":"function","name":"unpause","inputs":[],"outputs":[],"stateMutability":"nonpayable"},{"type":"function","name":"unstake","inputs":[{"name":"_vTokenAmount","type":"uint256","internalType":"uint256"}],"outputs":[],"stateMutability":"nonpayable"},{"type":"function","name":"unstakeWithoutProjectToken","inputs":[{"name":"_withdrawnVTokens","type":"uint256","internalType":"uint256"}],"outputs":[],"stateMutability":"nonpayable"},{"type":"function","name":"xcmOracle","inputs":[],"outputs":[{"name":"","type":"address","internalType":"contract IXCMOracle"}],"stateMutability":"view"},{"type":"event","name":"OwnershipTransferred","inputs":[{"name":"previousOwner","type":"address","indexed":true,"internalType":"address"},{"name":"newOwner","type":"address","indexed":true,"internalType":"address"}],"anonymous":false},{"type":"event","name":"Paused","inputs":[{"name":"account","type":"address","indexed":false,"internalType":"address"}],"anonymous":false},{"type":"event","name":"ProjectTokensClaimed","inputs":[{"name":"user","type":"address","indexed":true,"internalType":"address"},{"name":"amount","type":"uint256","indexed":false,"internalType":"uint256"}],"anonymous":false},{"type":"event","name":"Staked","inputs":[{"name":"user","type":"address","indexed":true,"internalType":"address"},{"name":"amount","type":"uint256","indexed":false,"internalType":"uint256"}],"anonymous":false},{"type":"event","name":"Unpaused","inputs":[{"name":"account","type":"address","indexed":false,"internalType":"address"}],"anonymous":false},{"type":"event","name":"Unstaked","inputs":[{"name":"user","type":"address","indexed":true,"internalType":"address"},{"name":"amount","type":"uint256","indexed":false,"internalType":"uint256"}],"anonymous":false},{"type":"error","name":"ArraysLengthMismatch","inputs":[]},{"type":"error","name":"DecimalsTooHigh","inputs":[{"name":"tokenAddress","type":"address","internalType":"address"}]},{"type":"error","name":"EndBlockMustBeAfterstartBlock","inputs":[]},{"type":"error","name":"EnforcedPause","inputs":[]},{"type":"error","name":"ExceedMaxVTokensPerStaker","inputs":[]},{"type":"error","name":"ExceedNativeStake","inputs":[]},{"type":"error","name":"ExceedWithdrawableVTokens","inputs":[]},{"type":"error","name":"ExpectedPause","inputs":[]},{"type":"error","name":"FailedToReadTokenDecimals","inputs":[]},{"type":"error","name":"FirstChangeBlockMustBeStartBlock","inputs":[]},{"type":"error","name":"MaxAndMinTokensPerStakerMustBeGreaterThanZero","inputs":[]},{"type":"error","name":"MustBeAfterPoolEnd","inputs":[]},{"type":"error","name":"MustBeDuringPoolTime","inputs":[]},{"type":"error","name":"NoEmissionRateChangesProvided","inputs":[]},{"type":"error","name":"NotPlatformAdmin","inputs":[]},{"type":"error","name":"OwnableInvalidOwner","inputs":[{"name":"owner","type":"address","internalType":"address"}]},{"type":"error","name":"OwnableUnauthorizedAccount","inputs":[{"name":"account","type":"address","internalType":"address"}]},{"type":"error","name":"PlatformFeeAlreadyClaimed","inputs":[]},{"type":"error","name":"ProjectTokenNotRecoverable","inputs":[]},{"type":"error","name":"ReentrancyGuardReentrantCall","inputs":[]},{"type":"error","name":"SafeERC20FailedOperation","inputs":[{"name":"token","type":"address","internalType":"address"}]},{"type":"error","name":"StartBlockMustBeInFuture","inputs":[]},{"type":"error","name":"TotalProjectTokensMustBeGreaterThanZero","inputs":[]},{"type":"error","name":"ZeroAddress","inputs":[]},{"type":"error","name":"ZeroAmountNotAllowed","inputs":[]}],"bytecode":{"object":"0x60c0604052605a600560106101000a8154816fffffffffffffffffffffffffffffffff02191690836fffffffffffffffffffffffffffffffff16021790555073fd48761638e3a8c368abaefa9859cf6baa6c3c27600a5f6101000a81548173ffffffffffffffffffffffffffffffffffffffff021916908373ffffffffffffffffffffffffffffffffffffffff16021790555034801561009d575f80fd5b506040516156e93803806156e983398181016040528101906100bf9190610eb4565b885f73ffffffffffffffffffffffffffffffffffffffff168173ffffffffffffffffffffffffffffffffffffffff1603610130575f6040517f1e4fbdf70000000000000000000000000000000000000000000000000000000081526004016101279190610fd4565b60405180910390fd5b61013f816107ea60201b60201c565b50600180819055505f60025f6101000a81548160ff021916908315150217905550875f73ffffffffffffffffffffffffffffffffffffffff168173ffffffffffffffffffffffffffffffffffffffff16036101c6576040517fd92e233d00000000000000000000000000000000000000000000000000000000815260040160405180910390fd5b875f73ffffffffffffffffffffffffffffffffffffffff168173ffffffffffffffffffffffffffffffffffffffff160361022c576040517fd92e233d00000000000000000000000000000000000000000000000000000000815260040160405180910390fd5b875f73ffffffffffffffffffffffffffffffffffffffff168173ffffffffffffffffffffffffffffffffffffffff1603610292576040517fd92e233d00000000000000000000000000000000000000000000000000000000815260040160405180910390fd5b855f81036102cc576040517f18e580a800000000000000000000000000000000000000000000000000000000815260040160405180910390fd5b6102da6108ab60201b60201c565b8d60105f6101000a81548173ffffffffffffffffffffffffffffffffffffffff021916908373ffffffffffffffffffffffffffffffffffffffff1602179055505f439050808a6fffffffffffffffffffffffffffffffff1611610369576040517f78818b5f00000000000000000000000000000000000000000000000000000000815260040160405180910390fd5b896fffffffffffffffffffffffffffffffff16896fffffffffffffffffffffffffffffffff16116103c6576040517f89edc18d00000000000000000000000000000000000000000000000000000000815260040160405180910390fd5b5f875190505f8111610404576040517fab1ea2ae00000000000000000000000000000000000000000000000000000000815260040160405180910390fd5b8a6fffffffffffffffffffffffffffffffff16885f8151811061042a57610429610fed565b5b60200260200101516fffffffffffffffffffffffffffffffff161461047b576040517ffa2c354c00000000000000000000000000000000000000000000000000000000815260040160405180910390fd5b808751146104b5576040517ffc23596000000000000000000000000000000000000000000000000000000000815260040160405180910390fd5b5f6104c58f6108ad60201b60201c565b90505f6104d78f6108ad60201b60201c565b905081600a6104e69190611182565b6c0c9f2c9cd04674edea400000006104fe91906111f9565b6080818152505080600a6105129190611182565b60a081815250505f5b8381101561059c5789818151811061053657610535610fed565b5b6020026020010151600b5f8d848151811061055457610553610fed565b5b60200260200101516fffffffffffffffffffffffffffffffff166fffffffffffffffffffffffffffffffff1681526020019081526020015f208190555080600101905061051b565b506105ae60a05161095560201b60201c565b60128190555060145f81819054906101000a90046fffffffffffffffffffffffffffffffff166105dd90611229565b91906101000a8154816fffffffffffffffffffffffffffffffff02191690836fffffffffffffffffffffffffffffffff16021790555083601460106101000a8154816fffffffffffffffffffffffffffffffff02191690836fffffffffffffffffffffffffffffffff16021790555089600c9080519060200190610662929190610ad5565b508f600d5f6101000a81548173ffffffffffffffffffffffffffffffffffffffff021916908373ffffffffffffffffffffffffffffffffffffffff1602179055508e600e5f6101000a81548173ffffffffffffffffffffffffffffffffffffffff021916908373ffffffffffffffffffffffffffffffffffffffff1602179055508d600f5f6101000a81548173ffffffffffffffffffffffffffffffffffffffff021916908373ffffffffffffffffffffffffffffffffffffffff1602179055508c60045f6101000a8154816fffffffffffffffffffffffffffffffff02191690836fffffffffffffffffffffffffffffffff1602179055508b600460106101000a8154816fffffffffffffffffffffffffffffffff02191690836fffffffffffffffffffffffffffffffff1602179055508a6006819055508c60055f6101000a8154816fffffffffffffffffffffffffffffffff02191690836fffffffffffffffffffffffffffffffff16021790555050505050505050505050505050505050505061141a565b5f805f9054906101000a900473ffffffffffffffffffffffffffffffffffffffff169050815f806101000a81548173ffffffffffffffffffffffffffffffffffffffff021916908373ffffffffffffffffffffffffffffffffffffffff1602179055508173ffffffffffffffffffffffffffffffffffffffff168173ffffffffffffffffffffffffffffffffffffffff167f8be0079c531659141344cd1fd0a4f28419497f9722a3daafe3b4186f6b6457e060405160405180910390a35050565b565b5f8173ffffffffffffffffffffffffffffffffffffffff1663313ce5676040518163ffffffff1660e01b8152600401602060405180830381865afa92505050801561091657506040513d601f19601f82011682018060405250810190610913919061128a565b60015b61094c576040517f6d1762b000000000000000000000000000000000000000000000000000000000815260040160405180910390fd5b80915050919050565b5f8060105f9054906101000a900473ffffffffffffffffffffffffffffffffffffffff1673ffffffffffffffffffffffffffffffffffffffff1663b2306010600f5f9054906101000a900473ffffffffffffffffffffffffffffffffffffffff166040518263ffffffff1660e01b81526004016109d29190610fd4565b602060405180830381865afa1580156109ed573d5f803e3d5ffd5b505050506040513d601f19601f82011682018060405250810190610a11919061130a565b90505f60105f9054906101000a900473ffffffffffffffffffffffffffffffffffffffff1673ffffffffffffffffffffffffffffffffffffffff16631443d5b0836040518263ffffffff1660e01b8152600401610a6e9190611344565b6040805180830381865afa158015610a88573d5f803e3d5ffd5b505050506040513d601f19601f82011682018060405250810190610aac91906113ae565b90508060200151815f015185610ac291906113d9565b610acc91906111f9565b92505050919050565b828054828255905f5260205f2090600101600290048101928215610b95579160200282015f5b83821115610b5757835183826101000a8154816fffffffffffffffffffffffffffffffff02191690836fffffffffffffffffffffffffffffffff1602179055509260200192601001602081600f01049283019260010302610afb565b8015610b935782816101000a8154906fffffffffffffffffffffffffffffffff0219169055601001602081600f01049283019260010302610b57565b505b509050610ba29190610ba6565b5090565b5b80821115610bbd575f815f905550600101610ba7565b5090565b5f604051905090565b5f80fd5b5f80fd5b5f73ffffffffffffffffffffffffffffffffffffffff82169050919050565b5f610bfb82610bd2565b9050919050565b610c0b81610bf1565b8114610c15575f80fd5b50565b5f81519050610c2681610c02565b92915050565b5f6fffffffffffffffffffffffffffffffff82169050919050565b610c5081610c2c565b8114610c5a575f80fd5b50565b5f81519050610c6b81610c47565b92915050565b5f819050919050565b610c8381610c71565b8114610c8d575f80fd5b50565b5f81519050610c9e81610c7a565b92915050565b5f80fd5b5f601f19601f8301169050919050565b7f4e487b71000000000000000000000000000000000000000000000000000000005f52604160045260245ffd5b610cee82610ca8565b810181811067ffffffffffffffff82111715610d0d57610d0c610cb8565b5b80604052505050565b5f610d1f610bc1565b9050610d2b8282610ce5565b919050565b5f67ffffffffffffffff821115610d4a57610d49610cb8565b5b602082029050602081019050919050565b5f80fd5b5f610d71610d6c84610d30565b610d16565b90508083825260208201905060208402830185811115610d9457610d93610d5b565b5b835b81811015610dbd5780610da98882610c5d565b845260208401935050602081019050610d96565b5050509392505050565b5f82601f830112610ddb57610dda610ca4565b5b8151610deb848260208601610d5f565b91505092915050565b5f67ffffffffffffffff821115610e0e57610e0d610cb8565b5b602082029050602081019050919050565b5f610e31610e2c84610df4565b610d16565b90508083825260208201905060208402830185811115610e5457610e53610d5b565b5b835b81811015610e7d5780610e698882610c90565b845260208401935050602081019050610e56565b5050509392505050565b5f82601f830112610e9b57610e9a610ca4565b5b8151610eab848260208601610e1f565b91505092915050565b5f805f805f805f805f806101408b8d031215610ed357610ed2610bca565b5b5f610ee08d828e01610c18565b9a50506020610ef18d828e01610c18565b9950506040610f028d828e01610c18565b9850506060610f138d828e01610c18565b9750506080610f248d828e01610c18565b96505060a0610f358d828e01610c5d565b95505060c0610f468d828e01610c5d565b94505060e0610f578d828e01610c90565b9350506101008b015167ffffffffffffffff811115610f7957610f78610bce565b5b610f858d828e01610dc7565b9250506101208b015167ffffffffffffffff811115610fa757610fa6610bce565b5b610fb38d828e01610e87565b9150509295989b9194979a5092959850565b610fce81610bf1565b82525050565b5f602082019050610fe75f830184610fc5565b92915050565b7f4e487b71000000000000000000000000000000000000000000000000000000005f52603260045260245ffd5b7f4e487b71000000000000000000000000000000000000000000000000000000005f52601160045260245ffd5b5f8160011c9050919050565b5f808291508390505b600185111561109c578086048111156110785761107761101a565b5b60018516156110875780820291505b808102905061109585611047565b945061105c565b94509492505050565b5f826110b4576001905061116f565b816110c1575f905061116f565b81600181146110d757600281146110e157611110565b600191505061116f565b60ff8411156110f3576110f261101a565b5b8360020a91508482111561110a5761110961101a565b5b5061116f565b5060208310610133831016604e8410600b84101617156111455782820a9050838111156111405761113f61101a565b5b61116f565b6111528484846001611053565b925090508184048111156111695761116861101a565b5b81810290505b9392505050565b5f60ff82169050919050565b5f61118c82610c71565b915061119783611176565b92506111c47fffffffffffffffffffffffffffffffffffffffffffffffffffffffffffffffff84846110a5565b905092915050565b7f4e487b71000000000000000000000000000000000000000000000000000000005f52601260045260245ffd5b5f61120382610c71565b915061120e83610c71565b92508261121e5761121d6111cc565b5b828204905092915050565b5f61123382610c2c565b91506fffffffffffffffffffffffffffffffff82036112555761125461101a565b5b600182019050919050565b61126981611176565b8114611273575f80fd5b50565b5f8151905061128481611260565b92915050565b5f6020828403121561129f5761129e610bca565b5b5f6112ac84828501611276565b91505092915050565b5f7fffff00000000000000000000000000000000000000000000000000000000000082169050919050565b6112e9816112b5565b81146112f3575f80fd5b50565b5f81519050611304816112e0565b92915050565b5f6020828403121561131f5761131e610bca565b5b5f61132c848285016112f6565b91505092915050565b61133e816112b5565b82525050565b5f6020820190506113575f830184611335565b92915050565b5f80fd5b5f604082840312156113765761137561135d565b5b6113806040610d16565b90505f61138f84828501610c90565b5f8301525060206113a284828501610c90565b60208301525092915050565b5f604082840312156113c3576113c2610bca565b5b5f6113d084828501611361565b91505092915050565b5f6113e382610c71565b91506113ee83610c71565b92508282026113fc81610c71565b915082820484148315176114135761141261101a565b5b5092915050565b60805160a05161421b6114ce5f395f8181610a9c01528181610ac801528181610fbd0152818161112a01528181611156015281816112b1015281816112dd0152818161196d0152818161199901528181612323015281816129d101528181612c2b015261308701525f8181610b8701528181610c82015281816113be0152818161143d0152818161163a01528181611c4801528181611db4015281816124c40152818161359f0152613700015261421b5ff3fe608060405234801561000f575f80fd5b50600436106102b9575f3560e01c80638456cb5911610180578063ab7302bb116100e7578063bfc55b8a116100a0578063ef4cadc51161007a578063ef4cadc5146107dd578063f2fde38b146107fb578063f73a8b5c14610817578063fce88e6f14610835576102b9565b8063bfc55b8a14610783578063c0a77da9146107a1578063d065cf8e146107bf576102b9565b8063ab7302bb146106d3578063b1f0af1b146106dd578063b64a025e146106fb578063b66a72df14610717578063b87a6aeb14610735578063bb8afc7b14610765576102b9565b806399dc03901161013957806399dc0390146106375780639b4f8321146106555780639c8aea9014610673578063a694fc3a1461067d578063a748afb014610699578063aac9ce5c146106b7576102b9565b80638456cb591461057257806384d38d481461057c5780638da5cb5b1461059a5780638e70fa8c146105b85780639168ae72146105d6578063976251e614610607576102b9565b8063544c2d761161022457806372cacb70116101dd57806372cacb70146104c257806372e48cf3146104e05780637950ea7e146104ea5780637d334107146104f457806380729f171461052457806381cadea014610554576102b9565b8063544c2d761461040d5780635bf0fa891461042b5780635c975abb1461045b57806360246c88146104795780636cf568461461049a578063715018a6146104b8576102b9565b806333d8773d1161027657806333d8773d1461036d5780633f4ba83a1461038b57806348cd4cb1146103955780634b60ce77146103b35780634f7ff503146103d1578063534a9d00146103ef576102b9565b8063018bcf5c146102bd5780630417cf8e146102d957806306508ebc146102f7578063083c632314610315578063129989a3146103335780632e17de7814610351575b5f80fd5b6102d760048036038101906102d29190613b0b565b610854565b005b6102e161099a565b6040516102ee9190613b4e565b60405180910390f35b6102ff61099f565b60405161030c9190613b91565b60405180910390f35b61031d6109c0565b60405161032a9190613b91565b60405180910390f35b61033b6109e2565b6040516103489190613bb9565b60405180910390f35b61036b60048036038101906103669190613bfc565b610a07565b005b610375610de0565b6040516103829190613b4e565b60405180910390f35b610393610de6565b005b61039d610e76565b6040516103aa9190613b91565b60405180910390f35b6103bb610e97565b6040516103c89190613c82565b60405180910390f35b6103d9610ebc565b6040516103e69190613b4e565b60405180910390f35b6103f7610ec2565b6040516104049190613b4e565b60405180910390f35b610415610f61565b6040516104229190613b4e565b60405180910390f35b61044560048036038101906104409190613bfc565b610f67565b6040516104529190613b4e565b60405180910390f35b610463611012565b6040516104709190613cb5565b60405180910390f35b610481611027565b6040516104919493929190613cce565b60405180910390f35b6104a2611086565b6040516104af9190613d31565b60405180910390f35b6104c06110ab565b005b6104ca6110be565b6040516104d79190613b4e565b60405180910390f35b6104e86110cf565b005b6104f2611256565b005b61050e60048036038101906105099190613b0b565b611579565b60405161051b9190613b4e565b60405180910390f35b61053e60048036038101906105399190613b0b565b6115c1565b60405161054b9190613b4e565b60405180910390f35b61055c611699565b6040516105699190613b4e565b60405180910390f35b61057a61169f565b005b61058461172f565b6040516105919190613b91565b60405180910390f35b6105a2611751565b6040516105af9190613bb9565b60405180910390f35b6105c0611778565b6040516105cd9190613c82565b60405180910390f35b6105f060048036038101906105eb9190613b0b565b61179d565b6040516105fe929190613d4a565b60405180910390f35b610621600480360381019061061c9190613bfc565b6117bd565b60405161062e9190613b91565b60405180910390f35b61063f611800565b60405161064c9190613c82565b60405180910390f35b61065d611825565b60405161066a9190613b4e565b60405180910390f35b61067b61182b565b005b61069760048036038101906106929190613bfc565b611aa3565b005b6106a1611e53565b6040516106ae9190613b4e565b60405180910390f35b6106d160048036038101906106cc9190613b0b565b611e59565b005b6106db611f22565b005b6106e56120d1565b6040516106f29190613b91565b60405180910390f35b61071560048036038101906107109190613bfc565b6120f3565b005b61071f612306565b60405161072c9190613b4e565b60405180910390f35b61074f600480360381019061074a9190613d9b565b61230c565b60405161075c9190613b4e565b60405180910390f35b61076d612321565b60405161077a9190613b4e565b60405180910390f35b61078b612345565b6040516107989190613b91565b60405180910390f35b6107a9612366565b6040516107b69190613b4e565b60405180910390f35b6107c76124b0565b6040516107d49190613cb5565b60405180910390f35b6107e56124c2565b6040516107f29190613b4e565b60405180910390f35b61081560048036038101906108109190613b0b565b6124e6565b005b61081f61256a565b60405161082c9190613b4e565b60405180910390f35b61083d612609565b60405161084b929190613d4a565b60405180910390f35b61085c612619565b80600d5f9054906101000a900473ffffffffffffffffffffffffffffffffffffffff1673ffffffffffffffffffffffffffffffffffffffff168173ffffffffffffffffffffffffffffffffffffffff16036108e3576040517fdad2afd700000000000000000000000000000000000000000000000000000000815260040160405180910390fd5b5f8290505f8173ffffffffffffffffffffffffffffffffffffffff166370a08231306040518263ffffffff1660e01b81526004016109219190613bb9565b602060405180830381865afa15801561093c573d5f803e3d5ffd5b505050506040513d601f19601f820116820180604052508101906109609190613dda565b905061099461096d611751565b828473ffffffffffffffffffffffffffffffffffffffff166126a09092919063ffffffff16565b50505050565b601e81565b60145f9054906101000a90046fffffffffffffffffffffffffffffffff1681565b600460109054906101000a90046fffffffffffffffffffffffffffffffff1681565b600a5f9054906101000a900473ffffffffffffffffffffffffffffffffffffffff1681565b805f8103610a41576040517f0f43956a00000000000000000000000000000000000000000000000000000000815260040160405180910390fd5b610a4961271f565b610a51612760565b5f601354148015610a915750600460109054906101000a90046fffffffffffffffffffffffffffffffff166fffffffffffffffffffffffffffffffff1643115b15610aee575f610ac07f00000000000000000000000000000000000000000000000000000000000000006127a6565b9050610aec817f0000000000000000000000000000000000000000000000000000000000000000612926565b505b5f610af7612b7f565b90505f60115f8373ffffffffffffffffffffffffffffffffffffffff1673ffffffffffffffffffffffffffffffffffffffff1681526020019081526020015f206040518060400160405290815f820154815260200160018201548152505090505f610b628286612b86565b9050610b71825f015186612926565b610b79612d02565b5f60035490505f83602001517f000000000000000000000000000000000000000000000000000000000000000083865f0151610bb59190613e32565b610bbf9190613ea0565b610bc99190613ed0565b90505f811115610c6e57610c1f8582600d5f9054906101000a900473ffffffffffffffffffffffffffffffffffffffff1673ffffffffffffffffffffffffffffffffffffffff166126a09092919063ffffffff16565b8473ffffffffffffffffffffffffffffffffffffffff167fda8a33b1852650a10f5393ae95d54ebfcb4e7e0fc67db151fd88babe81c7d88782604051610c659190613b4e565b60405180910390a25b5f83855f0151610c7e9190613ed0565b90507f00000000000000000000000000000000000000000000000000000000000000008382610cad9190613e32565b610cb79190613ea0565b85602001818152505080855f0181815250508360085f828254610cda9190613ed0565b925050819055508460115f8873ffffffffffffffffffffffffffffffffffffffff1673ffffffffffffffffffffffffffffffffffffffff1681526020019081526020015f205f820151815f0155602082015181600101559050508573ffffffffffffffffffffffffffffffffffffffff167f0f5bb82176feb1b5e747e28471aa92156a04d9f3ab9f45f28e2d704232b93f7589604051610d7a9190613b4e565b60405180910390a2610dce8689600e5f9054906101000a900473ffffffffffffffffffffffffffffffffffffffff1673ffffffffffffffffffffffffffffffffffffffff166126a09092919063ffffffff16565b505050505050610ddc612df4565b5050565b60035481565b600a5f9054906101000a900473ffffffffffffffffffffffffffffffffffffffff1673ffffffffffffffffffffffffffffffffffffffff163373ffffffffffffffffffffffffffffffffffffffff1614610e6c576040517fd4d7478300000000000000000000000000000000000000000000000000000000815260040160405180910390fd5b610e74612dfd565b565b60045f9054906101000a90046fffffffffffffffffffffffffffffffff1681565b600d5f9054906101000a900473ffffffffffffffffffffffffffffffffffffffff1681565b60075481565b5f600e5f9054906101000a900473ffffffffffffffffffffffffffffffffffffffff1673ffffffffffffffffffffffffffffffffffffffff166370a08231306040518263ffffffff1660e01b8152600401610f1d9190613bb9565b602060405180830381865afa158015610f38573d5f803e3d5ffd5b505050506040513d601f19601f82011682018060405250810190610f5c9190613dda565b905090565b60085481565b5f600460109054906101000a90046fffffffffffffffffffffffffffffffff166fffffffffffffffffffffffffffffffff164311610faf57610fa882612e5e565b9050610ff5565b5f610fb8612fde565b9050807f000000000000000000000000000000000000000000000000000000000000000084610fe79190613e32565b610ff19190613ea0565b9150505b5f610ffe610ec2565b90508082111561100c578091505b50919050565b5f60025f9054906101000a900460ff16905090565b5f805f8060045f9054906101000a90046fffffffffffffffffffffffffffffffff16600460109054906101000a90046fffffffffffffffffffffffffffffffff1661107061256a565b611078612366565b935093509350935090919293565b60105f9054906101000a900473ffffffffffffffffffffffffffffffffffffffff1681565b6110b3612619565b6110bc5f6131a2565b565b6c0c9f2c9cd04674edea4000000081565b6110d7612619565b6110df612760565b5f60135414801561111f5750600460109054906101000a90046fffffffffffffffffffffffffffffffff166fffffffffffffffffffffffffffffffff1643115b1561117c575f61114e7f00000000000000000000000000000000000000000000000000000000000000006127a6565b905061117a817f0000000000000000000000000000000000000000000000000000000000000000612926565b505b5f80611186613263565b915091506111dd611195611751565b83600e5f9054906101000a900473ffffffffffffffffffffffffffffffffffffffff1673ffffffffffffffffffffffffffffffffffffffff166126a09092919063ffffffff16565b61124a600a5f9054906101000a900473ffffffffffffffffffffffffffffffffffffffff1682600e5f9054906101000a900473ffffffffffffffffffffffffffffffffffffffff1673ffffffffffffffffffffffffffffffffffffffff166126a09092919063ffffffff16565b5050611254612df4565b565b61125e61271f565b611266612760565b5f6013541480156112a65750600460109054906101000a90046fffffffffffffffffffffffffffffffff166fffffffffffffffffffffffffffffffff1643115b15611303575f6112d57f00000000000000000000000000000000000000000000000000000000000000006127a6565b9050611301817f0000000000000000000000000000000000000000000000000000000000000000612926565b505b5f61130c612b7f565b90505f60115f8373ffffffffffffffffffffffffffffffffffffffff1673ffffffffffffffffffffffffffffffffffffffff1681526020019081526020015f206040518060400160405290815f820154815260200160018201548152505090505f815f0151036113a8576040517f0f43956a00000000000000000000000000000000000000000000000000000000815260040160405180910390fd5b6113b0612d02565b5f60035490505f82602001517f000000000000000000000000000000000000000000000000000000000000000083855f01516113ec9190613e32565b6113f69190613ea0565b6114009190613ed0565b90505f810361143b576040517f0f43956a00000000000000000000000000000000000000000000000000000000815260040160405180910390fd5b7f000000000000000000000000000000000000000000000000000000000000000082845f015161146b9190613e32565b6114759190613ea0565b8360200181815250508260115f8673ffffffffffffffffffffffffffffffffffffffff1673ffffffffffffffffffffffffffffffffffffffff1681526020019081526020015f205f820151815f01556020820151816001015590505061151d8482600d5f9054906101000a900473ffffffffffffffffffffffffffffffffffffffff1673ffffffffffffffffffffffffffffffffffffffff166126a09092919063ffffffff16565b8373ffffffffffffffffffffffffffffffffffffffff167fda8a33b1852650a10f5393ae95d54ebfcb4e7e0fc67db151fd88babe81c7d887826040516115639190613b4e565b60405180910390a250505050611577612df4565b565b5f60115f8373ffffffffffffffffffffffffffffffffffffffff1673ffffffffffffffffffffffffffffffffffffffff1681526020019081526020015f205f01549050919050565b5f8060115f8473ffffffffffffffffffffffffffffffffffffffff1673ffffffffffffffffffffffffffffffffffffffff1681526020019081526020015f206040518060400160405290815f820154815260200160018201548152505090505f815f015103611633575f915050611694565b80602001517f00000000000000000000000000000000000000000000000000000000000000006116616133b3565b60035461166e9190613f03565b835f015161167c9190613e32565b6116869190613ea0565b6116909190613ed0565b9150505b919050565b60065481565b600a5f9054906101000a900473ffffffffffffffffffffffffffffffffffffffff1673ffffffffffffffffffffffffffffffffffffffff163373ffffffffffffffffffffffffffffffffffffffff1614611725576040517fd4d7478300000000000000000000000000000000000000000000000000000000815260040160405180910390fd5b61172d61375b565b565b600560109054906101000a90046fffffffffffffffffffffffffffffffff1681565b5f805f9054906101000a900473ffffffffffffffffffffffffffffffffffffffff16905090565b600f5f9054906101000a900473ffffffffffffffffffffffffffffffffffffffff1681565b6011602052805f5260405f205f91509050805f0154908060010154905082565b600c81815481106117cc575f80fd5b905f5260205f209060029182820401919006601002915054906101000a90046fffffffffffffffffffffffffffffffff1681565b600e5f9054906101000a900473ffffffffffffffffffffffffffffffffffffffff1681565b60125481565b600a5f9054906101000a900473ffffffffffffffffffffffffffffffffffffffff1673ffffffffffffffffffffffffffffffffffffffff163373ffffffffffffffffffffffffffffffffffffffff16146118b1576040517fd4d7478300000000000000000000000000000000000000000000000000000000815260040160405180910390fd5b600460109054906101000a90046fffffffffffffffffffffffffffffffff166fffffffffffffffffffffffffffffffff16431161191a576040517fc00b64a100000000000000000000000000000000000000000000000000000000815260040160405180910390fd5b611922612760565b5f6013541480156119625750600460109054906101000a90046fffffffffffffffffffffffffffffffff166fffffffffffffffffffffffffffffffff1643115b156119bf575f6119917f00000000000000000000000000000000000000000000000000000000000000006127a6565b90506119bd817f0000000000000000000000000000000000000000000000000000000000000000612926565b505b60155f9054906101000a900460ff1615611a05576040517fdac5eb0f00000000000000000000000000000000000000000000000000000000815260040160405180910390fd5b600160155f6101000a81548160ff0219169083151502179055505f611a28613263565b915050611a98600a5f9054906101000a900473ffffffffffffffffffffffffffffffffffffffff1682600e5f9054906101000a900473ffffffffffffffffffffffffffffffffffffffff1673ffffffffffffffffffffffffffffffffffffffff166126a09092919063ffffffff16565b50611aa1612df4565b565b805f8103611add576040517f0f43956a00000000000000000000000000000000000000000000000000000000815260040160405180910390fd5b60045f9054906101000a90046fffffffffffffffffffffffffffffffff166fffffffffffffffffffffffffffffffff16431080611b495750600460109054906101000a90046fffffffffffffffffffffffffffffffff166fffffffffffffffffffffffffffffffff1643115b15611b80576040517fa2255c1700000000000000000000000000000000000000000000000000000000815260040160405180910390fd5b611b8861271f565b611b90612760565b600654821115611bcc576040517f2b5dea7500000000000000000000000000000000000000000000000000000000815260040160405180910390fd5b5f611bd5612b7f565b90505f60115f8373ffffffffffffffffffffffffffffffffffffffff1673ffffffffffffffffffffffffffffffffffffffff1681526020019081526020015f2090505f611c21856127a6565b9050611c2d8186612926565b611c35612d02565b5f825f01541115611d33575f82600101547f0000000000000000000000000000000000000000000000000000000000000000600354855f0154611c789190613e32565b611c829190613ea0565b611c8c9190613ed0565b90505f811115611d3157611ce23382600d5f9054906101000a900473ffffffffffffffffffffffffffffffffffffffff1673ffffffffffffffffffffffffffffffffffffffff166126a09092919063ffffffff16565b8373ffffffffffffffffffffffffffffffffffffffff167fda8a33b1852650a10f5393ae95d54ebfcb4e7e0fc67db151fd88babe81c7d88782604051611d289190613b4e565b60405180910390a25b505b80825f015f828254611d459190613f03565b925050819055508060085f828254611d5d9190613f03565b92505081905550611db2333087600e5f9054906101000a900473ffffffffffffffffffffffffffffffffffffffff1673ffffffffffffffffffffffffffffffffffffffff166137bd909392919063ffffffff16565b7f0000000000000000000000000000000000000000000000000000000000000000600354835f0154611de49190613e32565b611dee9190613ea0565b82600101819055503373ffffffffffffffffffffffffffffffffffffffff167f9e71bc8eea02a63969f509818f2dafb9254532904319f9dbda79b67bd34a5f3d86604051611e3c9190613b4e565b60405180910390a2505050611e4f612df4565b5050565b60095481565b600a5f9054906101000a900473ffffffffffffffffffffffffffffffffffffffff1673ffffffffffffffffffffffffffffffffffffffff163373ffffffffffffffffffffffffffffffffffffffff1614611edf576040517fd4d7478300000000000000000000000000000000000000000000000000000000815260040160405180910390fd5b8060105f6101000a81548173ffffffffffffffffffffffffffffffffffffffff021916908373ffffffffffffffffffffffffffffffffffffffff16021790555050565b611f2a612619565b600460109054906101000a90046fffffffffffffffffffffffffffffffff166fffffffffffffffffffffffffffffffff164311611f93576040517fc00b64a100000000000000000000000000000000000000000000000000000000815260040160405180910390fd5b5f600d5f9054906101000a900473ffffffffffffffffffffffffffffffffffffffff1673ffffffffffffffffffffffffffffffffffffffff166370a08231306040518263ffffffff1660e01b8152600401611fee9190613bb9565b602060405180830381865afa158015612009573d5f803e3d5ffd5b505050506040513d601f19601f8201168201806040525081019061202d9190613dda565b905061207b3382600d5f9054906101000a900473ffffffffffffffffffffffffffffffffffffffff1673ffffffffffffffffffffffffffffffffffffffff166126a09092919063ffffffff16565b6120ce612086611751565b82600d5f9054906101000a900473ffffffffffffffffffffffffffffffffffffffff1673ffffffffffffffffffffffffffffffffffffffff166126a09092919063ffffffff16565b50565b601460109054906101000a90046fffffffffffffffffffffffffffffffff1681565b805f810361212d576040517f0f43956a00000000000000000000000000000000000000000000000000000000815260040160405180910390fd5b612135612760565b5f61213e612b7f565b90505f60115f8373ffffffffffffffffffffffffffffffffffffffff1673ffffffffffffffffffffffffffffffffffffffff1681526020019081526020015f206040518060400160405290815f820154815260200160018201548152505090505f6121a98286612b86565b90506121b8825f015186612926565b6121c0612d02565b80825f018181516121d19190613ed0565b91508181525050600354825f01516121e99190613e32565b8260200181815250508060085f8282546122039190613ed0565b925050819055508160115f8573ffffffffffffffffffffffffffffffffffffffff1673ffffffffffffffffffffffffffffffffffffffff1681526020019081526020015f205f820151815f0155602082015181600101559050508273ffffffffffffffffffffffffffffffffffffffff167f0f5bb82176feb1b5e747e28471aa92156a04d9f3ab9f45f28e2d704232b93f75866040516122a39190613b4e565b60405180910390a26122f78386600e5f9054906101000a900473ffffffffffffffffffffffffffffffffffffffff1673ffffffffffffffffffffffffffffffffffffffff166126a09092919063ffffffff16565b505050612302612df4565b5050565b60135481565b600b602052805f5260405f205f915090505481565b7f000000000000000000000000000000000000000000000000000000000000000081565b60055f9054906101000a90046fffffffffffffffffffffffffffffffff1681565b5f600460109054906101000a90046fffffffffffffffffffffffffffffffff166fffffffffffffffffffffffffffffffff1643106123a6575f90506124ad565b5f4390505f80600c8054905090505f60095490505b818110156124a557600c81815481106123d7576123d6613f36565b5b905f5260205f2090600291828204019190066010029054906101000a90046fffffffffffffffffffffffffffffffff166fffffffffffffffffffffffffffffffff1684106124a557600b5f600c838154811061243657612435613f36565b5b905f5260205f2090600291828204019190066010029054906101000a90046fffffffffffffffffffffffffffffffff166fffffffffffffffffffffffffffffffff166fffffffffffffffffffffffffffffffff1681526020019081526020015f205492508060010190506123bb565b508193505050505b90565b60155f9054906101000a900460ff1681565b7f000000000000000000000000000000000000000000000000000000000000000081565b6124ee612619565b5f73ffffffffffffffffffffffffffffffffffffffff168173ffffffffffffffffffffffffffffffffffffffff160361255e575f6040517f1e4fbdf70000000000000000000000000000000000000000000000000000000081526004016125559190613bb9565b60405180910390fd5b612567816131a2565b50565b5f600d5f9054906101000a900473ffffffffffffffffffffffffffffffffffffffff1673ffffffffffffffffffffffffffffffffffffffff166370a08231306040518263ffffffff1660e01b81526004016125c59190613bb9565b602060405180830381865afa1580156125e0573d5f803e3d5ffd5b505050506040513d601f19601f820116820180604052508101906126049190613dda565b905090565b5f80600654600754915091509091565b612621612b7f565b73ffffffffffffffffffffffffffffffffffffffff1661263f611751565b73ffffffffffffffffffffffffffffffffffffffff161461269e57612662612b7f565b6040517f118cdaa70000000000000000000000000000000000000000000000000000000081526004016126959190613bb9565b60405180910390fd5b565b61271a838473ffffffffffffffffffffffffffffffffffffffff1663a9059cbb85856040516024016126d3929190613f63565b604051602081830303815290604052915060e01b6020820180517bffffffffffffffffffffffffffffffffffffffffffffffffffffffff838183161783525050505061383f565b505050565b612727611012565b1561275e576040517fd93c066500000000000000000000000000000000000000000000000000000000815260040160405180910390fd5b565b60026001540361279c576040517f3ee5aeb500000000000000000000000000000000000000000000000000000000815260040160405180910390fd5b6002600181905550565b5f8060105f9054906101000a900473ffffffffffffffffffffffffffffffffffffffff1673ffffffffffffffffffffffffffffffffffffffff1663b2306010600f5f9054906101000a900473ffffffffffffffffffffffffffffffffffffffff166040518263ffffffff1660e01b81526004016128239190613bb9565b602060405180830381865afa15801561283e573d5f803e3d5ffd5b505050506040513d601f19601f820116820180604052508101906128629190613fdf565b90505f60105f9054906101000a900473ffffffffffffffffffffffffffffffffffffffff1673ffffffffffffffffffffffffffffffffffffffff16631443d5b0836040518263ffffffff1660e01b81526004016128bf9190614019565b6040805180830381865afa1580156128d9573d5f803e3d5ffd5b505050506040513d601f19601f820116820180604052508101906128fd919061410b565b90508060200151815f0151856129139190613e32565b61291d9190613ea0565b92505050919050565b5f4390505f601460109054906101000a90046fffffffffffffffffffffffffffffffff166fffffffffffffffffffffffffffffffff16826129679190613ed0565b90505f8103612977575050612b7b565b5f600460109054906101000a90046fffffffffffffffffffffffffffffffff166fffffffffffffffffffffffffffffffff16831190505f806013541190508180156129bf5750805b156129cd5750505050612b7b565b5f857f0000000000000000000000000000000000000000000000000000000000000000886129fb9190613e32565b612a059190613ea0565b90506012548111612a1a575050505050612b7b565b5f60125482612a299190613ed0565b90505f8582612a389190613ea0565b905084612a80578260128190555086601460106101000a8154816fffffffffffffffffffffffffffffffff02191690836fffffffffffffffffffffffffffffffff1602179055505b60145f9054906101000a90046fffffffffffffffffffffffffffffffff166fffffffffffffffffffffffffffffffff1681600160145f9054906101000a90046fffffffffffffffffffffffffffffffff16612adb9190614136565b6fffffffffffffffffffffffffffffffff16601354612afa9190613e32565b612b049190613f03565b612b0e9190613ea0565b60138190555060145f81819054906101000a90046fffffffffffffffffffffffffffffffff16612b3d90614179565b91906101000a8154816fffffffffffffffffffffffffffffffff02191690836fffffffffffffffffffffffffffffffff160217905550505050505050505b5050565b5f33905090565b5f80835f015103612bc3576040517f0f43956a00000000000000000000000000000000000000000000000000000000815260040160405180910390fd5b600460109054906101000a90046fffffffffffffffffffffffffffffffff166fffffffffffffffffffffffffffffffff16431115612c69575f60135403612c1e57612c0d826127a6565b9050612c198183612926565b612c64565b5f612c27612fde565b90507f00000000000000000000000000000000000000000000000000000000000000008184612c569190613e32565b612c609190613ea0565b9150505b612c75565b612c72826127a6565b90505b5f612c82845f0151610f67565b905082811015612cbe576040517f3455ae2800000000000000000000000000000000000000000000000000000000815260040160405180910390fd5b81845f01511015612cfb576040517f42a83c8400000000000000000000000000000000000000000000000000000000815260040160405180910390fd5b5092915050565b5f43905060055f9054906101000a90046fffffffffffffffffffffffffffffffff166fffffffffffffffffffffffffffffffff168103612d425750612df2565b5f60085403612d91574360055f6101000a8154816fffffffffffffffffffffffffffffffff02191690836fffffffffffffffffffffffffffffffff160217905550612d8b6138da565b50612df2565b612d996133b3565b60035f828254612da99190613f03565b925050819055508060055f6101000a8154816fffffffffffffffffffffffffffffffff02191690836fffffffffffffffffffffffffffffffff160217905550612df06138da565b505b565b60018081905550565b612e05613995565b5f60025f6101000a81548160ff0219169083151502179055507f5db9ee0a495bf2e6ff9c91a7834c1ba4fdd244a5e8aa4e537bd38aeae4b073aa612e47612b7f565b604051612e549190613bb9565b60405180910390a1565b5f8060105f9054906101000a900473ffffffffffffffffffffffffffffffffffffffff1673ffffffffffffffffffffffffffffffffffffffff1663b2306010600f5f9054906101000a900473ffffffffffffffffffffffffffffffffffffffff166040518263ffffffff1660e01b8152600401612edb9190613bb9565b602060405180830381865afa158015612ef6573d5f803e3d5ffd5b505050506040513d601f19601f82011682018060405250810190612f1a9190613fdf565b90505f60105f9054906101000a900473ffffffffffffffffffffffffffffffffffffffff1673ffffffffffffffffffffffffffffffffffffffff16631443d5b0836040518263ffffffff1660e01b8152600401612f779190614019565b6040805180830381865afa158015612f91573d5f803e3d5ffd5b505050506040513d601f19601f82011682018060405250810190612fb5919061410b565b9050805f0151816020015185612fcb9190613e32565b612fd59190613ea0565b92505050919050565b5f80601460109054906101000a90046fffffffffffffffffffffffffffffffff16600460109054906101000a90046fffffffffffffffffffffffffffffffff166130289190614136565b6fffffffffffffffffffffffffffffffff169050600460109054906101000a90046fffffffffffffffffffffffffffffffff166fffffffffffffffffffffffffffffffff164311801561307c57505f601354145b15613180575f6130ab7f00000000000000000000000000000000000000000000000000000000000000006127a6565b90505f601460109054906101000a90046fffffffffffffffffffffffffffffffff166fffffffffffffffffffffffffffffffff16436130ea9190613ed0565b601254836130f89190613ed0565b6131029190613ea0565b9050601460109054906101000a90046fffffffffffffffffffffffffffffffff16600460109054906101000a90046fffffffffffffffffffffffffffffffff1661314c9190614136565b6fffffffffffffffffffffffffffffffff16816131699190613e32565b6012546131769190613f03565b935050505061319f565b8060135461318e9190613e32565b60125461319b9190613f03565b9150505b90565b5f805f9054906101000a900473ffffffffffffffffffffffffffffffffffffffff169050815f806101000a81548173ffffffffffffffffffffffffffffffffffffffff021916908373ffffffffffffffffffffffffffffffffffffffff1602179055508173ffffffffffffffffffffffffffffffffffffffff168173ffffffffffffffffffffffffffffffffffffffff167f8be0079c531659141344cd1fd0a4f28419497f9722a3daafe3b4186f6b6457e060405160405180910390a35050565b5f805f600e5f9054906101000a900473ffffffffffffffffffffffffffffffffffffffff1673ffffffffffffffffffffffffffffffffffffffff166370a08231306040518263ffffffff1660e01b81526004016132c09190613bb9565b602060405180830381865afa1580156132db573d5f803e3d5ffd5b505050506040513d601f19601f820116820180604052508101906132ff9190613dda565b90505f8103613314575f8092509250506133af565b5f613320600854610f67565b90505f818361332f9190613ed0565b905060155f9054906101000a900460ff161561335357805f945094505050506133af565b6064600560109054906101000a90046fffffffffffffffffffffffffffffffff166fffffffffffffffffffffffffffffffff16826133919190613e32565b61339b9190613ea0565b945084816133a99190613ed0565b93505050505b9091565b5f80600854036133c5575f9050613758565b5f4390505f60055f9054906101000a90046fffffffffffffffffffffffffffffffff1690505f80600c8054905090505f8060095490505b828110156135fe57600c818154811061341857613417613f36565b5b905f5260205f2090600291828204019190066010029054906101000a90046fffffffffffffffffffffffffffffffff16935085846fffffffffffffffffffffffffffffffff1610156135fe57846fffffffffffffffffffffffffffffffff16846fffffffffffffffffffffffffffffffff1611156135f1575f6134bf866fffffffffffffffffffffffffffffffff16866fffffffffffffffffffffffffffffffff166139d5565b90505f600b5f80851461352157600c6001866134db9190613ed0565b815481106134ec576134eb613f36565b5b905f5260205f2090600291828204019190066010029054906101000a90046fffffffffffffffffffffffffffffffff16613566565b600c5f8154811061353557613534613f36565b5b905f5260205f2090600291828204019190066010029054906101000a90046fffffffffffffffffffffffffffffffff165b6fffffffffffffffffffffffffffffffff166fffffffffffffffffffffffffffffffff1681526020019081526020015f205490506008547f000000000000000000000000000000000000000000000000000000000000000083836135ca9190613e32565b6135d49190613e32565b6135de9190613ea0565b846135e99190613f03565b935085965050505b80806001019150506133fc565b5f61361b866fffffffffffffffffffffffffffffffff16886139d5565b90505f87866fffffffffffffffffffffffffffffffff1611156136c257600b5f600c60018661364a9190613ed0565b8154811061365b5761365a613f36565b5b905f5260205f2090600291828204019190066010029054906101000a90046fffffffffffffffffffffffffffffffff166fffffffffffffffffffffffffffffffff166fffffffffffffffffffffffffffffffff1681526020019081526020015f20546136f9565b600b5f876fffffffffffffffffffffffffffffffff166fffffffffffffffffffffffffffffffff1681526020019081526020015f20545b90506008547f0000000000000000000000000000000000000000000000000000000000000000838361372b9190613e32565b6137359190613e32565b61373f9190613ea0565b8461374a9190613f03565b935083985050505050505050505b90565b61376361271f565b600160025f6101000a81548160ff0219169083151502179055507f62e78cea01bee320cd4e420270b5ea74000d11b0c9f74754ebdbfc544b05a2586137a6612b7f565b6040516137b39190613bb9565b60405180910390a1565b613839848573ffffffffffffffffffffffffffffffffffffffff166323b872dd8686866040516024016137f2939291906141b0565b604051602081830303815290604052915060e01b6020820180517bffffffffffffffffffffffffffffffffffffffffffffffffffffffff838183161783525050505061383f565b50505050565b5f8060205f8451602086015f885af18061385e576040513d5f823e3d81fd5b3d92505f519150505f8214613877576001811415613892565b5f8473ffffffffffffffffffffffffffffffffffffffff163b145b156138d457836040517f5274afe70000000000000000000000000000000000000000000000000000000081526004016138cb9190613bb9565b60405180910390fd5b50505050565b5f600c8054905090505f60095490505b818110156139915760055f9054906101000a90046fffffffffffffffffffffffffffffffff166fffffffffffffffffffffffffffffffff16600c828154811061393657613935613f36565b5b905f5260205f2090600291828204019190066010029054906101000a90046fffffffffffffffffffffffffffffffff166fffffffffffffffffffffffffffffffff1611613991578060098190555080806001019150506138ea565b5050565b61399d611012565b6139d3576040517f8dfc202b00000000000000000000000000000000000000000000000000000000815260040160405180910390fd5b565b5f600460109054906101000a90046fffffffffffffffffffffffffffffffff166fffffffffffffffffffffffffffffffff168211613a20578282613a199190613ed0565b9050613a9e565b600460109054906101000a90046fffffffffffffffffffffffffffffffff166fffffffffffffffffffffffffffffffff168310613a5f575f9050613a9e565b82600460109054906101000a90046fffffffffffffffffffffffffffffffff166fffffffffffffffffffffffffffffffff16613a9b9190613ed0565b90505b92915050565b5f604051905090565b5f80fd5b5f73ffffffffffffffffffffffffffffffffffffffff82169050919050565b5f613ada82613ab1565b9050919050565b613aea81613ad0565b8114613af4575f80fd5b50565b5f81359050613b0581613ae1565b92915050565b5f60208284031215613b2057613b1f613aad565b5b5f613b2d84828501613af7565b91505092915050565b5f819050919050565b613b4881613b36565b82525050565b5f602082019050613b615f830184613b3f565b92915050565b5f6fffffffffffffffffffffffffffffffff82169050919050565b613b8b81613b67565b82525050565b5f602082019050613ba45f830184613b82565b92915050565b613bb381613ad0565b82525050565b5f602082019050613bcc5f830184613baa565b92915050565b613bdb81613b36565b8114613be5575f80fd5b50565b5f81359050613bf681613bd2565b92915050565b5f60208284031215613c1157613c10613aad565b5b5f613c1e84828501613be8565b91505092915050565b5f819050919050565b5f613c4a613c45613c4084613ab1565b613c27565b613ab1565b9050919050565b5f613c5b82613c30565b9050919050565b5f613c6c82613c51565b9050919050565b613c7c81613c62565b82525050565b5f602082019050613c955f830184613c73565b92915050565b5f8115159050919050565b613caf81613c9b565b82525050565b5f602082019050613cc85f830184613ca6565b92915050565b5f608082019050613ce15f830187613b82565b613cee6020830186613b82565b613cfb6040830185613b3f565b613d086060830184613b3f565b95945050505050565b5f613d1b82613c51565b9050919050565b613d2b81613d11565b82525050565b5f602082019050613d445f830184613d22565b92915050565b5f604082019050613d5d5f830185613b3f565b613d6a6020830184613b3f565b9392505050565b613d7a81613b67565b8114613d84575f80fd5b50565b5f81359050613d9581613d71565b92915050565b5f60208284031215613db057613daf613aad565b5b5f613dbd84828501613d87565b91505092915050565b5f81519050613dd481613bd2565b92915050565b5f60208284031215613def57613dee613aad565b5b5f613dfc84828501613dc6565b91505092915050565b7f4e487b71000000000000000000000000000000000000000000000000000000005f52601160045260245ffd5b5f613e3c82613b36565b9150613e4783613b36565b9250828202613e5581613b36565b91508282048414831517613e6c57613e6b613e05565b5b5092915050565b7f4e487b71000000000000000000000000000000000000000000000000000000005f52601260045260245ffd5b5f613eaa82613b36565b9150613eb583613b36565b925082613ec557613ec4613e73565b5b828204905092915050565b5f613eda82613b36565b9150613ee583613b36565b9250828203905081811115613efd57613efc613e05565b5b92915050565b5f613f0d82613b36565b9150613f1883613b36565b9250828201905080821115613f3057613f2f613e05565b5b92915050565b7f4e487b71000000000000000000000000000000000000000000000000000000005f52603260045260245ffd5b5f604082019050613f765f830185613baa565b613f836020830184613b3f565b9392505050565b5f7fffff00000000000000000000000000000000000000000000000000000000000082169050919050565b613fbe81613f8a565b8114613fc8575f80fd5b50565b5f81519050613fd981613fb5565b92915050565b5f60208284031215613ff457613ff3613aad565b5b5f61400184828501613fcb565b91505092915050565b61401381613f8a565b82525050565b5f60208201905061402c5f83018461400a565b92915050565b5f80fd5b5f601f19601f8301169050919050565b7f4e487b71000000000000000000000000000000000000000000000000000000005f52604160045260245ffd5b61407c82614036565b810181811067ffffffffffffffff8211171561409b5761409a614046565b5b80604052505050565b5f6140ad613aa4565b90506140b98282614073565b919050565b5f604082840312156140d3576140d2614032565b5b6140dd60406140a4565b90505f6140ec84828501613dc6565b5f8301525060206140ff84828501613dc6565b60208301525092915050565b5f604082840312156141205761411f613aad565b5b5f61412d848285016140be565b91505092915050565b5f61414082613b67565b915061414b83613b67565b925082820390506fffffffffffffffffffffffffffffffff81111561417357614172613e05565b5b92915050565b5f61418382613b67565b91506fffffffffffffffffffffffffffffffff82036141a5576141a4613e05565b5b600182019050919050565b5f6060820190506141c35f830186613baa565b6141d06020830185613baa565b6141dd6040830184613b3f565b94935050505056fea26469706673582212206c540ed5e79054f0731a9553683220bb92b97febc8f5882f9bc688df968947ce64736f6c634300081a0033","linkReferences":{}},"methodIdentifiers":{"BASE_PRECISION()":"72cacb70","MAX_DECIMALS()":"0417cf8e","ONE_VTOKEN()":"bb8afc7b","SCALING_FACTOR()":"ef4cadc5","acceptedNativeAsset()":"8e70fa8c","acceptedVAsset()":"99dc0390","avgNativeExRateGradient()":"b66a72df","changeBlocks(uint256)":"976251e6","claimLeftoverProjectToken()":"ab7302bb","claimOwnerInterest()":"72e48cf3","claimPlatformFee()":"9c8aea90","claimProjectTokens()":"7950ea7e","cumulativeExchangeRate()":"33d8773d","emissionRateChanges(uint128)":"b87a6aeb","endBlock()":"083c6323","getClaimableProjectToken(address)":"80729f17","getEmissionRate()":"c0a77da9","getPoolInfo()":"60246c88","getStakerNativeAmount(address)":"7d334107","getStakingRange()":"fce88e6f","getTotalProjectToken()":"f73a8b5c","getTotalStakedVTokens()":"534a9d00","getWithdrawableVTokens(uint256)":"5bf0fa89","lastNativeExRate()":"9b4f8321","lastNativeExRateUpdateBlock()":"b1f0af1b","lastProcessedChangeBlockIndex()":"a748afb0","maxStakers()":"4f7ff503","maxVAssetPerStaker()":"81cadea0","nativeExRateSampleCount()":"06508ebc","owner()":"8da5cb5b","ownerShareOfInterest()":"84d38d48","pause()":"8456cb59","paused()":"5c975abb","platformAdminAddress()":"129989a3","platformFeeClaimed()":"d065cf8e","projectToken()":"4b60ce77","recoverWrongToken(address)":"018bcf5c","renounceOwnership()":"715018a6","setXCMOracleAddress(address)":"aac9ce5c","stake(uint256)":"a694fc3a","stakers(address)":"9168ae72","startBlock()":"48cd4cb1","tickBlock()":"bfc55b8a","totalNativeStake()":"544c2d76","transferOwnership(address)":"f2fde38b","unpause()":"3f4ba83a","unstake(uint256)":"2e17de78","unstakeWithoutProjectToken(uint256)":"b64a025e","xcmOracle()":"6cf56846"},"storageLayout":{"storage":[{"astId":39589,"contract":"src/non-upgradeable/Launchpool.sol:Launchpool","label":"_owner","offset":0,"slot":"0","type":"t_address"},{"astId":42204,"contract":"src/non-upgradeable/Launchpool.sol:Launchpool","label":"_status","offset":0,"slot":"1","type":"t_uint256"},{"astId":42085,"contract":"src/non-upgradeable/Launchpool.sol:Launchpool","label":"_paused","offset":0,"slot":"2","type":"t_bool"},{"astId":52709,"contract":"src/non-upgradeable/Launchpool.sol:Launchpool","label":"cumulativeExchangeRate","offset":0,"slot":"3","type":"t_uint256"},{"astId":52711,"contract":"src/non-upgradeable/Launchpool.sol:Launchpool","label":"startBlock","offset":0,"slot":"4","type":"t_uint128"},{"astId":52713,"contract":"src/non-upgradeable/Launchpool.sol:Launchpool","label":"endBlock","offset":16,"slot":"4","type":"t_uint128"},{"astId":52715,"contract":"src/non-upgradeable/Launchpool.sol:Launchpool","label":"tickBlock","offset":0,"slot":"5","type":"t_uint128"},{"astId":52718,"contract":"src/non-upgradeable/Launchpool.sol:Launchpool","label":"ownerShareOfInterest","offset":16,"slot":"5","type":"t_uint128"},{"astId":52720,"contract":"src/non-upgradeable/Launchpool.sol:Launchpool","label":"maxVAssetPerStaker","offset":0,"slot":"6","type":"t_uint256"},{"astId":52722,"contract":"src/non-upgradeable/Launchpool.sol:Launchpool","label":"maxStakers","offset":0,"slot":"7","type":"t_uint256"},{"astId":52724,"contract":"src/non-upgradeable/Launchpool.sol:Launchpool","label":"totalNativeStake","offset":0,"slot":"8","type":"t_uint256"},{"astId":52734,"contract":"src/non-upgradeable/Launchpool.sol:Launchpool","label":"lastProcessedChangeBlockIndex","offset":0,"slot":"9","type":"t_uint256"},{"astId":52737,"contract":"src/non-upgradeable/Launchpool.sol:Launchpool","label":"platformAdminAddress","offset":0,"slot":"10","type":"t_address"},{"astId":52741,"contract":"src/non-upgradeable/Launchpool.sol:Launchpool","label":"emissionRateChanges","offset":0,"slot":"11","type":"t_mapping(t_uint128,t_uint256)"},{"astId":52744,"contract":"src/non-upgradeable/Launchpool.sol:Launchpool","label":"changeBlocks","offset":0,"slot":"12","type":"t_array(t_uint128)dyn_storage"},{"astId":52747,"contract":"src/non-upgradeable/Launchpool.sol:Launchpool","label":"projectToken","offset":0,"slot":"13","type":"t_contract(IERC20)41277"},{"astId":52750,"contract":"src/non-upgradeable/Launchpool.sol:Launchpool","label":"acceptedVAsset","offset":0,"slot":"14","type":"t_contract(IERC20)41277"},{"astId":52753,"contract":"src/non-upgradeable/Launchpool.sol:Launchpool","label":"acceptedNativeAsset","offset":0,"slot":"15","type":"t_contract(IERC20)41277"},{"astId":52756,"contract":"src/non-upgradeable/Launchpool.sol:Launchpool","label":"xcmOracle","offset":0,"slot":"16","type":"t_contract(IXCMOracle)52084"},{"astId":52761,"contract":"src/non-upgradeable/Launchpool.sol:Launchpool","label":"stakers","offset":0,"slot":"17","type":"t_mapping(t_address,t_struct(Staker)52707_storage)"},{"astId":52763,"contract":"src/non-upgradeable/Launchpool.sol:Launchpool","label":"lastNativeExRate","offset":0,"slot":"18","type":"t_uint256"},{"astId":52765,"contract":"src/non-upgradeable/Launchpool.sol:Launchpool","label":"avgNativeExRateGradient","offset":0,"slot":"19","type":"t_uint256"},{"astId":52767,"contract":"src/non-upgradeable/Launchpool.sol:Launchpool","label":"nativeExRateSampleCount","offset":0,"slot":"20","type":"t_uint128"},{"astId":52769,"contract":"src/non-upgradeable/Launchpool.sol:Launchpool","label":"lastNativeExRateUpdateBlock","offset":16,"slot":"20","type":"t_uint128"},{"astId":52773,"contract":"src/non-upgradeable/Launchpool.sol:Launchpool","label":"platformFeeClaimed","offset":0,"slot":"21","type":"t_bool"}],"types":{"t_address":{"encoding":"inplace","label":"address","numberOfBytes":"20"},"t_array(t_uint128)dyn_storage":{"encoding":"dynamic_array","label":"uint128[]","numberOfBytes":"32","base":"t_uint128"},"t_bool":{"encoding":"inplace","label":"bool","numberOfBytes":"1"},"t_contract(IERC20)41277":{"encoding":"inplace","label":"contract IERC20","numberOfBytes":"20"},"t_contract(IXCMOracle)52084":{"encoding":"inplace","label":"contract IXCMOracle","numberOfBytes":"20"},"t_mapping(t_address,t_struct(Staker)52707_storage)":{"encoding":"mapping","key":"t_address","label":"mapping(address => struct Launchpool.Staker)","numberOfBytes":"32","value":"t_struct(Staker)52707_storage"},"t_mapping(t_uint128,t_uint256)":{"encoding":"mapping","key":"t_uint128","label":"mapping(uint128 => uint256)","numberOfBytes":"32","value":"t_uint256"},"t_struct(Staker)52707_storage":{"encoding":"inplace","label":"struct Launchpool.Staker","numberOfBytes":"64","members":[{"astId":52704,"contract":"src/non-upgradeable/Launchpool.sol:Launchpool","label":"nativeAmount","offset":0,"slot":"0","type":"t_uint256"},{"astId":52706,"contract":"src/non-upgradeable/Launchpool.sol:Launchpool","label":"claimOffset","offset":0,"slot":"1","type":"t_uint256"}]},"t_uint128":{"encoding":"inplace","label":"uint128","numberOfBytes":"16"},"t_uint256":{"encoding":"inplace","label":"uint256","numberOfBytes":"32"}}},"id":69}