{
	"abi": [
		{
			"type": "constructor",
			"inputs": [
				{
					"name": "xcmOracleAddress",
					"type": "address",
					"internalType": "address"
				},
				{
					"name": "_projectOwner",
					"type": "address",
					"internalType": "address"
				},
				{
					"name": "_projectToken",
					"type": "address",
					"internalType": "address"
				},
				{
					"name": "_acceptedVAsset",
					"type": "address",
					"internalType": "address"
				},
				{
					"name": "_acceptedNativeAsset",
					"type": "address",
					"internalType": "address"
				},
				{
					"name": "_startBlock",
					"type": "uint128",
					"internalType": "uint128"
				},
				{
					"name": "_endBlock",
					"type": "uint128",
					"internalType": "uint128"
				},
				{
					"name": "_maxVAssetPerStaker",
					"type": "uint256",
					"internalType": "uint256"
				},
				{
					"name": "_changeBlocks",
					"type": "uint128[]",
					"internalType": "uint128[]"
				},
				{
					"name": "_emissionRateChanges",
					"type": "uint256[]",
					"internalType": "uint256[]"
				}
			],
			"stateMutability": "nonpayable"
		},
		{
			"type": "function",
			"name": "BASE_PRECISION",
			"inputs": [],
			"outputs": [
				{
					"name": "",
					"type": "uint256",
					"internalType": "uint256"
				}
			],
			"stateMutability": "view"
		},
		{
			"type": "function",
			"name": "MAX_DECIMALS",
			"inputs": [],
			"outputs": [
				{
					"name": "",
					"type": "uint256",
					"internalType": "uint256"
				}
			],
			"stateMutability": "view"
		},
		{
			"type": "function",
			"name": "ONE_VTOKEN",
			"inputs": [],
			"outputs": [
				{
					"name": "",
					"type": "uint256",
					"internalType": "uint256"
				}
			],
			"stateMutability": "view"
		},
		{
			"type": "function",
			"name": "SCALING_FACTOR",
			"inputs": [],
			"outputs": [
				{
					"name": "",
					"type": "uint256",
					"internalType": "uint256"
				}
			],
			"stateMutability": "view"
		},
		{
			"type": "function",
			"name": "acceptedNativeAsset",
			"inputs": [],
			"outputs": [
				{
					"name": "",
					"type": "address",
					"internalType": "contract IERC20"
				}
			],
			"stateMutability": "view"
		},
		{
			"type": "function",
			"name": "acceptedVAsset",
			"inputs": [],
			"outputs": [
				{
					"name": "",
					"type": "address",
					"internalType": "contract IERC20"
				}
			],
			"stateMutability": "view"
		},
		{
			"type": "function",
			"name": "avgNativeExRateGradient",
			"inputs": [],
			"outputs": [
				{
					"name": "",
					"type": "uint256",
					"internalType": "uint256"
				}
			],
			"stateMutability": "view"
		},
		{
			"type": "function",
			"name": "changeBlocks",
			"inputs": [
				{
					"name": "",
					"type": "uint256",
					"internalType": "uint256"
				}
			],
			"outputs": [
				{
					"name": "",
					"type": "uint128",
					"internalType": "uint128"
				}
			],
			"stateMutability": "view"
		},
		{
			"type": "function",
			"name": "claimLeftoverProjectToken",
			"inputs": [],
			"outputs": [],
			"stateMutability": "nonpayable"
		},
		{
			"type": "function",
			"name": "claimOwnerInterest",
			"inputs": [],
			"outputs": [],
			"stateMutability": "nonpayable"
		},
		{
			"type": "function",
			"name": "claimPlatformFee",
			"inputs": [],
			"outputs": [],
			"stateMutability": "nonpayable"
		},
		{
			"type": "function",
			"name": "cumulativeExchangeRate",
			"inputs": [],
			"outputs": [
				{
					"name": "",
					"type": "uint256",
					"internalType": "uint256"
				}
			],
			"stateMutability": "view"
		},
		{
			"type": "function",
			"name": "emissionRateChanges",
			"inputs": [
				{
					"name": "",
					"type": "uint128",
					"internalType": "uint128"
				}
			],
			"outputs": [
				{
					"name": "",
					"type": "uint256",
					"internalType": "uint256"
				}
			],
			"stateMutability": "view"
		},
		{
			"type": "function",
			"name": "endBlock",
			"inputs": [],
			"outputs": [
				{
					"name": "",
					"type": "uint128",
					"internalType": "uint128"
				}
			],
			"stateMutability": "view"
		},
		{
			"type": "function",
			"name": "getClaimableProjectToken",
			"inputs": [
				{
					"name": "_investor",
					"type": "address",
					"internalType": "address"
				}
			],
			"outputs": [
				{
					"name": "",
					"type": "uint256",
					"internalType": "uint256"
				}
			],
			"stateMutability": "view"
		},
		{
			"type": "function",
			"name": "getEmissionRate",
			"inputs": [],
			"outputs": [
				{
					"name": "",
					"type": "uint256",
					"internalType": "uint256"
				}
			],
			"stateMutability": "view"
		},
		{
			"type": "function",
			"name": "getPoolInfo",
			"inputs": [],
			"outputs": [
				{
					"name": "",
					"type": "uint128",
					"internalType": "uint128"
				},
				{
					"name": "",
					"type": "uint128",
					"internalType": "uint128"
				},
				{
					"name": "",
					"type": "uint256",
					"internalType": "uint256"
				},
				{
					"name": "",
					"type": "uint256",
					"internalType": "uint256"
				}
			],
			"stateMutability": "view"
		},
		{
			"type": "function",
			"name": "getStakerNativeAmount",
			"inputs": [
				{
					"name": "_investor",
					"type": "address",
					"internalType": "address"
				}
			],
			"outputs": [
				{
					"name": "",
					"type": "uint256",
					"internalType": "uint256"
				}
			],
			"stateMutability": "view"
		},
		{
			"type": "function",
			"name": "getStakingRange",
			"inputs": [],
			"outputs": [
				{
					"name": "",
					"type": "uint256",
					"internalType": "uint256"
				},
				{
					"name": "",
					"type": "uint256",
					"internalType": "uint256"
				}
			],
			"stateMutability": "view"
		},
		{
			"type": "function",
			"name": "getTotalProjectToken",
			"inputs": [],
			"outputs": [
				{
					"name": "",
					"type": "uint256",
					"internalType": "uint256"
				}
			],
			"stateMutability": "view"
		},
		{
			"type": "function",
			"name": "getTotalStakedVTokens",
			"inputs": [],
			"outputs": [
				{
					"name": "",
					"type": "uint256",
					"internalType": "uint256"
				}
			],
			"stateMutability": "view"
		},
		{
			"type": "function",
			"name": "getWithdrawableVTokens",
			"inputs": [
				{
					"name": "_withdrawnNativeTokens",
					"type": "uint256",
					"internalType": "uint256"
				}
			],
			"outputs": [
				{
					"name": "withdrawableVAssets",
					"type": "uint256",
					"internalType": "uint256"
				}
			],
			"stateMutability": "view"
		},
		{
			"type": "function",
			"name": "lastNativeExRate",
			"inputs": [],
			"outputs": [
				{
					"name": "",
					"type": "uint256",
					"internalType": "uint256"
				}
			],
			"stateMutability": "view"
		},
		{
			"type": "function",
			"name": "lastNativeExRateUpdateBlock",
			"inputs": [],
			"outputs": [
				{
					"name": "",
					"type": "uint128",
					"internalType": "uint128"
				}
			],
			"stateMutability": "view"
		},
		{
			"type": "function",
			"name": "lastProcessedChangeBlockIndex",
			"inputs": [],
			"outputs": [
				{
					"name": "",
					"type": "uint256",
					"internalType": "uint256"
				}
			],
			"stateMutability": "view"
		},
		{
			"type": "function",
			"name": "maxStakers",
			"inputs": [],
			"outputs": [
				{
					"name": "",
					"type": "uint256",
					"internalType": "uint256"
				}
			],
			"stateMutability": "view"
		},
		{
			"type": "function",
			"name": "maxVAssetPerStaker",
			"inputs": [],
			"outputs": [
				{
					"name": "",
					"type": "uint256",
					"internalType": "uint256"
				}
			],
			"stateMutability": "view"
		},
		{
			"type": "function",
			"name": "nativeExRateSampleCount",
			"inputs": [],
			"outputs": [
				{
					"name": "",
					"type": "uint128",
					"internalType": "uint128"
				}
			],
			"stateMutability": "view"
		},
		{
			"type": "function",
			"name": "owner",
			"inputs": [],
			"outputs": [
				{
					"name": "",
					"type": "address",
					"internalType": "address"
				}
			],
			"stateMutability": "view"
		},
		{
			"type": "function",
			"name": "ownerShareOfInterest",
			"inputs": [],
			"outputs": [
				{
					"name": "",
					"type": "uint128",
					"internalType": "uint128"
				}
			],
			"stateMutability": "view"
		},
		{
			"type": "function",
			"name": "pause",
			"inputs": [],
			"outputs": [],
			"stateMutability": "nonpayable"
		},
		{
			"type": "function",
			"name": "paused",
			"inputs": [],
			"outputs": [
				{
					"name": "",
					"type": "bool",
					"internalType": "bool"
				}
			],
			"stateMutability": "view"
		},
		{
			"type": "function",
			"name": "platformAdminAddress",
			"inputs": [],
			"outputs": [
				{
					"name": "",
					"type": "address",
					"internalType": "address"
				}
			],
			"stateMutability": "view"
		},
		{
			"type": "function",
			"name": "platformFeeClaimed",
			"inputs": [],
			"outputs": [
				{
					"name": "",
					"type": "bool",
					"internalType": "bool"
				}
			],
			"stateMutability": "view"
		},
		{
			"type": "function",
			"name": "projectToken",
			"inputs": [],
			"outputs": [
				{
					"name": "",
					"type": "address",
					"internalType": "contract IERC20"
				}
			],
			"stateMutability": "view"
		},
		{
			"type": "function",
			"name": "recoverWrongToken",
			"inputs": [
				{
					"name": "_tokenAddress",
					"type": "address",
					"internalType": "address"
				}
			],
			"outputs": [],
			"stateMutability": "nonpayable"
		},
		{
			"type": "function",
			"name": "renounceOwnership",
			"inputs": [],
			"outputs": [],
			"stateMutability": "nonpayable"
		},
		{
			"type": "function",
			"name": "setXCMOracleAddress",
			"inputs": [
				{
					"name": "_xcmOracleAddress",
					"type": "address",
					"internalType": "address"
				}
			],
			"outputs": [],
			"stateMutability": "nonpayable"
		},
		{
			"type": "function",
			"name": "stake",
			"inputs": [
				{
					"name": "_vTokenAmount",
					"type": "uint256",
					"internalType": "uint256"
				}
			],
			"outputs": [],
			"stateMutability": "nonpayable"
		},
		{
			"type": "function",
			"name": "stakers",
			"inputs": [
				{
					"name": "",
					"type": "address",
					"internalType": "address"
				}
			],
			"outputs": [
				{
					"name": "nativeAmount",
					"type": "uint256",
					"internalType": "uint256"
				},
				{
					"name": "claimOffset",
					"type": "uint256",
					"internalType": "uint256"
				}
			],
			"stateMutability": "view"
		},
		{
			"type": "function",
			"name": "startBlock",
			"inputs": [],
			"outputs": [
				{
					"name": "",
					"type": "uint128",
					"internalType": "uint128"
				}
			],
			"stateMutability": "view"
		},
		{
			"type": "function",
			"name": "tickBlock",
			"inputs": [],
			"outputs": [
				{
					"name": "",
					"type": "uint128",
					"internalType": "uint128"
				}
			],
			"stateMutability": "view"
		},
		{
			"type": "function",
			"name": "totalNativeStake",
			"inputs": [],
			"outputs": [
				{
					"name": "",
					"type": "uint256",
					"internalType": "uint256"
				}
			],
			"stateMutability": "view"
		},
		{
			"type": "function",
			"name": "transferOwnership",
			"inputs": [
				{
					"name": "newOwner",
					"type": "address",
					"internalType": "address"
				}
			],
			"outputs": [],
			"stateMutability": "nonpayable"
		},
		{
			"type": "function",
			"name": "unpause",
			"inputs": [],
			"outputs": [],
			"stateMutability": "nonpayable"
		},
		{
			"type": "function",
			"name": "unstake",
			"inputs": [
				{
					"name": "_vTokenAmount",
					"type": "uint256",
					"internalType": "uint256"
				}
			],
			"outputs": [],
			"stateMutability": "nonpayable"
		},
		{
			"type": "function",
			"name": "unstakeWithoutProjectToken",
			"inputs": [
				{
					"name": "_withdrawnVTokens",
					"type": "uint256",
					"internalType": "uint256"
				}
			],
			"outputs": [],
			"stateMutability": "nonpayable"
		},
		{
			"type": "function",
			"name": "xcmOracle",
			"inputs": [],
			"outputs": [
				{
					"name": "",
					"type": "address",
					"internalType": "contract IXCMOracle"
				}
			],
			"stateMutability": "view"
		},
		{
			"type": "event",
			"name": "OwnershipTransferred",
			"inputs": [
				{
					"name": "previousOwner",
					"type": "address",
					"indexed": true,
					"internalType": "address"
				},
				{
					"name": "newOwner",
					"type": "address",
					"indexed": true,
					"internalType": "address"
				}
			],
			"anonymous": false
		},
		{
			"type": "event",
			"name": "Paused",
			"inputs": [
				{
					"name": "account",
					"type": "address",
					"indexed": false,
					"internalType": "address"
				}
			],
			"anonymous": false
		},
		{
			"type": "event",
			"name": "Staked",
			"inputs": [
				{
					"name": "user",
					"type": "address",
					"indexed": true,
					"internalType": "address"
				},
				{
					"name": "amount",
					"type": "uint256",
					"indexed": false,
					"internalType": "uint256"
				}
			],
			"anonymous": false
		},
		{
			"type": "event",
			"name": "Unpaused",
			"inputs": [
				{
					"name": "account",
					"type": "address",
					"indexed": false,
					"internalType": "address"
				}
			],
			"anonymous": false
		},
		{
			"type": "event",
			"name": "Unstaked",
			"inputs": [
				{
					"name": "user",
					"type": "address",
					"indexed": true,
					"internalType": "address"
				},
				{
					"name": "amount",
					"type": "uint256",
					"indexed": false,
					"internalType": "uint256"
				}
			],
			"anonymous": false
		},
		{
			"type": "error",
			"name": "ArraysLengthMismatch",
			"inputs": []
		},
		{
			"type": "error",
			"name": "DecimalsTooHigh",
			"inputs": [
				{
					"name": "tokenAddress",
					"type": "address",
					"internalType": "address"
				}
			]
		},
		{
			"type": "error",
			"name": "EndBlockMustBeAfterstartBlock",
			"inputs": []
		},
		{
			"type": "error",
			"name": "EnforcedPause",
			"inputs": []
		},
		{
			"type": "error",
			"name": "ExceedMaxVTokensPerStaker",
			"inputs": []
		},
		{
			"type": "error",
			"name": "ExceedNativeStake",
			"inputs": []
		},
		{
			"type": "error",
			"name": "ExceedWithdrawableVTokens",
			"inputs": []
		},
		{
			"type": "error",
			"name": "ExpectedPause",
			"inputs": []
		},
		{
			"type": "error",
			"name": "FailedToReadTokenDecimals",
			"inputs": []
		},
		{
			"type": "error",
			"name": "FirstChangeBlockMustBeStartBlock",
			"inputs": []
		},
		{
			"type": "error",
			"name": "MaxAndMinTokensPerStakerMustBeGreaterThanZero",
			"inputs": []
		},
		{
			"type": "error",
			"name": "MustBeAfterPoolEnd",
			"inputs": []
		},
		{
			"type": "error",
			"name": "MustBeDuringPoolTime",
			"inputs": []
		},
		{
			"type": "error",
			"name": "NoEmissionRateChangesProvided",
			"inputs": []
		},
		{
			"type": "error",
			"name": "NotPlatformAdmin",
			"inputs": []
		},
		{
			"type": "error",
			"name": "OwnableInvalidOwner",
			"inputs": [
				{
					"name": "owner",
					"type": "address",
					"internalType": "address"
				}
			]
		},
		{
			"type": "error",
			"name": "OwnableUnauthorizedAccount",
			"inputs": [
				{
					"name": "account",
					"type": "address",
					"internalType": "address"
				}
			]
		},
		{
			"type": "error",
			"name": "PlatformFeeAlreadyClaimed",
			"inputs": []
		},
		{
			"type": "error",
			"name": "ProjectTokenNotRecoverable",
			"inputs": []
		},
		{
			"type": "error",
			"name": "ReentrancyGuardReentrantCall",
			"inputs": []
		},
		{
			"type": "error",
			"name": "SafeERC20FailedOperation",
			"inputs": [
				{
					"name": "token",
					"type": "address",
					"internalType": "address"
				}
			]
		},
		{
			"type": "error",
			"name": "StartBlockMustBeInFuture",
			"inputs": []
		},
		{
			"type": "error",
			"name": "TotalProjectTokensMustBeGreaterThanZero",
			"inputs": []
		},
		{
			"type": "error",
			"name": "ZeroAddress",
			"inputs": []
		},
		{
			"type": "error",
			"name": "ZeroAmountNotAllowed",
			"inputs": []
		}
	],
	"bytecode": {
		"object": "0x60c0604052605a600560106101000a8154816fffffffffffffffffffffffffffffffff02191690836fffffffffffffffffffffffffffffffff16021790555073fd48761638e3a8c368abaefa9859cf6baa6c3c27600a5f6101000a81548173ffffffffffffffffffffffffffffffffffffffff021916908373ffffffffffffffffffffffffffffffffffffffff16021790555034801561009d575f80fd5b506040516152dd3803806152dd83398181016040528101906100bf9190610eb4565b885f73ffffffffffffffffffffffffffffffffffffffff168173ffffffffffffffffffffffffffffffffffffffff1603610130575f6040517f1e4fbdf70000000000000000000000000000000000000000000000000000000081526004016101279190610fd4565b60405180910390fd5b61013f816107ea60201b60201c565b50600180819055505f60025f6101000a81548160ff021916908315150217905550875f73ffffffffffffffffffffffffffffffffffffffff168173ffffffffffffffffffffffffffffffffffffffff16036101c6576040517fd92e233d00000000000000000000000000000000000000000000000000000000815260040160405180910390fd5b875f73ffffffffffffffffffffffffffffffffffffffff168173ffffffffffffffffffffffffffffffffffffffff160361022c576040517fd92e233d00000000000000000000000000000000000000000000000000000000815260040160405180910390fd5b875f73ffffffffffffffffffffffffffffffffffffffff168173ffffffffffffffffffffffffffffffffffffffff1603610292576040517fd92e233d00000000000000000000000000000000000000000000000000000000815260040160405180910390fd5b855f81036102cc576040517f18e580a800000000000000000000000000000000000000000000000000000000815260040160405180910390fd5b6102da6108ab60201b60201c565b8d60105f6101000a81548173ffffffffffffffffffffffffffffffffffffffff021916908373ffffffffffffffffffffffffffffffffffffffff1602179055505f439050808a6fffffffffffffffffffffffffffffffff1611610369576040517f78818b5f00000000000000000000000000000000000000000000000000000000815260040160405180910390fd5b896fffffffffffffffffffffffffffffffff16896fffffffffffffffffffffffffffffffff16116103c6576040517f89edc18d00000000000000000000000000000000000000000000000000000000815260040160405180910390fd5b5f875190505f8111610404576040517fab1ea2ae00000000000000000000000000000000000000000000000000000000815260040160405180910390fd5b8a6fffffffffffffffffffffffffffffffff16885f8151811061042a57610429610fed565b5b60200260200101516fffffffffffffffffffffffffffffffff161461047b576040517ffa2c354c00000000000000000000000000000000000000000000000000000000815260040160405180910390fd5b808751146104b5576040517ffc23596000000000000000000000000000000000000000000000000000000000815260040160405180910390fd5b5f6104c58f6108ad60201b60201c565b90505f6104d78f6108ad60201b60201c565b905081600a6104e69190611182565b6c0c9f2c9cd04674edea400000006104fe91906111f9565b6080818152505080600a6105129190611182565b60a081815250505f5b8381101561059c5789818151811061053657610535610fed565b5b6020026020010151600b5f8d848151811061055457610553610fed565b5b60200260200101516fffffffffffffffffffffffffffffffff166fffffffffffffffffffffffffffffffff1681526020019081526020015f208190555080600101905061051b565b506105ae60a05161095560201b60201c565b60128190555060145f81819054906101000a90046fffffffffffffffffffffffffffffffff166105dd90611229565b91906101000a8154816fffffffffffffffffffffffffffffffff02191690836fffffffffffffffffffffffffffffffff16021790555083601460106101000a8154816fffffffffffffffffffffffffffffffff02191690836fffffffffffffffffffffffffffffffff16021790555089600c9080519060200190610662929190610ad5565b508f600d5f6101000a81548173ffffffffffffffffffffffffffffffffffffffff021916908373ffffffffffffffffffffffffffffffffffffffff1602179055508e600e5f6101000a81548173ffffffffffffffffffffffffffffffffffffffff021916908373ffffffffffffffffffffffffffffffffffffffff1602179055508d600f5f6101000a81548173ffffffffffffffffffffffffffffffffffffffff021916908373ffffffffffffffffffffffffffffffffffffffff1602179055508c60045f6101000a8154816fffffffffffffffffffffffffffffffff02191690836fffffffffffffffffffffffffffffffff1602179055508b600460106101000a8154816fffffffffffffffffffffffffffffffff02191690836fffffffffffffffffffffffffffffffff1602179055508a6006819055508c60055f6101000a8154816fffffffffffffffffffffffffffffffff02191690836fffffffffffffffffffffffffffffffff16021790555050505050505050505050505050505050505061141a565b5f805f9054906101000a900473ffffffffffffffffffffffffffffffffffffffff169050815f806101000a81548173ffffffffffffffffffffffffffffffffffffffff021916908373ffffffffffffffffffffffffffffffffffffffff1602179055508173ffffffffffffffffffffffffffffffffffffffff168173ffffffffffffffffffffffffffffffffffffffff167f8be0079c531659141344cd1fd0a4f28419497f9722a3daafe3b4186f6b6457e060405160405180910390a35050565b565b5f8173ffffffffffffffffffffffffffffffffffffffff1663313ce5676040518163ffffffff1660e01b8152600401602060405180830381865afa92505050801561091657506040513d601f19601f82011682018060405250810190610913919061128a565b60015b61094c576040517f6d1762b000000000000000000000000000000000000000000000000000000000815260040160405180910390fd5b80915050919050565b5f8060105f9054906101000a900473ffffffffffffffffffffffffffffffffffffffff1673ffffffffffffffffffffffffffffffffffffffff1663b2306010600f5f9054906101000a900473ffffffffffffffffffffffffffffffffffffffff166040518263ffffffff1660e01b81526004016109d29190610fd4565b602060405180830381865afa1580156109ed573d5f803e3d5ffd5b505050506040513d601f19601f82011682018060405250810190610a11919061130a565b90505f60105f9054906101000a900473ffffffffffffffffffffffffffffffffffffffff1673ffffffffffffffffffffffffffffffffffffffff16631443d5b0836040518263ffffffff1660e01b8152600401610a6e9190611344565b6040805180830381865afa158015610a88573d5f803e3d5ffd5b505050506040513d601f19601f82011682018060405250810190610aac91906113ae565b90508060200151815f015185610ac291906113d9565b610acc91906111f9565b92505050919050565b828054828255905f5260205f2090600101600290048101928215610b95579160200282015f5b83821115610b5757835183826101000a8154816fffffffffffffffffffffffffffffffff02191690836fffffffffffffffffffffffffffffffff1602179055509260200192601001602081600f01049283019260010302610afb565b8015610b935782816101000a8154906fffffffffffffffffffffffffffffffff0219169055601001602081600f01049283019260010302610b57565b505b509050610ba29190610ba6565b5090565b5b80821115610bbd575f815f905550600101610ba7565b5090565b5f604051905090565b5f80fd5b5f80fd5b5f73ffffffffffffffffffffffffffffffffffffffff82169050919050565b5f610bfb82610bd2565b9050919050565b610c0b81610bf1565b8114610c15575f80fd5b50565b5f81519050610c2681610c02565b92915050565b5f6fffffffffffffffffffffffffffffffff82169050919050565b610c5081610c2c565b8114610c5a575f80fd5b50565b5f81519050610c6b81610c47565b92915050565b5f819050919050565b610c8381610c71565b8114610c8d575f80fd5b50565b5f81519050610c9e81610c7a565b92915050565b5f80fd5b5f601f19601f8301169050919050565b7f4e487b71000000000000000000000000000000000000000000000000000000005f52604160045260245ffd5b610cee82610ca8565b810181811067ffffffffffffffff82111715610d0d57610d0c610cb8565b5b80604052505050565b5f610d1f610bc1565b9050610d2b8282610ce5565b919050565b5f67ffffffffffffffff821115610d4a57610d49610cb8565b5b602082029050602081019050919050565b5f80fd5b5f610d71610d6c84610d30565b610d16565b90508083825260208201905060208402830185811115610d9457610d93610d5b565b5b835b81811015610dbd5780610da98882610c5d565b845260208401935050602081019050610d96565b5050509392505050565b5f82601f830112610ddb57610dda610ca4565b5b8151610deb848260208601610d5f565b91505092915050565b5f67ffffffffffffffff821115610e0e57610e0d610cb8565b5b602082029050602081019050919050565b5f610e31610e2c84610df4565b610d16565b90508083825260208201905060208402830185811115610e5457610e53610d5b565b5b835b81811015610e7d5780610e698882610c90565b845260208401935050602081019050610e56565b5050509392505050565b5f82601f830112610e9b57610e9a610ca4565b5b8151610eab848260208601610e1f565b91505092915050565b5f805f805f805f805f806101408b8d031215610ed357610ed2610bca565b5b5f610ee08d828e01610c18565b9a50506020610ef18d828e01610c18565b9950506040610f028d828e01610c18565b9850506060610f138d828e01610c18565b9750506080610f248d828e01610c18565b96505060a0610f358d828e01610c5d565b95505060c0610f468d828e01610c5d565b94505060e0610f578d828e01610c90565b9350506101008b015167ffffffffffffffff811115610f7957610f78610bce565b5b610f858d828e01610dc7565b9250506101208b015167ffffffffffffffff811115610fa757610fa6610bce565b5b610fb38d828e01610e87565b9150509295989b9194979a5092959850565b610fce81610bf1565b82525050565b5f602082019050610fe75f830184610fc5565b92915050565b7f4e487b71000000000000000000000000000000000000000000000000000000005f52603260045260245ffd5b7f4e487b71000000000000000000000000000000000000000000000000000000005f52601160045260245ffd5b5f8160011c9050919050565b5f808291508390505b600185111561109c578086048111156110785761107761101a565b5b60018516156110875780820291505b808102905061109585611047565b945061105c565b94509492505050565b5f826110b4576001905061116f565b816110c1575f905061116f565b81600181146110d757600281146110e157611110565b600191505061116f565b60ff8411156110f3576110f261101a565b5b8360020a91508482111561110a5761110961101a565b5b5061116f565b5060208310610133831016604e8410600b84101617156111455782820a9050838111156111405761113f61101a565b5b61116f565b6111528484846001611053565b925090508184048111156111695761116861101a565b5b81810290505b9392505050565b5f60ff82169050919050565b5f61118c82610c71565b915061119783611176565b92506111c47fffffffffffffffffffffffffffffffffffffffffffffffffffffffffffffffff84846110a5565b905092915050565b7f4e487b71000000000000000000000000000000000000000000000000000000005f52601260045260245ffd5b5f61120382610c71565b915061120e83610c71565b92508261121e5761121d6111cc565b5b828204905092915050565b5f61123382610c2c565b91506fffffffffffffffffffffffffffffffff82036112555761125461101a565b5b600182019050919050565b61126981611176565b8114611273575f80fd5b50565b5f8151905061128481611260565b92915050565b5f6020828403121561129f5761129e610bca565b5b5f6112ac84828501611276565b91505092915050565b5f7fffff00000000000000000000000000000000000000000000000000000000000082169050919050565b6112e9816112b5565b81146112f3575f80fd5b50565b5f81519050611304816112e0565b92915050565b5f6020828403121561131f5761131e610bca565b5b5f61132c848285016112f6565b91505092915050565b61133e816112b5565b82525050565b5f6020820190506113575f830184611335565b92915050565b5f80fd5b5f604082840312156113765761137561135d565b5b6113806040610d16565b90505f61138f84828501610c90565b5f8301525060206113a284828501610c90565b60208301525092915050565b5f604082840312156113c3576113c2610bca565b5b5f6113d084828501611361565b91505092915050565b5f6113e382610c71565b91506113ee83610c71565b92508282026113fc81610c71565b915082820484148315176114135761141261101a565b5b5092915050565b60805160a051613e2b6114b25f395f8181610a7701528181610aa301528181610f4a015281816110b7015281816110e3015281816115d70152818161160301528181611f33015281816125e10152818161283b0152612c9701525f8181610b6201528181610c0f015281816112a4015281816118a7015281816119c5015281816120d4015281816131af01526133100152613e2b5ff3fe608060405234801561000f575f80fd5b506004361061029e575f3560e01c806384d38d4811610165578063b1f0af1b116100cc578063c0a77da911610085578063c0a77da91461077c578063d065cf8e1461079a578063ef4cadc5146107b8578063f2fde38b146107d6578063f73a8b5c146107f2578063fce88e6f146108105761029e565b8063b1f0af1b146106b8578063b64a025e146106d6578063b66a72df146106f2578063b87a6aeb14610710578063bb8afc7b14610740578063bfc55b8a1461075e5761029e565b80639b4f83211161011e5780639b4f8321146106305780639c8aea901461064e578063a694fc3a14610658578063a748afb014610674578063aac9ce5c14610692578063ab7302bb146106ae5761029e565b806384d38d48146105575780638da5cb5b146105755780638e70fa8c146105935780639168ae72146105b1578063976251e6146105e257806399dc0390146106125761029e565b8063544c2d761161020957806372cacb70116101c257806372cacb70146104a757806372e48cf3146104c55780637d334107146104cf57806380729f17146104ff57806381cadea01461052f5780638456cb591461054d5761029e565b8063544c2d76146103f25780635bf0fa89146104105780635c975abb1461044057806360246c881461045e5780636cf568461461047f578063715018a61461049d5761029e565b806333d8773d1161025b57806333d8773d146103525780633f4ba83a1461037057806348cd4cb11461037a5780634b60ce77146103985780634f7ff503146103b6578063534a9d00146103d45761029e565b8063018bcf5c146102a25780630417cf8e146102be57806306508ebc146102dc578063083c6323146102fa578063129989a3146103185780632e17de7814610336575b5f80fd5b6102bc60048036038101906102b7919061371b565b61082f565b005b6102c6610975565b6040516102d3919061375e565b60405180910390f35b6102e461097a565b6040516102f191906137a1565b60405180910390f35b61030261099b565b60405161030f91906137a1565b60405180910390f35b6103206109bd565b60405161032d91906137c9565b60405180910390f35b610350600480360381019061034b919061380c565b6109e2565b005b61035a610d6d565b604051610367919061375e565b60405180910390f35b610378610d73565b005b610382610e03565b60405161038f91906137a1565b60405180910390f35b6103a0610e24565b6040516103ad9190613892565b60405180910390f35b6103be610e49565b6040516103cb919061375e565b60405180910390f35b6103dc610e4f565b6040516103e9919061375e565b60405180910390f35b6103fa610eee565b604051610407919061375e565b60405180910390f35b61042a6004803603810190610425919061380c565b610ef4565b604051610437919061375e565b60405180910390f35b610448610f9f565b60405161045591906138c5565b60405180910390f35b610466610fb4565b60405161047694939291906138de565b60405180910390f35b610487611013565b6040516104949190613941565b60405180910390f35b6104a5611038565b005b6104af61104b565b6040516104bc919061375e565b60405180910390f35b6104cd61105c565b005b6104e960048036038101906104e4919061371b565b6111e3565b6040516104f6919061375e565b60405180910390f35b6105196004803603810190610514919061371b565b61122b565b604051610526919061375e565b60405180910390f35b610537611303565b604051610544919061375e565b60405180910390f35b610555611309565b005b61055f611399565b60405161056c91906137a1565b60405180910390f35b61057d6113bb565b60405161058a91906137c9565b60405180910390f35b61059b6113e2565b6040516105a89190613892565b60405180910390f35b6105cb60048036038101906105c6919061371b565b611407565b6040516105d992919061395a565b60405180910390f35b6105fc60048036038101906105f7919061380c565b611427565b60405161060991906137a1565b60405180910390f35b61061a61146a565b6040516106279190613892565b60405180910390f35b61063861148f565b604051610645919061375e565b60405180910390f35b610656611495565b005b610672600480360381019061066d919061380c565b61170d565b005b61067c611a63565b604051610689919061375e565b60405180910390f35b6106ac60048036038101906106a7919061371b565b611a69565b005b6106b6611b32565b005b6106c0611ce1565b6040516106cd91906137a1565b60405180910390f35b6106f060048036038101906106eb919061380c565b611d03565b005b6106fa611f16565b604051610707919061375e565b60405180910390f35b61072a600480360381019061072591906139ab565b611f1c565b604051610737919061375e565b60405180910390f35b610748611f31565b604051610755919061375e565b60405180910390f35b610766611f55565b60405161077391906137a1565b60405180910390f35b610784611f76565b604051610791919061375e565b60405180910390f35b6107a26120c0565b6040516107af91906138c5565b60405180910390f35b6107c06120d2565b6040516107cd919061375e565b60405180910390f35b6107f060048036038101906107eb919061371b565b6120f6565b005b6107fa61217a565b604051610807919061375e565b60405180910390f35b610818612219565b60405161082692919061395a565b60405180910390f35b610837612229565b80600d5f9054906101000a900473ffffffffffffffffffffffffffffffffffffffff1673ffffffffffffffffffffffffffffffffffffffff168173ffffffffffffffffffffffffffffffffffffffff16036108be576040517fdad2afd700000000000000000000000000000000000000000000000000000000815260040160405180910390fd5b5f8290505f8173ffffffffffffffffffffffffffffffffffffffff166370a08231306040518263ffffffff1660e01b81526004016108fc91906137c9565b602060405180830381865afa158015610917573d5f803e3d5ffd5b505050506040513d601f19601f8201168201806040525081019061093b91906139ea565b905061096f6109486113bb565b828473ffffffffffffffffffffffffffffffffffffffff166122b09092919063ffffffff16565b50505050565b601e81565b60145f9054906101000a90046fffffffffffffffffffffffffffffffff1681565b600460109054906101000a90046fffffffffffffffffffffffffffffffff1681565b600a5f9054906101000a900473ffffffffffffffffffffffffffffffffffffffff1681565b805f8103610a1c576040517f0f43956a00000000000000000000000000000000000000000000000000000000815260040160405180910390fd5b610a2461232f565b610a2c612370565b5f601354148015610a6c5750600460109054906101000a90046fffffffffffffffffffffffffffffffff166fffffffffffffffffffffffffffffffff1643115b15610ac9575f610a9b7f00000000000000000000000000000000000000000000000000000000000000006123b6565b9050610ac7817f0000000000000000000000000000000000000000000000000000000000000000612536565b505b5f610ad261278f565b90505f60115f8373ffffffffffffffffffffffffffffffffffffffff1673ffffffffffffffffffffffffffffffffffffffff1681526020019081526020015f206040518060400160405290815f820154815260200160018201548152505090505f610b3d8286612796565b9050610b4c825f015186612536565b610b54612912565b5f60035490505f83602001517f000000000000000000000000000000000000000000000000000000000000000083865f0151610b909190613a42565b610b9a9190613ab0565b610ba49190613ae0565b90505f811115610bfb57610bfa3382600d5f9054906101000a900473ffffffffffffffffffffffffffffffffffffffff1673ffffffffffffffffffffffffffffffffffffffff166122b09092919063ffffffff16565b5b5f83855f0151610c0b9190613ae0565b90507f00000000000000000000000000000000000000000000000000000000000000008382610c3a9190613a42565b610c449190613ab0565b85602001818152505080855f0181815250508360085f828254610c679190613ae0565b925050819055508460115f8873ffffffffffffffffffffffffffffffffffffffff1673ffffffffffffffffffffffffffffffffffffffff1681526020019081526020015f205f820151815f0155602082015181600101559050508573ffffffffffffffffffffffffffffffffffffffff167f0f5bb82176feb1b5e747e28471aa92156a04d9f3ab9f45f28e2d704232b93f7589604051610d07919061375e565b60405180910390a2610d5b8689600e5f9054906101000a900473ffffffffffffffffffffffffffffffffffffffff1673ffffffffffffffffffffffffffffffffffffffff166122b09092919063ffffffff16565b505050505050610d69612a04565b5050565b60035481565b600a5f9054906101000a900473ffffffffffffffffffffffffffffffffffffffff1673ffffffffffffffffffffffffffffffffffffffff163373ffffffffffffffffffffffffffffffffffffffff1614610df9576040517fd4d7478300000000000000000000000000000000000000000000000000000000815260040160405180910390fd5b610e01612a0d565b565b60045f9054906101000a90046fffffffffffffffffffffffffffffffff1681565b600d5f9054906101000a900473ffffffffffffffffffffffffffffffffffffffff1681565b60075481565b5f600e5f9054906101000a900473ffffffffffffffffffffffffffffffffffffffff1673ffffffffffffffffffffffffffffffffffffffff166370a08231306040518263ffffffff1660e01b8152600401610eaa91906137c9565b602060405180830381865afa158015610ec5573d5f803e3d5ffd5b505050506040513d601f19601f82011682018060405250810190610ee991906139ea565b905090565b60085481565b5f600460109054906101000a90046fffffffffffffffffffffffffffffffff166fffffffffffffffffffffffffffffffff164311610f3c57610f3582612a6e565b9050610f82565b5f610f45612bee565b9050807f000000000000000000000000000000000000000000000000000000000000000084610f749190613a42565b610f7e9190613ab0565b9150505b5f610f8b610e4f565b905080821115610f99578091505b50919050565b5f60025f9054906101000a900460ff16905090565b5f805f8060045f9054906101000a90046fffffffffffffffffffffffffffffffff16600460109054906101000a90046fffffffffffffffffffffffffffffffff16610ffd61217a565b611005611f76565b935093509350935090919293565b60105f9054906101000a900473ffffffffffffffffffffffffffffffffffffffff1681565b611040612229565b6110495f612db2565b565b6c0c9f2c9cd04674edea4000000081565b611064612229565b61106c612370565b5f6013541480156110ac5750600460109054906101000a90046fffffffffffffffffffffffffffffffff166fffffffffffffffffffffffffffffffff1643115b15611109575f6110db7f00000000000000000000000000000000000000000000000000000000000000006123b6565b9050611107817f0000000000000000000000000000000000000000000000000000000000000000612536565b505b5f80611113612e73565b9150915061116a6111226113bb565b83600e5f9054906101000a900473ffffffffffffffffffffffffffffffffffffffff1673ffffffffffffffffffffffffffffffffffffffff166122b09092919063ffffffff16565b6111d7600a5f9054906101000a900473ffffffffffffffffffffffffffffffffffffffff1682600e5f9054906101000a900473ffffffffffffffffffffffffffffffffffffffff1673ffffffffffffffffffffffffffffffffffffffff166122b09092919063ffffffff16565b50506111e1612a04565b565b5f60115f8373ffffffffffffffffffffffffffffffffffffffff1673ffffffffffffffffffffffffffffffffffffffff1681526020019081526020015f205f01549050919050565b5f8060115f8473ffffffffffffffffffffffffffffffffffffffff1673ffffffffffffffffffffffffffffffffffffffff1681526020019081526020015f206040518060400160405290815f820154815260200160018201548152505090505f815f01510361129d575f9150506112fe565b80602001517f00000000000000000000000000000000000000000000000000000000000000006112cb612fc3565b6003546112d89190613b13565b835f01516112e69190613a42565b6112f09190613ab0565b6112fa9190613ae0565b9150505b919050565b60065481565b600a5f9054906101000a900473ffffffffffffffffffffffffffffffffffffffff1673ffffffffffffffffffffffffffffffffffffffff163373ffffffffffffffffffffffffffffffffffffffff161461138f576040517fd4d7478300000000000000000000000000000000000000000000000000000000815260040160405180910390fd5b61139761336b565b565b600560109054906101000a90046fffffffffffffffffffffffffffffffff1681565b5f805f9054906101000a900473ffffffffffffffffffffffffffffffffffffffff16905090565b600f5f9054906101000a900473ffffffffffffffffffffffffffffffffffffffff1681565b6011602052805f5260405f205f91509050805f0154908060010154905082565b600c8181548110611436575f80fd5b905f5260205f209060029182820401919006601002915054906101000a90046fffffffffffffffffffffffffffffffff1681565b600e5f9054906101000a900473ffffffffffffffffffffffffffffffffffffffff1681565b60125481565b600a5f9054906101000a900473ffffffffffffffffffffffffffffffffffffffff1673ffffffffffffffffffffffffffffffffffffffff163373ffffffffffffffffffffffffffffffffffffffff161461151b576040517fd4d7478300000000000000000000000000000000000000000000000000000000815260040160405180910390fd5b600460109054906101000a90046fffffffffffffffffffffffffffffffff166fffffffffffffffffffffffffffffffff164311611584576040517fc00b64a100000000000000000000000000000000000000000000000000000000815260040160405180910390fd5b61158c612370565b5f6013541480156115cc5750600460109054906101000a90046fffffffffffffffffffffffffffffffff166fffffffffffffffffffffffffffffffff1643115b15611629575f6115fb7f00000000000000000000000000000000000000000000000000000000000000006123b6565b9050611627817f0000000000000000000000000000000000000000000000000000000000000000612536565b505b60155f9054906101000a900460ff161561166f576040517fdac5eb0f00000000000000000000000000000000000000000000000000000000815260040160405180910390fd5b600160155f6101000a81548160ff0219169083151502179055505f611692612e73565b915050611702600a5f9054906101000a900473ffffffffffffffffffffffffffffffffffffffff1682600e5f9054906101000a900473ffffffffffffffffffffffffffffffffffffffff1673ffffffffffffffffffffffffffffffffffffffff166122b09092919063ffffffff16565b5061170b612a04565b565b805f8103611747576040517f0f43956a00000000000000000000000000000000000000000000000000000000815260040160405180910390fd5b60045f9054906101000a90046fffffffffffffffffffffffffffffffff166fffffffffffffffffffffffffffffffff164310806117b35750600460109054906101000a90046fffffffffffffffffffffffffffffffff166fffffffffffffffffffffffffffffffff1643115b156117ea576040517fa2255c1700000000000000000000000000000000000000000000000000000000815260040160405180910390fd5b6117f261232f565b6117fa612370565b600654821115611836576040517f2b5dea7500000000000000000000000000000000000000000000000000000000815260040160405180910390fd5b5f60115f3373ffffffffffffffffffffffffffffffffffffffff1673ffffffffffffffffffffffffffffffffffffffff1681526020019081526020015f2090505f611880846123b6565b905061188c8185612536565b611894612912565b5f825f01541115611944575f82600101547f0000000000000000000000000000000000000000000000000000000000000000600354855f01546118d79190613a42565b6118e19190613ab0565b6118eb9190613ae0565b90505f811115611942576119413382600d5f9054906101000a900473ffffffffffffffffffffffffffffffffffffffff1673ffffffffffffffffffffffffffffffffffffffff166122b09092919063ffffffff16565b5b505b80825f015f8282546119569190613b13565b925050819055508060085f82825461196e9190613b13565b925050819055506119c3333086600e5f9054906101000a900473ffffffffffffffffffffffffffffffffffffffff1673ffffffffffffffffffffffffffffffffffffffff166133cd909392919063ffffffff16565b7f0000000000000000000000000000000000000000000000000000000000000000600354835f01546119f59190613a42565b6119ff9190613ab0565b82600101819055503373ffffffffffffffffffffffffffffffffffffffff167f9e71bc8eea02a63969f509818f2dafb9254532904319f9dbda79b67bd34a5f3d85604051611a4d919061375e565b60405180910390a25050611a5f612a04565b5050565b60095481565b600a5f9054906101000a900473ffffffffffffffffffffffffffffffffffffffff1673ffffffffffffffffffffffffffffffffffffffff163373ffffffffffffffffffffffffffffffffffffffff1614611aef576040517fd4d7478300000000000000000000000000000000000000000000000000000000815260040160405180910390fd5b8060105f6101000a81548173ffffffffffffffffffffffffffffffffffffffff021916908373ffffffffffffffffffffffffffffffffffffffff16021790555050565b611b3a612229565b600460109054906101000a90046fffffffffffffffffffffffffffffffff166fffffffffffffffffffffffffffffffff164311611ba3576040517fc00b64a100000000000000000000000000000000000000000000000000000000815260040160405180910390fd5b5f600d5f9054906101000a900473ffffffffffffffffffffffffffffffffffffffff1673ffffffffffffffffffffffffffffffffffffffff166370a08231306040518263ffffffff1660e01b8152600401611bfe91906137c9565b602060405180830381865afa158015611c19573d5f803e3d5ffd5b505050506040513d601f19601f82011682018060405250810190611c3d91906139ea565b9050611c8b3382600d5f9054906101000a900473ffffffffffffffffffffffffffffffffffffffff1673ffffffffffffffffffffffffffffffffffffffff166122b09092919063ffffffff16565b611cde611c966113bb565b82600d5f9054906101000a900473ffffffffffffffffffffffffffffffffffffffff1673ffffffffffffffffffffffffffffffffffffffff166122b09092919063ffffffff16565b50565b601460109054906101000a90046fffffffffffffffffffffffffffffffff1681565b805f8103611d3d576040517f0f43956a00000000000000000000000000000000000000000000000000000000815260040160405180910390fd5b611d45612370565b5f611d4e61278f565b90505f60115f8373ffffffffffffffffffffffffffffffffffffffff1673ffffffffffffffffffffffffffffffffffffffff1681526020019081526020015f206040518060400160405290815f820154815260200160018201548152505090505f611db98286612796565b9050611dc8825f015186612536565b611dd0612912565b80825f01818151611de19190613ae0565b91508181525050600354825f0151611df99190613a42565b8260200181815250508060085f828254611e139190613ae0565b925050819055508160115f8573ffffffffffffffffffffffffffffffffffffffff1673ffffffffffffffffffffffffffffffffffffffff1681526020019081526020015f205f820151815f0155602082015181600101559050503373ffffffffffffffffffffffffffffffffffffffff167f0f5bb82176feb1b5e747e28471aa92156a04d9f3ab9f45f28e2d704232b93f7586604051611eb3919061375e565b60405180910390a2611f073386600e5f9054906101000a900473ffffffffffffffffffffffffffffffffffffffff1673ffffffffffffffffffffffffffffffffffffffff166122b09092919063ffffffff16565b505050611f12612a04565b5050565b60135481565b600b602052805f5260405f205f915090505481565b7f000000000000000000000000000000000000000000000000000000000000000081565b60055f9054906101000a90046fffffffffffffffffffffffffffffffff1681565b5f600460109054906101000a90046fffffffffffffffffffffffffffffffff166fffffffffffffffffffffffffffffffff164310611fb6575f90506120bd565b5f4390505f80600c8054905090505f60095490505b818110156120b557600c8181548110611fe757611fe6613b46565b5b905f5260205f2090600291828204019190066010029054906101000a90046fffffffffffffffffffffffffffffffff166fffffffffffffffffffffffffffffffff1684106120b557600b5f600c838154811061204657612045613b46565b5b905f5260205f2090600291828204019190066010029054906101000a90046fffffffffffffffffffffffffffffffff166fffffffffffffffffffffffffffffffff166fffffffffffffffffffffffffffffffff1681526020019081526020015f20549250806001019050611fcb565b508193505050505b90565b60155f9054906101000a900460ff1681565b7f000000000000000000000000000000000000000000000000000000000000000081565b6120fe612229565b5f73ffffffffffffffffffffffffffffffffffffffff168173ffffffffffffffffffffffffffffffffffffffff160361216e575f6040517f1e4fbdf700000000000000000000000000000000000000000000000000000000815260040161216591906137c9565b60405180910390fd5b61217781612db2565b50565b5f600d5f9054906101000a900473ffffffffffffffffffffffffffffffffffffffff1673ffffffffffffffffffffffffffffffffffffffff166370a08231306040518263ffffffff1660e01b81526004016121d591906137c9565b602060405180830381865afa1580156121f0573d5f803e3d5ffd5b505050506040513d601f19601f8201168201806040525081019061221491906139ea565b905090565b5f80600654600754915091509091565b61223161278f565b73ffffffffffffffffffffffffffffffffffffffff1661224f6113bb565b73ffffffffffffffffffffffffffffffffffffffff16146122ae5761227261278f565b6040517f118cdaa70000000000000000000000000000000000000000000000000000000081526004016122a591906137c9565b60405180910390fd5b565b61232a838473ffffffffffffffffffffffffffffffffffffffff1663a9059cbb85856040516024016122e3929190613b73565b604051602081830303815290604052915060e01b6020820180517bffffffffffffffffffffffffffffffffffffffffffffffffffffffff838183161783525050505061344f565b505050565b612337610f9f565b1561236e576040517fd93c066500000000000000000000000000000000000000000000000000000000815260040160405180910390fd5b565b6002600154036123ac576040517f3ee5aeb500000000000000000000000000000000000000000000000000000000815260040160405180910390fd5b6002600181905550565b5f8060105f9054906101000a900473ffffffffffffffffffffffffffffffffffffffff1673ffffffffffffffffffffffffffffffffffffffff1663b2306010600f5f9054906101000a900473ffffffffffffffffffffffffffffffffffffffff166040518263ffffffff1660e01b815260040161243391906137c9565b602060405180830381865afa15801561244e573d5f803e3d5ffd5b505050506040513d601f19601f820116820180604052508101906124729190613bef565b90505f60105f9054906101000a900473ffffffffffffffffffffffffffffffffffffffff1673ffffffffffffffffffffffffffffffffffffffff16631443d5b0836040518263ffffffff1660e01b81526004016124cf9190613c29565b6040805180830381865afa1580156124e9573d5f803e3d5ffd5b505050506040513d601f19601f8201168201806040525081019061250d9190613d1b565b90508060200151815f0151856125239190613a42565b61252d9190613ab0565b92505050919050565b5f4390505f601460109054906101000a90046fffffffffffffffffffffffffffffffff166fffffffffffffffffffffffffffffffff16826125779190613ae0565b90505f810361258757505061278b565b5f600460109054906101000a90046fffffffffffffffffffffffffffffffff166fffffffffffffffffffffffffffffffff16831190505f806013541190508180156125cf5750805b156125dd575050505061278b565b5f857f00000000000000000000000000000000000000000000000000000000000000008861260b9190613a42565b6126159190613ab0565b9050601254811161262a57505050505061278b565b5f601254826126399190613ae0565b90505f85826126489190613ab0565b905084612690578260128190555086601460106101000a8154816fffffffffffffffffffffffffffffffff02191690836fffffffffffffffffffffffffffffffff1602179055505b60145f9054906101000a90046fffffffffffffffffffffffffffffffff166fffffffffffffffffffffffffffffffff1681600160145f9054906101000a90046fffffffffffffffffffffffffffffffff166126eb9190613d46565b6fffffffffffffffffffffffffffffffff1660135461270a9190613a42565b6127149190613b13565b61271e9190613ab0565b60138190555060145f81819054906101000a90046fffffffffffffffffffffffffffffffff1661274d90613d89565b91906101000a8154816fffffffffffffffffffffffffffffffff02191690836fffffffffffffffffffffffffffffffff160217905550505050505050505b5050565b5f33905090565b5f80835f0151036127d3576040517f0f43956a00000000000000000000000000000000000000000000000000000000815260040160405180910390fd5b600460109054906101000a90046fffffffffffffffffffffffffffffffff166fffffffffffffffffffffffffffffffff16431115612879575f6013540361282e5761281d826123b6565b90506128298183612536565b612874565b5f612837612bee565b90507f000000000000000000000000000000000000000000000000000000000000000081846128669190613a42565b6128709190613ab0565b9150505b612885565b612882826123b6565b90505b5f612892845f0151610ef4565b9050828110156128ce576040517f3455ae2800000000000000000000000000000000000000000000000000000000815260040160405180910390fd5b81845f0151101561290b576040517f42a83c8400000000000000000000000000000000000000000000000000000000815260040160405180910390fd5b5092915050565b5f43905060055f9054906101000a90046fffffffffffffffffffffffffffffffff166fffffffffffffffffffffffffffffffff1681036129525750612a02565b5f600854036129a1574360055f6101000a8154816fffffffffffffffffffffffffffffffff02191690836fffffffffffffffffffffffffffffffff16021790555061299b6134ea565b50612a02565b6129a9612fc3565b60035f8282546129b99190613b13565b925050819055508060055f6101000a8154816fffffffffffffffffffffffffffffffff02191690836fffffffffffffffffffffffffffffffff160217905550612a006134ea565b505b565b60018081905550565b612a156135a5565b5f60025f6101000a81548160ff0219169083151502179055507f5db9ee0a495bf2e6ff9c91a7834c1ba4fdd244a5e8aa4e537bd38aeae4b073aa612a5761278f565b604051612a6491906137c9565b60405180910390a1565b5f8060105f9054906101000a900473ffffffffffffffffffffffffffffffffffffffff1673ffffffffffffffffffffffffffffffffffffffff1663b2306010600f5f9054906101000a900473ffffffffffffffffffffffffffffffffffffffff166040518263ffffffff1660e01b8152600401612aeb91906137c9565b602060405180830381865afa158015612b06573d5f803e3d5ffd5b505050506040513d601f19601f82011682018060405250810190612b2a9190613bef565b90505f60105f9054906101000a900473ffffffffffffffffffffffffffffffffffffffff1673ffffffffffffffffffffffffffffffffffffffff16631443d5b0836040518263ffffffff1660e01b8152600401612b879190613c29565b6040805180830381865afa158015612ba1573d5f803e3d5ffd5b505050506040513d601f19601f82011682018060405250810190612bc59190613d1b565b9050805f0151816020015185612bdb9190613a42565b612be59190613ab0565b92505050919050565b5f80601460109054906101000a90046fffffffffffffffffffffffffffffffff16600460109054906101000a90046fffffffffffffffffffffffffffffffff16612c389190613d46565b6fffffffffffffffffffffffffffffffff169050600460109054906101000a90046fffffffffffffffffffffffffffffffff166fffffffffffffffffffffffffffffffff1643118015612c8c57505f601354145b15612d90575f612cbb7f00000000000000000000000000000000000000000000000000000000000000006123b6565b90505f601460109054906101000a90046fffffffffffffffffffffffffffffffff166fffffffffffffffffffffffffffffffff1643612cfa9190613ae0565b60125483612d089190613ae0565b612d129190613ab0565b9050601460109054906101000a90046fffffffffffffffffffffffffffffffff16600460109054906101000a90046fffffffffffffffffffffffffffffffff16612d5c9190613d46565b6fffffffffffffffffffffffffffffffff1681612d799190613a42565b601254612d869190613b13565b9350505050612daf565b80601354612d9e9190613a42565b601254612dab9190613b13565b9150505b90565b5f805f9054906101000a900473ffffffffffffffffffffffffffffffffffffffff169050815f806101000a81548173ffffffffffffffffffffffffffffffffffffffff021916908373ffffffffffffffffffffffffffffffffffffffff1602179055508173ffffffffffffffffffffffffffffffffffffffff168173ffffffffffffffffffffffffffffffffffffffff167f8be0079c531659141344cd1fd0a4f28419497f9722a3daafe3b4186f6b6457e060405160405180910390a35050565b5f805f600e5f9054906101000a900473ffffffffffffffffffffffffffffffffffffffff1673ffffffffffffffffffffffffffffffffffffffff166370a08231306040518263ffffffff1660e01b8152600401612ed091906137c9565b602060405180830381865afa158015612eeb573d5f803e3d5ffd5b505050506040513d601f19601f82011682018060405250810190612f0f91906139ea565b90505f8103612f24575f809250925050612fbf565b5f612f30600854610ef4565b90505f8183612f3f9190613ae0565b905060155f9054906101000a900460ff1615612f6357805f94509450505050612fbf565b6064600560109054906101000a90046fffffffffffffffffffffffffffffffff166fffffffffffffffffffffffffffffffff1682612fa19190613a42565b612fab9190613ab0565b94508481612fb99190613ae0565b93505050505b9091565b5f8060085403612fd5575f9050613368565b5f4390505f60055f9054906101000a90046fffffffffffffffffffffffffffffffff1690505f80600c8054905090505f8060095490505b8281101561320e57600c818154811061302857613027613b46565b5b905f5260205f2090600291828204019190066010029054906101000a90046fffffffffffffffffffffffffffffffff16935085846fffffffffffffffffffffffffffffffff16101561320e57846fffffffffffffffffffffffffffffffff16846fffffffffffffffffffffffffffffffff161115613201575f6130cf866fffffffffffffffffffffffffffffffff16866fffffffffffffffffffffffffffffffff166135e5565b90505f600b5f80851461313157600c6001866130eb9190613ae0565b815481106130fc576130fb613b46565b5b905f5260205f2090600291828204019190066010029054906101000a90046fffffffffffffffffffffffffffffffff16613176565b600c5f8154811061314557613144613b46565b5b905f5260205f2090600291828204019190066010029054906101000a90046fffffffffffffffffffffffffffffffff165b6fffffffffffffffffffffffffffffffff166fffffffffffffffffffffffffffffffff1681526020019081526020015f205490506008547f000000000000000000000000000000000000000000000000000000000000000083836131da9190613a42565b6131e49190613a42565b6131ee9190613ab0565b846131f99190613b13565b935085965050505b808060010191505061300c565b5f61322b866fffffffffffffffffffffffffffffffff16886135e5565b90505f87866fffffffffffffffffffffffffffffffff1611156132d257600b5f600c60018661325a9190613ae0565b8154811061326b5761326a613b46565b5b905f5260205f2090600291828204019190066010029054906101000a90046fffffffffffffffffffffffffffffffff166fffffffffffffffffffffffffffffffff166fffffffffffffffffffffffffffffffff1681526020019081526020015f2054613309565b600b5f876fffffffffffffffffffffffffffffffff166fffffffffffffffffffffffffffffffff1681526020019081526020015f20545b90506008547f0000000000000000000000000000000000000000000000000000000000000000838361333b9190613a42565b6133459190613a42565b61334f9190613ab0565b8461335a9190613b13565b935083985050505050505050505b90565b61337361232f565b600160025f6101000a81548160ff0219169083151502179055507f62e78cea01bee320cd4e420270b5ea74000d11b0c9f74754ebdbfc544b05a2586133b661278f565b6040516133c391906137c9565b60405180910390a1565b613449848573ffffffffffffffffffffffffffffffffffffffff166323b872dd86868660405160240161340293929190613dc0565b604051602081830303815290604052915060e01b6020820180517bffffffffffffffffffffffffffffffffffffffffffffffffffffffff838183161783525050505061344f565b50505050565b5f8060205f8451602086015f885af18061346e576040513d5f823e3d81fd5b3d92505f519150505f82146134875760018114156134a2565b5f8473ffffffffffffffffffffffffffffffffffffffff163b145b156134e457836040517f5274afe70000000000000000000000000000000000000000000000000000000081526004016134db91906137c9565b60405180910390fd5b50505050565b5f600c8054905090505f60095490505b818110156135a15760055f9054906101000a90046fffffffffffffffffffffffffffffffff166fffffffffffffffffffffffffffffffff16600c828154811061354657613545613b46565b5b905f5260205f2090600291828204019190066010029054906101000a90046fffffffffffffffffffffffffffffffff166fffffffffffffffffffffffffffffffff16116135a1578060098190555080806001019150506134fa565b5050565b6135ad610f9f565b6135e3576040517f8dfc202b00000000000000000000000000000000000000000000000000000000815260040160405180910390fd5b565b5f600460109054906101000a90046fffffffffffffffffffffffffffffffff166fffffffffffffffffffffffffffffffff1682116136305782826136299190613ae0565b90506136ae565b600460109054906101000a90046fffffffffffffffffffffffffffffffff166fffffffffffffffffffffffffffffffff16831061366f575f90506136ae565b82600460109054906101000a90046fffffffffffffffffffffffffffffffff166fffffffffffffffffffffffffffffffff166136ab9190613ae0565b90505b92915050565b5f604051905090565b5f80fd5b5f73ffffffffffffffffffffffffffffffffffffffff82169050919050565b5f6136ea826136c1565b9050919050565b6136fa816136e0565b8114613704575f80fd5b50565b5f81359050613715816136f1565b92915050565b5f602082840312156137305761372f6136bd565b5b5f61373d84828501613707565b91505092915050565b5f819050919050565b61375881613746565b82525050565b5f6020820190506137715f83018461374f565b92915050565b5f6fffffffffffffffffffffffffffffffff82169050919050565b61379b81613777565b82525050565b5f6020820190506137b45f830184613792565b92915050565b6137c3816136e0565b82525050565b5f6020820190506137dc5f8301846137ba565b92915050565b6137eb81613746565b81146137f5575f80fd5b50565b5f81359050613806816137e2565b92915050565b5f60208284031215613821576138206136bd565b5b5f61382e848285016137f8565b91505092915050565b5f819050919050565b5f61385a613855613850846136c1565b613837565b6136c1565b9050919050565b5f61386b82613840565b9050919050565b5f61387c82613861565b9050919050565b61388c81613872565b82525050565b5f6020820190506138a55f830184613883565b92915050565b5f8115159050919050565b6138bf816138ab565b82525050565b5f6020820190506138d85f8301846138b6565b92915050565b5f6080820190506138f15f830187613792565b6138fe6020830186613792565b61390b604083018561374f565b613918606083018461374f565b95945050505050565b5f61392b82613861565b9050919050565b61393b81613921565b82525050565b5f6020820190506139545f830184613932565b92915050565b5f60408201905061396d5f83018561374f565b61397a602083018461374f565b9392505050565b61398a81613777565b8114613994575f80fd5b50565b5f813590506139a581613981565b92915050565b5f602082840312156139c0576139bf6136bd565b5b5f6139cd84828501613997565b91505092915050565b5f815190506139e4816137e2565b92915050565b5f602082840312156139ff576139fe6136bd565b5b5f613a0c848285016139d6565b91505092915050565b7f4e487b71000000000000000000000000000000000000000000000000000000005f52601160045260245ffd5b5f613a4c82613746565b9150613a5783613746565b9250828202613a6581613746565b91508282048414831517613a7c57613a7b613a15565b5b5092915050565b7f4e487b71000000000000000000000000000000000000000000000000000000005f52601260045260245ffd5b5f613aba82613746565b9150613ac583613746565b925082613ad557613ad4613a83565b5b828204905092915050565b5f613aea82613746565b9150613af583613746565b9250828203905081811115613b0d57613b0c613a15565b5b92915050565b5f613b1d82613746565b9150613b2883613746565b9250828201905080821115613b4057613b3f613a15565b5b92915050565b7f4e487b71000000000000000000000000000000000000000000000000000000005f52603260045260245ffd5b5f604082019050613b865f8301856137ba565b613b93602083018461374f565b9392505050565b5f7fffff00000000000000000000000000000000000000000000000000000000000082169050919050565b613bce81613b9a565b8114613bd8575f80fd5b50565b5f81519050613be981613bc5565b92915050565b5f60208284031215613c0457613c036136bd565b5b5f613c1184828501613bdb565b91505092915050565b613c2381613b9a565b82525050565b5f602082019050613c3c5f830184613c1a565b92915050565b5f80fd5b5f601f19601f8301169050919050565b7f4e487b71000000000000000000000000000000000000000000000000000000005f52604160045260245ffd5b613c8c82613c46565b810181811067ffffffffffffffff82111715613cab57613caa613c56565b5b80604052505050565b5f613cbd6136b4565b9050613cc98282613c83565b919050565b5f60408284031215613ce357613ce2613c42565b5b613ced6040613cb4565b90505f613cfc848285016139d6565b5f830152506020613d0f848285016139d6565b60208301525092915050565b5f60408284031215613d3057613d2f6136bd565b5b5f613d3d84828501613cce565b91505092915050565b5f613d5082613777565b9150613d5b83613777565b925082820390506fffffffffffffffffffffffffffffffff811115613d8357613d82613a15565b5b92915050565b5f613d9382613777565b91506fffffffffffffffffffffffffffffffff8203613db557613db4613a15565b5b600182019050919050565b5f606082019050613dd35f8301866137ba565b613de060208301856137ba565b613ded604083018461374f565b94935050505056fea2646970667358221220cd234c250c0441e05d42d075e33f7d8f0f7faf3580ba56fbc0fd65b001d1ea0c64736f6c634300081a0033",
		"linkReferences": {}
	},
	"methodIdentifiers": {
		"BASE_PRECISION()": "72cacb70",
		"MAX_DECIMALS()": "0417cf8e",
		"ONE_VTOKEN()": "bb8afc7b",
		"SCALING_FACTOR()": "ef4cadc5",
		"acceptedNativeAsset()": "8e70fa8c",
		"acceptedVAsset()": "99dc0390",
		"avgNativeExRateGradient()": "b66a72df",
		"changeBlocks(uint256)": "976251e6",
		"claimLeftoverProjectToken()": "ab7302bb",
		"claimOwnerInterest()": "72e48cf3",
		"claimPlatformFee()": "9c8aea90",
		"cumulativeExchangeRate()": "33d8773d",
		"emissionRateChanges(uint128)": "b87a6aeb",
		"endBlock()": "083c6323",
		"getClaimableProjectToken(address)": "80729f17",
		"getEmissionRate()": "c0a77da9",
		"getPoolInfo()": "60246c88",
		"getStakerNativeAmount(address)": "7d334107",
		"getStakingRange()": "fce88e6f",
		"getTotalProjectToken()": "f73a8b5c",
		"getTotalStakedVTokens()": "534a9d00",
		"getWithdrawableVTokens(uint256)": "5bf0fa89",
		"lastNativeExRate()": "9b4f8321",
		"lastNativeExRateUpdateBlock()": "b1f0af1b",
		"lastProcessedChangeBlockIndex()": "a748afb0",
		"maxStakers()": "4f7ff503",
		"maxVAssetPerStaker()": "81cadea0",
		"nativeExRateSampleCount()": "06508ebc",
		"owner()": "8da5cb5b",
		"ownerShareOfInterest()": "84d38d48",
		"pause()": "8456cb59",
		"paused()": "5c975abb",
		"platformAdminAddress()": "129989a3",
		"platformFeeClaimed()": "d065cf8e",
		"projectToken()": "4b60ce77",
		"recoverWrongToken(address)": "018bcf5c",
		"renounceOwnership()": "715018a6",
		"setXCMOracleAddress(address)": "aac9ce5c",
		"stake(uint256)": "a694fc3a",
		"stakers(address)": "9168ae72",
		"startBlock()": "48cd4cb1",
		"tickBlock()": "bfc55b8a",
		"totalNativeStake()": "544c2d76",
		"transferOwnership(address)": "f2fde38b",
		"unpause()": "3f4ba83a",
		"unstake(uint256)": "2e17de78",
		"unstakeWithoutProjectToken(uint256)": "b64a025e",
		"xcmOracle()": "6cf56846"
	},
	"storageLayout": {
		"storage": [
			{
				"astId": 39589,
				"contract": "src/non-upgradeable/Launchpool.sol:Launchpool",
				"label": "_owner",
				"offset": 0,
				"slot": "0",
				"type": "t_address"
			},
			{
				"astId": 42204,
				"contract": "src/non-upgradeable/Launchpool.sol:Launchpool",
				"label": "_status",
				"offset": 0,
				"slot": "1",
				"type": "t_uint256"
			},
			{
				"astId": 42085,
				"contract": "src/non-upgradeable/Launchpool.sol:Launchpool",
				"label": "_paused",
				"offset": 0,
				"slot": "2",
				"type": "t_bool"
			},
			{
				"astId": 52707,
				"contract": "src/non-upgradeable/Launchpool.sol:Launchpool",
				"label": "cumulativeExchangeRate",
				"offset": 0,
				"slot": "3",
				"type": "t_uint256"
			},
			{
				"astId": 52709,
				"contract": "src/non-upgradeable/Launchpool.sol:Launchpool",
				"label": "startBlock",
				"offset": 0,
				"slot": "4",
				"type": "t_uint128"
			},
			{
				"astId": 52711,
				"contract": "src/non-upgradeable/Launchpool.sol:Launchpool",
				"label": "endBlock",
				"offset": 16,
				"slot": "4",
				"type": "t_uint128"
			},
			{
				"astId": 52713,
				"contract": "src/non-upgradeable/Launchpool.sol:Launchpool",
				"label": "tickBlock",
				"offset": 0,
				"slot": "5",
				"type": "t_uint128"
			},
			{
				"astId": 52716,
				"contract": "src/non-upgradeable/Launchpool.sol:Launchpool",
				"label": "ownerShareOfInterest",
				"offset": 16,
				"slot": "5",
				"type": "t_uint128"
			},
			{
				"astId": 52718,
				"contract": "src/non-upgradeable/Launchpool.sol:Launchpool",
				"label": "maxVAssetPerStaker",
				"offset": 0,
				"slot": "6",
				"type": "t_uint256"
			},
			{
				"astId": 52720,
				"contract": "src/non-upgradeable/Launchpool.sol:Launchpool",
				"label": "maxStakers",
				"offset": 0,
				"slot": "7",
				"type": "t_uint256"
			},
			{
				"astId": 52722,
				"contract": "src/non-upgradeable/Launchpool.sol:Launchpool",
				"label": "totalNativeStake",
				"offset": 0,
				"slot": "8",
				"type": "t_uint256"
			},
			{
				"astId": 52732,
				"contract": "src/non-upgradeable/Launchpool.sol:Launchpool",
				"label": "lastProcessedChangeBlockIndex",
				"offset": 0,
				"slot": "9",
				"type": "t_uint256"
			},
			{
				"astId": 52735,
				"contract": "src/non-upgradeable/Launchpool.sol:Launchpool",
				"label": "platformAdminAddress",
				"offset": 0,
				"slot": "10",
				"type": "t_address"
			},
			{
				"astId": 52739,
				"contract": "src/non-upgradeable/Launchpool.sol:Launchpool",
				"label": "emissionRateChanges",
				"offset": 0,
				"slot": "11",
				"type": "t_mapping(t_uint128,t_uint256)"
			},
			{
				"astId": 52742,
				"contract": "src/non-upgradeable/Launchpool.sol:Launchpool",
				"label": "changeBlocks",
				"offset": 0,
				"slot": "12",
				"type": "t_array(t_uint128)dyn_storage"
			},
			{
				"astId": 52745,
				"contract": "src/non-upgradeable/Launchpool.sol:Launchpool",
				"label": "projectToken",
				"offset": 0,
				"slot": "13",
				"type": "t_contract(IERC20)41277"
			},
			{
				"astId": 52748,
				"contract": "src/non-upgradeable/Launchpool.sol:Launchpool",
				"label": "acceptedVAsset",
				"offset": 0,
				"slot": "14",
				"type": "t_contract(IERC20)41277"
			},
			{
				"astId": 52751,
				"contract": "src/non-upgradeable/Launchpool.sol:Launchpool",
				"label": "acceptedNativeAsset",
				"offset": 0,
				"slot": "15",
				"type": "t_contract(IERC20)41277"
			},
			{
				"astId": 52754,
				"contract": "src/non-upgradeable/Launchpool.sol:Launchpool",
				"label": "xcmOracle",
				"offset": 0,
				"slot": "16",
				"type": "t_contract(IXCMOracle)52082"
			},
			{
				"astId": 52759,
				"contract": "src/non-upgradeable/Launchpool.sol:Launchpool",
				"label": "stakers",
				"offset": 0,
				"slot": "17",
				"type": "t_mapping(t_address,t_struct(Staker)52705_storage)"
			},
			{
				"astId": 52761,
				"contract": "src/non-upgradeable/Launchpool.sol:Launchpool",
				"label": "lastNativeExRate",
				"offset": 0,
				"slot": "18",
				"type": "t_uint256"
			},
			{
				"astId": 52763,
				"contract": "src/non-upgradeable/Launchpool.sol:Launchpool",
				"label": "avgNativeExRateGradient",
				"offset": 0,
				"slot": "19",
				"type": "t_uint256"
			},
			{
				"astId": 52765,
				"contract": "src/non-upgradeable/Launchpool.sol:Launchpool",
				"label": "nativeExRateSampleCount",
				"offset": 0,
				"slot": "20",
				"type": "t_uint128"
			},
			{
				"astId": 52767,
				"contract": "src/non-upgradeable/Launchpool.sol:Launchpool",
				"label": "lastNativeExRateUpdateBlock",
				"offset": 16,
				"slot": "20",
				"type": "t_uint128"
			},
			{
				"astId": 52771,
				"contract": "src/non-upgradeable/Launchpool.sol:Launchpool",
				"label": "platformFeeClaimed",
				"offset": 0,
				"slot": "21",
				"type": "t_bool"
			}
		],
		"types": {
			"t_address": {
				"encoding": "inplace",
				"label": "address",
				"numberOfBytes": "20"
			},
			"t_array(t_uint128)dyn_storage": {
				"encoding": "dynamic_array",
				"label": "uint128[]",
				"numberOfBytes": "32",
				"base": "t_uint128"
			},
			"t_bool": {
				"encoding": "inplace",
				"label": "bool",
				"numberOfBytes": "1"
			},
			"t_contract(IERC20)41277": {
				"encoding": "inplace",
				"label": "contract IERC20",
				"numberOfBytes": "20"
			},
			"t_contract(IXCMOracle)52082": {
				"encoding": "inplace",
				"label": "contract IXCMOracle",
				"numberOfBytes": "20"
			},
			"t_mapping(t_address,t_struct(Staker)52705_storage)": {
				"encoding": "mapping",
				"key": "t_address",
				"label": "mapping(address => struct Launchpool.Staker)",
				"numberOfBytes": "32",
				"value": "t_struct(Staker)52705_storage"
			},
			"t_mapping(t_uint128,t_uint256)": {
				"encoding": "mapping",
				"key": "t_uint128",
				"label": "mapping(uint128 => uint256)",
				"numberOfBytes": "32",
				"value": "t_uint256"
			},
			"t_struct(Staker)52705_storage": {
				"encoding": "inplace",
				"label": "struct Launchpool.Staker",
				"numberOfBytes": "64",
				"members": [
					{
						"astId": 52702,
						"contract": "src/non-upgradeable/Launchpool.sol:Launchpool",
						"label": "nativeAmount",
						"offset": 0,
						"slot": "0",
						"type": "t_uint256"
					},
					{
						"astId": 52704,
						"contract": "src/non-upgradeable/Launchpool.sol:Launchpool",
						"label": "claimOffset",
						"offset": 0,
						"slot": "1",
						"type": "t_uint256"
					}
				]
			},
			"t_uint128": {
				"encoding": "inplace",
				"label": "uint128",
				"numberOfBytes": "16"
			},
			"t_uint256": {
				"encoding": "inplace",
				"label": "uint256",
				"numberOfBytes": "32"
			}
		}
	},
	"id": 69
}