{
	"abi": [
		{
			"type": "constructor",
			"inputs": [
				{
					"name": "xcmOracleAddress",
					"type": "address",
					"internalType": "address"
				},
				{
					"name": "_projectOwner",
					"type": "address",
					"internalType": "address"
				},
				{
					"name": "_projectToken",
					"type": "address",
					"internalType": "address"
				},
				{
					"name": "_acceptedVAsset",
					"type": "address",
					"internalType": "address"
				},
				{
					"name": "_acceptedNativeAsset",
					"type": "address",
					"internalType": "address"
				},
				{
					"name": "_startBlock",
					"type": "uint128",
					"internalType": "uint128"
				},
				{
					"name": "_endBlock",
					"type": "uint128",
					"internalType": "uint128"
				},
				{
					"name": "_maxVAssetPerStaker",
					"type": "uint256",
					"internalType": "uint256"
				},
				{
					"name": "_changeBlocks",
					"type": "uint128[]",
					"internalType": "uint128[]"
				},
				{
					"name": "_emissionRateChanges",
					"type": "uint256[]",
					"internalType": "uint256[]"
				}
			],
			"stateMutability": "nonpayable"
		},
		{
			"type": "function",
			"name": "BASE_PRECISION",
			"inputs": [],
			"outputs": [
				{
					"name": "",
					"type": "uint256",
					"internalType": "uint256"
				}
			],
			"stateMutability": "view"
		},
		{
			"type": "function",
			"name": "MAX_DECIMALS",
			"inputs": [],
			"outputs": [
				{
					"name": "",
					"type": "uint256",
					"internalType": "uint256"
				}
			],
			"stateMutability": "view"
		},
		{
			"type": "function",
			"name": "ONE_VTOKEN",
			"inputs": [],
			"outputs": [
				{
					"name": "",
					"type": "uint256",
					"internalType": "uint256"
				}
			],
			"stateMutability": "view"
		},
		{
			"type": "function",
			"name": "SCALING_FACTOR",
			"inputs": [],
			"outputs": [
				{
					"name": "",
					"type": "uint256",
					"internalType": "uint256"
				}
			],
			"stateMutability": "view"
		},
		{
			"type": "function",
			"name": "acceptedNativeAsset",
			"inputs": [],
			"outputs": [
				{
					"name": "",
					"type": "address",
					"internalType": "contract IERC20"
				}
			],
			"stateMutability": "view"
		},
		{
			"type": "function",
			"name": "acceptedVAsset",
			"inputs": [],
			"outputs": [
				{
					"name": "",
					"type": "address",
					"internalType": "contract IERC20"
				}
			],
			"stateMutability": "view"
		},
		{
			"type": "function",
			"name": "avgNativeExRateGradient",
			"inputs": [],
			"outputs": [
				{
					"name": "",
					"type": "uint256",
					"internalType": "uint256"
				}
			],
			"stateMutability": "view"
		},
		{
			"type": "function",
			"name": "changeBlocks",
			"inputs": [
				{
					"name": "",
					"type": "uint256",
					"internalType": "uint256"
				}
			],
			"outputs": [
				{
					"name": "",
					"type": "uint128",
					"internalType": "uint128"
				}
			],
			"stateMutability": "view"
		},
		{
			"type": "function",
			"name": "claimLeftoverProjectToken",
			"inputs": [],
			"outputs": [],
			"stateMutability": "nonpayable"
		},
		{
			"type": "function",
			"name": "claimOwnerInterest",
			"inputs": [],
			"outputs": [],
			"stateMutability": "nonpayable"
		},
		{
			"type": "function",
			"name": "claimPlatformFee",
			"inputs": [],
			"outputs": [],
			"stateMutability": "nonpayable"
		},
		{
			"type": "function",
			"name": "claimProjectTokens",
			"inputs": [],
			"outputs": [],
			"stateMutability": "nonpayable"
		},
		{
			"type": "function",
			"name": "cumulativeExchangeRate",
			"inputs": [],
			"outputs": [
				{
					"name": "",
					"type": "uint256",
					"internalType": "uint256"
				}
			],
			"stateMutability": "view"
		},
		{
			"type": "function",
			"name": "emissionRateChanges",
			"inputs": [
				{
					"name": "",
					"type": "uint128",
					"internalType": "uint128"
				}
			],
			"outputs": [
				{
					"name": "",
					"type": "uint256",
					"internalType": "uint256"
				}
			],
			"stateMutability": "view"
		},
		{
			"type": "function",
			"name": "endBlock",
			"inputs": [],
			"outputs": [
				{
					"name": "",
					"type": "uint128",
					"internalType": "uint128"
				}
			],
			"stateMutability": "view"
		},
		{
			"type": "function",
			"name": "getClaimableProjectToken",
			"inputs": [
				{
					"name": "_investor",
					"type": "address",
					"internalType": "address"
				}
			],
			"outputs": [
				{
					"name": "",
					"type": "uint256",
					"internalType": "uint256"
				}
			],
			"stateMutability": "view"
		},
		{
			"type": "function",
			"name": "getEmissionRate",
			"inputs": [],
			"outputs": [
				{
					"name": "",
					"type": "uint256",
					"internalType": "uint256"
				}
			],
			"stateMutability": "view"
		},
		{
			"type": "function",
			"name": "getPoolInfo",
			"inputs": [],
			"outputs": [
				{
					"name": "",
					"type": "uint128",
					"internalType": "uint128"
				},
				{
					"name": "",
					"type": "uint128",
					"internalType": "uint128"
				},
				{
					"name": "",
					"type": "uint256",
					"internalType": "uint256"
				},
				{
					"name": "",
					"type": "uint256",
					"internalType": "uint256"
				}
			],
			"stateMutability": "view"
		},
		{
			"type": "function",
			"name": "getStakerNativeAmount",
			"inputs": [
				{
					"name": "_investor",
					"type": "address",
					"internalType": "address"
				}
			],
			"outputs": [
				{
					"name": "",
					"type": "uint256",
					"internalType": "uint256"
				}
			],
			"stateMutability": "view"
		},
		{
			"type": "function",
			"name": "getStakingRange",
			"inputs": [],
			"outputs": [
				{
					"name": "",
					"type": "uint256",
					"internalType": "uint256"
				},
				{
					"name": "",
					"type": "uint256",
					"internalType": "uint256"
				}
			],
			"stateMutability": "view"
		},
		{
			"type": "function",
			"name": "getTotalProjectToken",
			"inputs": [],
			"outputs": [
				{
					"name": "",
					"type": "uint256",
					"internalType": "uint256"
				}
			],
			"stateMutability": "view"
		},
		{
			"type": "function",
			"name": "getTotalStakedVTokens",
			"inputs": [],
			"outputs": [
				{
					"name": "",
					"type": "uint256",
					"internalType": "uint256"
				}
			],
			"stateMutability": "view"
		},
		{
			"type": "function",
			"name": "getWithdrawableVTokens",
			"inputs": [
				{
					"name": "_withdrawnNativeTokens",
					"type": "uint256",
					"internalType": "uint256"
				}
			],
			"outputs": [
				{
					"name": "withdrawableVAssets",
					"type": "uint256",
					"internalType": "uint256"
				}
			],
			"stateMutability": "view"
		},
		{
			"type": "function",
			"name": "lastNativeExRate",
			"inputs": [],
			"outputs": [
				{
					"name": "",
					"type": "uint256",
					"internalType": "uint256"
				}
			],
			"stateMutability": "view"
		},
		{
			"type": "function",
			"name": "lastNativeExRateUpdateBlock",
			"inputs": [],
			"outputs": [
				{
					"name": "",
					"type": "uint128",
					"internalType": "uint128"
				}
			],
			"stateMutability": "view"
		},
		{
			"type": "function",
			"name": "lastProcessedChangeBlockIndex",
			"inputs": [],
			"outputs": [
				{
					"name": "",
					"type": "uint256",
					"internalType": "uint256"
				}
			],
			"stateMutability": "view"
		},
		{
			"type": "function",
			"name": "maxStakers",
			"inputs": [],
			"outputs": [
				{
					"name": "",
					"type": "uint256",
					"internalType": "uint256"
				}
			],
			"stateMutability": "view"
		},
		{
			"type": "function",
			"name": "maxVAssetPerStaker",
			"inputs": [],
			"outputs": [
				{
					"name": "",
					"type": "uint256",
					"internalType": "uint256"
				}
			],
			"stateMutability": "view"
		},
		{
			"type": "function",
			"name": "nativeExRateSampleCount",
			"inputs": [],
			"outputs": [
				{
					"name": "",
					"type": "uint128",
					"internalType": "uint128"
				}
			],
			"stateMutability": "view"
		},
		{
			"type": "function",
			"name": "owner",
			"inputs": [],
			"outputs": [
				{
					"name": "",
					"type": "address",
					"internalType": "address"
				}
			],
			"stateMutability": "view"
		},
		{
			"type": "function",
			"name": "ownerShareOfInterest",
			"inputs": [],
			"outputs": [
				{
					"name": "",
					"type": "uint128",
					"internalType": "uint128"
				}
			],
			"stateMutability": "view"
		},
		{
			"type": "function",
			"name": "pause",
			"inputs": [],
			"outputs": [],
			"stateMutability": "nonpayable"
		},
		{
			"type": "function",
			"name": "paused",
			"inputs": [],
			"outputs": [
				{
					"name": "",
					"type": "bool",
					"internalType": "bool"
				}
			],
			"stateMutability": "view"
		},
		{
			"type": "function",
			"name": "platformAdminAddress",
			"inputs": [],
			"outputs": [
				{
					"name": "",
					"type": "address",
					"internalType": "address"
				}
			],
			"stateMutability": "view"
		},
		{
			"type": "function",
			"name": "platformFeeClaimed",
			"inputs": [],
			"outputs": [
				{
					"name": "",
					"type": "bool",
					"internalType": "bool"
				}
			],
			"stateMutability": "view"
		},
		{
			"type": "function",
			"name": "projectToken",
			"inputs": [],
			"outputs": [
				{
					"name": "",
					"type": "address",
					"internalType": "contract IERC20"
				}
			],
			"stateMutability": "view"
		},
		{
			"type": "function",
			"name": "recoverWrongToken",
			"inputs": [
				{
					"name": "_tokenAddress",
					"type": "address",
					"internalType": "address"
				}
			],
			"outputs": [],
			"stateMutability": "nonpayable"
		},
		{
			"type": "function",
			"name": "renounceOwnership",
			"inputs": [],
			"outputs": [],
			"stateMutability": "nonpayable"
		},
		{
			"type": "function",
			"name": "setXCMOracleAddress",
			"inputs": [
				{
					"name": "_xcmOracleAddress",
					"type": "address",
					"internalType": "address"
				}
			],
			"outputs": [],
			"stateMutability": "nonpayable"
		},
		{
			"type": "function",
			"name": "stake",
			"inputs": [
				{
					"name": "_vTokenAmount",
					"type": "uint256",
					"internalType": "uint256"
				}
			],
			"outputs": [],
			"stateMutability": "nonpayable"
		},
		{
			"type": "function",
			"name": "stakers",
			"inputs": [
				{
					"name": "",
					"type": "address",
					"internalType": "address"
				}
			],
			"outputs": [
				{
					"name": "nativeAmount",
					"type": "uint256",
					"internalType": "uint256"
				},
				{
					"name": "claimOffset",
					"type": "uint256",
					"internalType": "uint256"
				}
			],
			"stateMutability": "view"
		},
		{
			"type": "function",
			"name": "startBlock",
			"inputs": [],
			"outputs": [
				{
					"name": "",
					"type": "uint128",
					"internalType": "uint128"
				}
			],
			"stateMutability": "view"
		},
		{
			"type": "function",
			"name": "tickBlock",
			"inputs": [],
			"outputs": [
				{
					"name": "",
					"type": "uint128",
					"internalType": "uint128"
				}
			],
			"stateMutability": "view"
		},
		{
			"type": "function",
			"name": "totalNativeStake",
			"inputs": [],
			"outputs": [
				{
					"name": "",
					"type": "uint256",
					"internalType": "uint256"
				}
			],
			"stateMutability": "view"
		},
		{
			"type": "function",
			"name": "transferOwnership",
			"inputs": [
				{
					"name": "newOwner",
					"type": "address",
					"internalType": "address"
				}
			],
			"outputs": [],
			"stateMutability": "nonpayable"
		},
		{
			"type": "function",
			"name": "unpause",
			"inputs": [],
			"outputs": [],
			"stateMutability": "nonpayable"
		},
		{
			"type": "function",
			"name": "unstake",
			"inputs": [
				{
					"name": "_vTokenAmount",
					"type": "uint256",
					"internalType": "uint256"
				}
			],
			"outputs": [],
			"stateMutability": "nonpayable"
		},
		{
			"type": "function",
			"name": "unstakeWithoutProjectToken",
			"inputs": [
				{
					"name": "_withdrawnVTokens",
					"type": "uint256",
					"internalType": "uint256"
				}
			],
			"outputs": [],
			"stateMutability": "nonpayable"
		},
		{
			"type": "function",
			"name": "xcmOracle",
			"inputs": [],
			"outputs": [
				{
					"name": "",
					"type": "address",
					"internalType": "contract IXCMOracle"
				}
			],
			"stateMutability": "view"
		},
		{
			"type": "event",
			"name": "OwnershipTransferred",
			"inputs": [
				{
					"name": "previousOwner",
					"type": "address",
					"indexed": true,
					"internalType": "address"
				},
				{
					"name": "newOwner",
					"type": "address",
					"indexed": true,
					"internalType": "address"
				}
			],
			"anonymous": false
		},
		{
			"type": "event",
			"name": "Paused",
			"inputs": [
				{
					"name": "account",
					"type": "address",
					"indexed": false,
					"internalType": "address"
				}
			],
			"anonymous": false
		},
		{
			"type": "event",
			"name": "ProjectTokensClaimed",
			"inputs": [
				{
					"name": "user",
					"type": "address",
					"indexed": true,
					"internalType": "address"
				},
				{
					"name": "amount",
					"type": "uint256",
					"indexed": false,
					"internalType": "uint256"
				}
			],
			"anonymous": false
		},
		{
			"type": "event",
			"name": "Staked",
			"inputs": [
				{
					"name": "user",
					"type": "address",
					"indexed": true,
					"internalType": "address"
				},
				{
					"name": "amount",
					"type": "uint256",
					"indexed": false,
					"internalType": "uint256"
				}
			],
			"anonymous": false
		},
		{
			"type": "event",
			"name": "Unpaused",
			"inputs": [
				{
					"name": "account",
					"type": "address",
					"indexed": false,
					"internalType": "address"
				}
			],
			"anonymous": false
		},
		{
			"type": "event",
			"name": "Unstaked",
			"inputs": [
				{
					"name": "user",
					"type": "address",
					"indexed": true,
					"internalType": "address"
				},
				{
					"name": "amount",
					"type": "uint256",
					"indexed": false,
					"internalType": "uint256"
				}
			],
			"anonymous": false
		},
		{
			"type": "error",
			"name": "ArraysLengthMismatch",
			"inputs": []
		},
		{
			"type": "error",
			"name": "DecimalsTooHigh",
			"inputs": [
				{
					"name": "tokenAddress",
					"type": "address",
					"internalType": "address"
				}
			]
		},
		{
			"type": "error",
			"name": "EndBlockMustBeAfterstartBlock",
			"inputs": []
		},
		{
			"type": "error",
			"name": "EnforcedPause",
			"inputs": []
		},
		{
			"type": "error",
			"name": "ExceedMaxVTokensPerStaker",
			"inputs": []
		},
		{
			"type": "error",
			"name": "ExceedNativeStake",
			"inputs": []
		},
		{
			"type": "error",
			"name": "ExceedWithdrawableVTokens",
			"inputs": []
		},
		{
			"type": "error",
			"name": "ExpectedPause",
			"inputs": []
		},
		{
			"type": "error",
			"name": "FailedToReadTokenDecimals",
			"inputs": []
		},
		{
			"type": "error",
			"name": "FirstChangeBlockMustBeStartBlock",
			"inputs": []
		},
		{
			"type": "error",
			"name": "MaxAndMinTokensPerStakerMustBeGreaterThanZero",
			"inputs": []
		},
		{
			"type": "error",
			"name": "MustBeAfterPoolEnd",
			"inputs": []
		},
		{
			"type": "error",
			"name": "MustBeDuringPoolTime",
			"inputs": []
		},
		{
			"type": "error",
			"name": "NoEmissionRateChangesProvided",
			"inputs": []
		},
		{
			"type": "error",
			"name": "NotPlatformAdmin",
			"inputs": []
		},
		{
			"type": "error",
			"name": "OwnableInvalidOwner",
			"inputs": [
				{
					"name": "owner",
					"type": "address",
					"internalType": "address"
				}
			]
		},
		{
			"type": "error",
			"name": "OwnableUnauthorizedAccount",
			"inputs": [
				{
					"name": "account",
					"type": "address",
					"internalType": "address"
				}
			]
		},
		{
			"type": "error",
			"name": "PlatformFeeAlreadyClaimed",
			"inputs": []
		},
		{
			"type": "error",
			"name": "ProjectTokenNotRecoverable",
			"inputs": []
		},
		{
			"type": "error",
			"name": "ReentrancyGuardReentrantCall",
			"inputs": []
		},
		{
			"type": "error",
			"name": "SafeERC20FailedOperation",
			"inputs": [
				{
					"name": "token",
					"type": "address",
					"internalType": "address"
				}
			]
		},
		{
			"type": "error",
			"name": "StartBlockMustBeInFuture",
			"inputs": []
		},
		{
			"type": "error",
			"name": "TotalProjectTokensMustBeGreaterThanZero",
			"inputs": []
		},
		{
			"type": "error",
			"name": "ZeroAddress",
			"inputs": []
		},
		{
			"type": "error",
			"name": "ZeroAmountNotAllowed",
			"inputs": []
		}
	],
	"bytecode": {
		"object": "0x60c0604052605a600560106101000a8154816fffffffffffffffffffffffffffffffff02191690836fffffffffffffffffffffffffffffffff16021790555073fd48761638e3a8c368abaefa9859cf6baa6c3c27600a5f6101000a81548173ffffffffffffffffffffffffffffffffffffffff021916908373ffffffffffffffffffffffffffffffffffffffff16021790555034801561009d575f80fd5b5060405161564138038061564183398181016040528101906100bf9190610eb4565b885f73ffffffffffffffffffffffffffffffffffffffff168173ffffffffffffffffffffffffffffffffffffffff1603610130575f6040517f1e4fbdf70000000000000000000000000000000000000000000000000000000081526004016101279190610fd4565b60405180910390fd5b61013f816107ea60201b60201c565b50600180819055505f60025f6101000a81548160ff021916908315150217905550875f73ffffffffffffffffffffffffffffffffffffffff168173ffffffffffffffffffffffffffffffffffffffff16036101c6576040517fd92e233d00000000000000000000000000000000000000000000000000000000815260040160405180910390fd5b875f73ffffffffffffffffffffffffffffffffffffffff168173ffffffffffffffffffffffffffffffffffffffff160361022c576040517fd92e233d00000000000000000000000000000000000000000000000000000000815260040160405180910390fd5b875f73ffffffffffffffffffffffffffffffffffffffff168173ffffffffffffffffffffffffffffffffffffffff1603610292576040517fd92e233d00000000000000000000000000000000000000000000000000000000815260040160405180910390fd5b855f81036102cc576040517f18e580a800000000000000000000000000000000000000000000000000000000815260040160405180910390fd5b6102da6108ab60201b60201c565b8d60105f6101000a81548173ffffffffffffffffffffffffffffffffffffffff021916908373ffffffffffffffffffffffffffffffffffffffff1602179055505f439050808a6fffffffffffffffffffffffffffffffff1611610369576040517f78818b5f00000000000000000000000000000000000000000000000000000000815260040160405180910390fd5b896fffffffffffffffffffffffffffffffff16896fffffffffffffffffffffffffffffffff16116103c6576040517f89edc18d00000000000000000000000000000000000000000000000000000000815260040160405180910390fd5b5f875190505f8111610404576040517fab1ea2ae00000000000000000000000000000000000000000000000000000000815260040160405180910390fd5b8a6fffffffffffffffffffffffffffffffff16885f8151811061042a57610429610fed565b5b60200260200101516fffffffffffffffffffffffffffffffff161461047b576040517ffa2c354c00000000000000000000000000000000000000000000000000000000815260040160405180910390fd5b808751146104b5576040517ffc23596000000000000000000000000000000000000000000000000000000000815260040160405180910390fd5b5f6104c58f6108ad60201b60201c565b90505f6104d78f6108ad60201b60201c565b905081600a6104e69190611182565b6c0c9f2c9cd04674edea400000006104fe91906111f9565b6080818152505080600a6105129190611182565b60a081815250505f5b8381101561059c5789818151811061053657610535610fed565b5b6020026020010151600b5f8d848151811061055457610553610fed565b5b60200260200101516fffffffffffffffffffffffffffffffff166fffffffffffffffffffffffffffffffff1681526020019081526020015f208190555080600101905061051b565b506105ae60a05161095560201b60201c565b60128190555060145f81819054906101000a90046fffffffffffffffffffffffffffffffff166105dd90611229565b91906101000a8154816fffffffffffffffffffffffffffffffff02191690836fffffffffffffffffffffffffffffffff16021790555083601460106101000a8154816fffffffffffffffffffffffffffffffff02191690836fffffffffffffffffffffffffffffffff16021790555089600c9080519060200190610662929190610ad5565b508f600d5f6101000a81548173ffffffffffffffffffffffffffffffffffffffff021916908373ffffffffffffffffffffffffffffffffffffffff1602179055508e600e5f6101000a81548173ffffffffffffffffffffffffffffffffffffffff021916908373ffffffffffffffffffffffffffffffffffffffff1602179055508d600f5f6101000a81548173ffffffffffffffffffffffffffffffffffffffff021916908373ffffffffffffffffffffffffffffffffffffffff1602179055508c60045f6101000a8154816fffffffffffffffffffffffffffffffff02191690836fffffffffffffffffffffffffffffffff1602179055508b600460106101000a8154816fffffffffffffffffffffffffffffffff02191690836fffffffffffffffffffffffffffffffff1602179055508a6006819055508c60055f6101000a8154816fffffffffffffffffffffffffffffffff02191690836fffffffffffffffffffffffffffffffff16021790555050505050505050505050505050505050505061141a565b5f805f9054906101000a900473ffffffffffffffffffffffffffffffffffffffff169050815f806101000a81548173ffffffffffffffffffffffffffffffffffffffff021916908373ffffffffffffffffffffffffffffffffffffffff1602179055508173ffffffffffffffffffffffffffffffffffffffff168173ffffffffffffffffffffffffffffffffffffffff167f8be0079c531659141344cd1fd0a4f28419497f9722a3daafe3b4186f6b6457e060405160405180910390a35050565b565b5f8173ffffffffffffffffffffffffffffffffffffffff1663313ce5676040518163ffffffff1660e01b8152600401602060405180830381865afa92505050801561091657506040513d601f19601f82011682018060405250810190610913919061128a565b60015b61094c576040517f6d1762b000000000000000000000000000000000000000000000000000000000815260040160405180910390fd5b80915050919050565b5f8060105f9054906101000a900473ffffffffffffffffffffffffffffffffffffffff1673ffffffffffffffffffffffffffffffffffffffff1663b2306010600f5f9054906101000a900473ffffffffffffffffffffffffffffffffffffffff166040518263ffffffff1660e01b81526004016109d29190610fd4565b602060405180830381865afa1580156109ed573d5f803e3d5ffd5b505050506040513d601f19601f82011682018060405250810190610a11919061130a565b90505f60105f9054906101000a900473ffffffffffffffffffffffffffffffffffffffff1673ffffffffffffffffffffffffffffffffffffffff16631443d5b0836040518263ffffffff1660e01b8152600401610a6e9190611344565b6040805180830381865afa158015610a88573d5f803e3d5ffd5b505050506040513d601f19601f82011682018060405250810190610aac91906113ae565b90508060200151815f015185610ac291906113d9565b610acc91906111f9565b92505050919050565b828054828255905f5260205f2090600101600290048101928215610b95579160200282015f5b83821115610b5757835183826101000a8154816fffffffffffffffffffffffffffffffff02191690836fffffffffffffffffffffffffffffffff1602179055509260200192601001602081600f01049283019260010302610afb565b8015610b935782816101000a8154906fffffffffffffffffffffffffffffffff0219169055601001602081600f01049283019260010302610b57565b505b509050610ba29190610ba6565b5090565b5b80821115610bbd575f815f905550600101610ba7565b5090565b5f604051905090565b5f80fd5b5f80fd5b5f73ffffffffffffffffffffffffffffffffffffffff82169050919050565b5f610bfb82610bd2565b9050919050565b610c0b81610bf1565b8114610c15575f80fd5b50565b5f81519050610c2681610c02565b92915050565b5f6fffffffffffffffffffffffffffffffff82169050919050565b610c5081610c2c565b8114610c5a575f80fd5b50565b5f81519050610c6b81610c47565b92915050565b5f819050919050565b610c8381610c71565b8114610c8d575f80fd5b50565b5f81519050610c9e81610c7a565b92915050565b5f80fd5b5f601f19601f8301169050919050565b7f4e487b71000000000000000000000000000000000000000000000000000000005f52604160045260245ffd5b610cee82610ca8565b810181811067ffffffffffffffff82111715610d0d57610d0c610cb8565b5b80604052505050565b5f610d1f610bc1565b9050610d2b8282610ce5565b919050565b5f67ffffffffffffffff821115610d4a57610d49610cb8565b5b602082029050602081019050919050565b5f80fd5b5f610d71610d6c84610d30565b610d16565b90508083825260208201905060208402830185811115610d9457610d93610d5b565b5b835b81811015610dbd5780610da98882610c5d565b845260208401935050602081019050610d96565b5050509392505050565b5f82601f830112610ddb57610dda610ca4565b5b8151610deb848260208601610d5f565b91505092915050565b5f67ffffffffffffffff821115610e0e57610e0d610cb8565b5b602082029050602081019050919050565b5f610e31610e2c84610df4565b610d16565b90508083825260208201905060208402830185811115610e5457610e53610d5b565b5b835b81811015610e7d5780610e698882610c90565b845260208401935050602081019050610e56565b5050509392505050565b5f82601f830112610e9b57610e9a610ca4565b5b8151610eab848260208601610e1f565b91505092915050565b5f805f805f805f805f806101408b8d031215610ed357610ed2610bca565b5b5f610ee08d828e01610c18565b9a50506020610ef18d828e01610c18565b9950506040610f028d828e01610c18565b9850506060610f138d828e01610c18565b9750506080610f248d828e01610c18565b96505060a0610f358d828e01610c5d565b95505060c0610f468d828e01610c5d565b94505060e0610f578d828e01610c90565b9350506101008b015167ffffffffffffffff811115610f7957610f78610bce565b5b610f858d828e01610dc7565b9250506101208b015167ffffffffffffffff811115610fa757610fa6610bce565b5b610fb38d828e01610e87565b9150509295989b9194979a5092959850565b610fce81610bf1565b82525050565b5f602082019050610fe75f830184610fc5565b92915050565b7f4e487b71000000000000000000000000000000000000000000000000000000005f52603260045260245ffd5b7f4e487b71000000000000000000000000000000000000000000000000000000005f52601160045260245ffd5b5f8160011c9050919050565b5f808291508390505b600185111561109c578086048111156110785761107761101a565b5b60018516156110875780820291505b808102905061109585611047565b945061105c565b94509492505050565b5f826110b4576001905061116f565b816110c1575f905061116f565b81600181146110d757600281146110e157611110565b600191505061116f565b60ff8411156110f3576110f261101a565b5b8360020a91508482111561110a5761110961101a565b5b5061116f565b5060208310610133831016604e8410600b84101617156111455782820a9050838111156111405761113f61101a565b5b61116f565b6111528484846001611053565b925090508184048111156111695761116861101a565b5b81810290505b9392505050565b5f60ff82169050919050565b5f61118c82610c71565b915061119783611176565b92506111c47fffffffffffffffffffffffffffffffffffffffffffffffffffffffffffffffff84846110a5565b905092915050565b7f4e487b71000000000000000000000000000000000000000000000000000000005f52601260045260245ffd5b5f61120382610c71565b915061120e83610c71565b92508261121e5761121d6111cc565b5b828204905092915050565b5f61123382610c2c565b91506fffffffffffffffffffffffffffffffff82036112555761125461101a565b5b600182019050919050565b61126981611176565b8114611273575f80fd5b50565b5f8151905061128481611260565b92915050565b5f6020828403121561129f5761129e610bca565b5b5f6112ac84828501611276565b91505092915050565b5f7fffff00000000000000000000000000000000000000000000000000000000000082169050919050565b6112e9816112b5565b81146112f3575f80fd5b50565b5f81519050611304816112e0565b92915050565b5f6020828403121561131f5761131e610bca565b5b5f61132c848285016112f6565b91505092915050565b61133e816112b5565b82525050565b5f6020820190506113575f830184611335565b92915050565b5f80fd5b5f604082840312156113765761137561135d565b5b6113806040610d16565b90505f61138f84828501610c90565b5f8301525060206113a284828501610c90565b60208301525092915050565b5f604082840312156113c3576113c2610bca565b5b5f6113d084828501611361565b91505092915050565b5f6113e382610c71565b91506113ee83610c71565b92508282026113fc81610c71565b915082820484148315176114135761141261101a565b5b5092915050565b60805160a0516141736114ce5f395f8181610a9c01528181610ac801528181610f6f015281816110dc01528181611108015281816112630152818161128f0152818161191f0152818161194b0152818161227b0152818161292901528181612b830152612fdf01525f8181610b8701528181610c3401528181611370015281816113ef015281816115ec01528181611bef01528181611d0d0152818161241c015281816134f7015261365801526141735ff3fe608060405234801561000f575f80fd5b50600436106102b9575f3560e01c80638456cb5911610180578063ab7302bb116100e7578063bfc55b8a116100a0578063ef4cadc51161007a578063ef4cadc5146107dd578063f2fde38b146107fb578063f73a8b5c14610817578063fce88e6f14610835576102b9565b8063bfc55b8a14610783578063c0a77da9146107a1578063d065cf8e146107bf576102b9565b8063ab7302bb146106d3578063b1f0af1b146106dd578063b64a025e146106fb578063b66a72df14610717578063b87a6aeb14610735578063bb8afc7b14610765576102b9565b806399dc03901161013957806399dc0390146106375780639b4f8321146106555780639c8aea9014610673578063a694fc3a1461067d578063a748afb014610699578063aac9ce5c146106b7576102b9565b80638456cb591461057257806384d38d481461057c5780638da5cb5b1461059a5780638e70fa8c146105b85780639168ae72146105d6578063976251e614610607576102b9565b8063544c2d761161022457806372cacb70116101dd57806372cacb70146104c257806372e48cf3146104e05780637950ea7e146104ea5780637d334107146104f457806380729f171461052457806381cadea014610554576102b9565b8063544c2d761461040d5780635bf0fa891461042b5780635c975abb1461045b57806360246c88146104795780636cf568461461049a578063715018a6146104b8576102b9565b806333d8773d1161027657806333d8773d1461036d5780633f4ba83a1461038b57806348cd4cb1146103955780634b60ce77146103b35780634f7ff503146103d1578063534a9d00146103ef576102b9565b8063018bcf5c146102bd5780630417cf8e146102d957806306508ebc146102f7578063083c632314610315578063129989a3146103335780632e17de7814610351575b5f80fd5b6102d760048036038101906102d29190613a63565b610854565b005b6102e161099a565b6040516102ee9190613aa6565b60405180910390f35b6102ff61099f565b60405161030c9190613ae9565b60405180910390f35b61031d6109c0565b60405161032a9190613ae9565b60405180910390f35b61033b6109e2565b6040516103489190613b11565b60405180910390f35b61036b60048036038101906103669190613b54565b610a07565b005b610375610d92565b6040516103829190613aa6565b60405180910390f35b610393610d98565b005b61039d610e28565b6040516103aa9190613ae9565b60405180910390f35b6103bb610e49565b6040516103c89190613bda565b60405180910390f35b6103d9610e6e565b6040516103e69190613aa6565b60405180910390f35b6103f7610e74565b6040516104049190613aa6565b60405180910390f35b610415610f13565b6040516104229190613aa6565b60405180910390f35b61044560048036038101906104409190613b54565b610f19565b6040516104529190613aa6565b60405180910390f35b610463610fc4565b6040516104709190613c0d565b60405180910390f35b610481610fd9565b6040516104919493929190613c26565b60405180910390f35b6104a2611038565b6040516104af9190613c89565b60405180910390f35b6104c061105d565b005b6104ca611070565b6040516104d79190613aa6565b60405180910390f35b6104e8611081565b005b6104f2611208565b005b61050e60048036038101906105099190613a63565b61152b565b60405161051b9190613aa6565b60405180910390f35b61053e60048036038101906105399190613a63565b611573565b60405161054b9190613aa6565b60405180910390f35b61055c61164b565b6040516105699190613aa6565b60405180910390f35b61057a611651565b005b6105846116e1565b6040516105919190613ae9565b60405180910390f35b6105a2611703565b6040516105af9190613b11565b60405180910390f35b6105c061172a565b6040516105cd9190613bda565b60405180910390f35b6105f060048036038101906105eb9190613a63565b61174f565b6040516105fe929190613ca2565b60405180910390f35b610621600480360381019061061c9190613b54565b61176f565b60405161062e9190613ae9565b60405180910390f35b61063f6117b2565b60405161064c9190613bda565b60405180910390f35b61065d6117d7565b60405161066a9190613aa6565b60405180910390f35b61067b6117dd565b005b61069760048036038101906106929190613b54565b611a55565b005b6106a1611dab565b6040516106ae9190613aa6565b60405180910390f35b6106d160048036038101906106cc9190613a63565b611db1565b005b6106db611e7a565b005b6106e5612029565b6040516106f29190613ae9565b60405180910390f35b61071560048036038101906107109190613b54565b61204b565b005b61071f61225e565b60405161072c9190613aa6565b60405180910390f35b61074f600480360381019061074a9190613cf3565b612264565b60405161075c9190613aa6565b60405180910390f35b61076d612279565b60405161077a9190613aa6565b60405180910390f35b61078b61229d565b6040516107989190613ae9565b60405180910390f35b6107a96122be565b6040516107b69190613aa6565b60405180910390f35b6107c7612408565b6040516107d49190613c0d565b60405180910390f35b6107e561241a565b6040516107f29190613aa6565b60405180910390f35b61081560048036038101906108109190613a63565b61243e565b005b61081f6124c2565b60405161082c9190613aa6565b60405180910390f35b61083d612561565b60405161084b929190613ca2565b60405180910390f35b61085c612571565b80600d5f9054906101000a900473ffffffffffffffffffffffffffffffffffffffff1673ffffffffffffffffffffffffffffffffffffffff168173ffffffffffffffffffffffffffffffffffffffff16036108e3576040517fdad2afd700000000000000000000000000000000000000000000000000000000815260040160405180910390fd5b5f8290505f8173ffffffffffffffffffffffffffffffffffffffff166370a08231306040518263ffffffff1660e01b81526004016109219190613b11565b602060405180830381865afa15801561093c573d5f803e3d5ffd5b505050506040513d601f19601f820116820180604052508101906109609190613d32565b905061099461096d611703565b828473ffffffffffffffffffffffffffffffffffffffff166125f89092919063ffffffff16565b50505050565b601e81565b60145f9054906101000a90046fffffffffffffffffffffffffffffffff1681565b600460109054906101000a90046fffffffffffffffffffffffffffffffff1681565b600a5f9054906101000a900473ffffffffffffffffffffffffffffffffffffffff1681565b805f8103610a41576040517f0f43956a00000000000000000000000000000000000000000000000000000000815260040160405180910390fd5b610a49612677565b610a516126b8565b5f601354148015610a915750600460109054906101000a90046fffffffffffffffffffffffffffffffff166fffffffffffffffffffffffffffffffff1643115b15610aee575f610ac07f00000000000000000000000000000000000000000000000000000000000000006126fe565b9050610aec817f000000000000000000000000000000000000000000000000000000000000000061287e565b505b5f610af7612ad7565b90505f60115f8373ffffffffffffffffffffffffffffffffffffffff1673ffffffffffffffffffffffffffffffffffffffff1681526020019081526020015f206040518060400160405290815f820154815260200160018201548152505090505f610b628286612ade565b9050610b71825f01518661287e565b610b79612c5a565b5f60035490505f83602001517f000000000000000000000000000000000000000000000000000000000000000083865f0151610bb59190613d8a565b610bbf9190613df8565b610bc99190613e28565b90505f811115610c2057610c1f3382600d5f9054906101000a900473ffffffffffffffffffffffffffffffffffffffff1673ffffffffffffffffffffffffffffffffffffffff166125f89092919063ffffffff16565b5b5f83855f0151610c309190613e28565b90507f00000000000000000000000000000000000000000000000000000000000000008382610c5f9190613d8a565b610c699190613df8565b85602001818152505080855f0181815250508360085f828254610c8c9190613e28565b925050819055508460115f8873ffffffffffffffffffffffffffffffffffffffff1673ffffffffffffffffffffffffffffffffffffffff1681526020019081526020015f205f820151815f0155602082015181600101559050508573ffffffffffffffffffffffffffffffffffffffff167f0f5bb82176feb1b5e747e28471aa92156a04d9f3ab9f45f28e2d704232b93f7589604051610d2c9190613aa6565b60405180910390a2610d808689600e5f9054906101000a900473ffffffffffffffffffffffffffffffffffffffff1673ffffffffffffffffffffffffffffffffffffffff166125f89092919063ffffffff16565b505050505050610d8e612d4c565b5050565b60035481565b600a5f9054906101000a900473ffffffffffffffffffffffffffffffffffffffff1673ffffffffffffffffffffffffffffffffffffffff163373ffffffffffffffffffffffffffffffffffffffff1614610e1e576040517fd4d7478300000000000000000000000000000000000000000000000000000000815260040160405180910390fd5b610e26612d55565b565b60045f9054906101000a90046fffffffffffffffffffffffffffffffff1681565b600d5f9054906101000a900473ffffffffffffffffffffffffffffffffffffffff1681565b60075481565b5f600e5f9054906101000a900473ffffffffffffffffffffffffffffffffffffffff1673ffffffffffffffffffffffffffffffffffffffff166370a08231306040518263ffffffff1660e01b8152600401610ecf9190613b11565b602060405180830381865afa158015610eea573d5f803e3d5ffd5b505050506040513d601f19601f82011682018060405250810190610f0e9190613d32565b905090565b60085481565b5f600460109054906101000a90046fffffffffffffffffffffffffffffffff166fffffffffffffffffffffffffffffffff164311610f6157610f5a82612db6565b9050610fa7565b5f610f6a612f36565b9050807f000000000000000000000000000000000000000000000000000000000000000084610f999190613d8a565b610fa39190613df8565b9150505b5f610fb0610e74565b905080821115610fbe578091505b50919050565b5f60025f9054906101000a900460ff16905090565b5f805f8060045f9054906101000a90046fffffffffffffffffffffffffffffffff16600460109054906101000a90046fffffffffffffffffffffffffffffffff166110226124c2565b61102a6122be565b935093509350935090919293565b60105f9054906101000a900473ffffffffffffffffffffffffffffffffffffffff1681565b611065612571565b61106e5f6130fa565b565b6c0c9f2c9cd04674edea4000000081565b611089612571565b6110916126b8565b5f6013541480156110d15750600460109054906101000a90046fffffffffffffffffffffffffffffffff166fffffffffffffffffffffffffffffffff1643115b1561112e575f6111007f00000000000000000000000000000000000000000000000000000000000000006126fe565b905061112c817f000000000000000000000000000000000000000000000000000000000000000061287e565b505b5f806111386131bb565b9150915061118f611147611703565b83600e5f9054906101000a900473ffffffffffffffffffffffffffffffffffffffff1673ffffffffffffffffffffffffffffffffffffffff166125f89092919063ffffffff16565b6111fc600a5f9054906101000a900473ffffffffffffffffffffffffffffffffffffffff1682600e5f9054906101000a900473ffffffffffffffffffffffffffffffffffffffff1673ffffffffffffffffffffffffffffffffffffffff166125f89092919063ffffffff16565b5050611206612d4c565b565b611210612677565b6112186126b8565b5f6013541480156112585750600460109054906101000a90046fffffffffffffffffffffffffffffffff166fffffffffffffffffffffffffffffffff1643115b156112b5575f6112877f00000000000000000000000000000000000000000000000000000000000000006126fe565b90506112b3817f000000000000000000000000000000000000000000000000000000000000000061287e565b505b5f6112be612ad7565b90505f60115f8373ffffffffffffffffffffffffffffffffffffffff1673ffffffffffffffffffffffffffffffffffffffff1681526020019081526020015f206040518060400160405290815f820154815260200160018201548152505090505f815f01510361135a576040517f0f43956a00000000000000000000000000000000000000000000000000000000815260040160405180910390fd5b611362612c5a565b5f60035490505f82602001517f000000000000000000000000000000000000000000000000000000000000000083855f015161139e9190613d8a565b6113a89190613df8565b6113b29190613e28565b90505f81036113ed576040517f0f43956a00000000000000000000000000000000000000000000000000000000815260040160405180910390fd5b7f000000000000000000000000000000000000000000000000000000000000000082845f015161141d9190613d8a565b6114279190613df8565b8360200181815250508260115f8673ffffffffffffffffffffffffffffffffffffffff1673ffffffffffffffffffffffffffffffffffffffff1681526020019081526020015f205f820151815f0155602082015181600101559050506114cf8482600d5f9054906101000a900473ffffffffffffffffffffffffffffffffffffffff1673ffffffffffffffffffffffffffffffffffffffff166125f89092919063ffffffff16565b8373ffffffffffffffffffffffffffffffffffffffff167fda8a33b1852650a10f5393ae95d54ebfcb4e7e0fc67db151fd88babe81c7d887826040516115159190613aa6565b60405180910390a250505050611529612d4c565b565b5f60115f8373ffffffffffffffffffffffffffffffffffffffff1673ffffffffffffffffffffffffffffffffffffffff1681526020019081526020015f205f01549050919050565b5f8060115f8473ffffffffffffffffffffffffffffffffffffffff1673ffffffffffffffffffffffffffffffffffffffff1681526020019081526020015f206040518060400160405290815f820154815260200160018201548152505090505f815f0151036115e5575f915050611646565b80602001517f000000000000000000000000000000000000000000000000000000000000000061161361330b565b6003546116209190613e5b565b835f015161162e9190613d8a565b6116389190613df8565b6116429190613e28565b9150505b919050565b60065481565b600a5f9054906101000a900473ffffffffffffffffffffffffffffffffffffffff1673ffffffffffffffffffffffffffffffffffffffff163373ffffffffffffffffffffffffffffffffffffffff16146116d7576040517fd4d7478300000000000000000000000000000000000000000000000000000000815260040160405180910390fd5b6116df6136b3565b565b600560109054906101000a90046fffffffffffffffffffffffffffffffff1681565b5f805f9054906101000a900473ffffffffffffffffffffffffffffffffffffffff16905090565b600f5f9054906101000a900473ffffffffffffffffffffffffffffffffffffffff1681565b6011602052805f5260405f205f91509050805f0154908060010154905082565b600c818154811061177e575f80fd5b905f5260205f209060029182820401919006601002915054906101000a90046fffffffffffffffffffffffffffffffff1681565b600e5f9054906101000a900473ffffffffffffffffffffffffffffffffffffffff1681565b60125481565b600a5f9054906101000a900473ffffffffffffffffffffffffffffffffffffffff1673ffffffffffffffffffffffffffffffffffffffff163373ffffffffffffffffffffffffffffffffffffffff1614611863576040517fd4d7478300000000000000000000000000000000000000000000000000000000815260040160405180910390fd5b600460109054906101000a90046fffffffffffffffffffffffffffffffff166fffffffffffffffffffffffffffffffff1643116118cc576040517fc00b64a100000000000000000000000000000000000000000000000000000000815260040160405180910390fd5b6118d46126b8565b5f6013541480156119145750600460109054906101000a90046fffffffffffffffffffffffffffffffff166fffffffffffffffffffffffffffffffff1643115b15611971575f6119437f00000000000000000000000000000000000000000000000000000000000000006126fe565b905061196f817f000000000000000000000000000000000000000000000000000000000000000061287e565b505b60155f9054906101000a900460ff16156119b7576040517fdac5eb0f00000000000000000000000000000000000000000000000000000000815260040160405180910390fd5b600160155f6101000a81548160ff0219169083151502179055505f6119da6131bb565b915050611a4a600a5f9054906101000a900473ffffffffffffffffffffffffffffffffffffffff1682600e5f9054906101000a900473ffffffffffffffffffffffffffffffffffffffff1673ffffffffffffffffffffffffffffffffffffffff166125f89092919063ffffffff16565b50611a53612d4c565b565b805f8103611a8f576040517f0f43956a00000000000000000000000000000000000000000000000000000000815260040160405180910390fd5b60045f9054906101000a90046fffffffffffffffffffffffffffffffff166fffffffffffffffffffffffffffffffff16431080611afb5750600460109054906101000a90046fffffffffffffffffffffffffffffffff166fffffffffffffffffffffffffffffffff1643115b15611b32576040517fa2255c1700000000000000000000000000000000000000000000000000000000815260040160405180910390fd5b611b3a612677565b611b426126b8565b600654821115611b7e576040517f2b5dea7500000000000000000000000000000000000000000000000000000000815260040160405180910390fd5b5f60115f3373ffffffffffffffffffffffffffffffffffffffff1673ffffffffffffffffffffffffffffffffffffffff1681526020019081526020015f2090505f611bc8846126fe565b9050611bd4818561287e565b611bdc612c5a565b5f825f01541115611c8c575f82600101547f0000000000000000000000000000000000000000000000000000000000000000600354855f0154611c1f9190613d8a565b611c299190613df8565b611c339190613e28565b90505f811115611c8a57611c893382600d5f9054906101000a900473ffffffffffffffffffffffffffffffffffffffff1673ffffffffffffffffffffffffffffffffffffffff166125f89092919063ffffffff16565b5b505b80825f015f828254611c9e9190613e5b565b925050819055508060085f828254611cb69190613e5b565b92505081905550611d0b333086600e5f9054906101000a900473ffffffffffffffffffffffffffffffffffffffff1673ffffffffffffffffffffffffffffffffffffffff16613715909392919063ffffffff16565b7f0000000000000000000000000000000000000000000000000000000000000000600354835f0154611d3d9190613d8a565b611d479190613df8565b82600101819055503373ffffffffffffffffffffffffffffffffffffffff167f9e71bc8eea02a63969f509818f2dafb9254532904319f9dbda79b67bd34a5f3d85604051611d959190613aa6565b60405180910390a25050611da7612d4c565b5050565b60095481565b600a5f9054906101000a900473ffffffffffffffffffffffffffffffffffffffff1673ffffffffffffffffffffffffffffffffffffffff163373ffffffffffffffffffffffffffffffffffffffff1614611e37576040517fd4d7478300000000000000000000000000000000000000000000000000000000815260040160405180910390fd5b8060105f6101000a81548173ffffffffffffffffffffffffffffffffffffffff021916908373ffffffffffffffffffffffffffffffffffffffff16021790555050565b611e82612571565b600460109054906101000a90046fffffffffffffffffffffffffffffffff166fffffffffffffffffffffffffffffffff164311611eeb576040517fc00b64a100000000000000000000000000000000000000000000000000000000815260040160405180910390fd5b5f600d5f9054906101000a900473ffffffffffffffffffffffffffffffffffffffff1673ffffffffffffffffffffffffffffffffffffffff166370a08231306040518263ffffffff1660e01b8152600401611f469190613b11565b602060405180830381865afa158015611f61573d5f803e3d5ffd5b505050506040513d601f19601f82011682018060405250810190611f859190613d32565b9050611fd33382600d5f9054906101000a900473ffffffffffffffffffffffffffffffffffffffff1673ffffffffffffffffffffffffffffffffffffffff166125f89092919063ffffffff16565b612026611fde611703565b82600d5f9054906101000a900473ffffffffffffffffffffffffffffffffffffffff1673ffffffffffffffffffffffffffffffffffffffff166125f89092919063ffffffff16565b50565b601460109054906101000a90046fffffffffffffffffffffffffffffffff1681565b805f8103612085576040517f0f43956a00000000000000000000000000000000000000000000000000000000815260040160405180910390fd5b61208d6126b8565b5f612096612ad7565b90505f60115f8373ffffffffffffffffffffffffffffffffffffffff1673ffffffffffffffffffffffffffffffffffffffff1681526020019081526020015f206040518060400160405290815f820154815260200160018201548152505090505f6121018286612ade565b9050612110825f01518661287e565b612118612c5a565b80825f018181516121299190613e28565b91508181525050600354825f01516121419190613d8a565b8260200181815250508060085f82825461215b9190613e28565b925050819055508160115f8573ffffffffffffffffffffffffffffffffffffffff1673ffffffffffffffffffffffffffffffffffffffff1681526020019081526020015f205f820151815f0155602082015181600101559050503373ffffffffffffffffffffffffffffffffffffffff167f0f5bb82176feb1b5e747e28471aa92156a04d9f3ab9f45f28e2d704232b93f75866040516121fb9190613aa6565b60405180910390a261224f3386600e5f9054906101000a900473ffffffffffffffffffffffffffffffffffffffff1673ffffffffffffffffffffffffffffffffffffffff166125f89092919063ffffffff16565b50505061225a612d4c565b5050565b60135481565b600b602052805f5260405f205f915090505481565b7f000000000000000000000000000000000000000000000000000000000000000081565b60055f9054906101000a90046fffffffffffffffffffffffffffffffff1681565b5f600460109054906101000a90046fffffffffffffffffffffffffffffffff166fffffffffffffffffffffffffffffffff1643106122fe575f9050612405565b5f4390505f80600c8054905090505f60095490505b818110156123fd57600c818154811061232f5761232e613e8e565b5b905f5260205f2090600291828204019190066010029054906101000a90046fffffffffffffffffffffffffffffffff166fffffffffffffffffffffffffffffffff1684106123fd57600b5f600c838154811061238e5761238d613e8e565b5b905f5260205f2090600291828204019190066010029054906101000a90046fffffffffffffffffffffffffffffffff166fffffffffffffffffffffffffffffffff166fffffffffffffffffffffffffffffffff1681526020019081526020015f20549250806001019050612313565b508193505050505b90565b60155f9054906101000a900460ff1681565b7f000000000000000000000000000000000000000000000000000000000000000081565b612446612571565b5f73ffffffffffffffffffffffffffffffffffffffff168173ffffffffffffffffffffffffffffffffffffffff16036124b6575f6040517f1e4fbdf70000000000000000000000000000000000000000000000000000000081526004016124ad9190613b11565b60405180910390fd5b6124bf816130fa565b50565b5f600d5f9054906101000a900473ffffffffffffffffffffffffffffffffffffffff1673ffffffffffffffffffffffffffffffffffffffff166370a08231306040518263ffffffff1660e01b815260040161251d9190613b11565b602060405180830381865afa158015612538573d5f803e3d5ffd5b505050506040513d601f19601f8201168201806040525081019061255c9190613d32565b905090565b5f80600654600754915091509091565b612579612ad7565b73ffffffffffffffffffffffffffffffffffffffff16612597611703565b73ffffffffffffffffffffffffffffffffffffffff16146125f6576125ba612ad7565b6040517f118cdaa70000000000000000000000000000000000000000000000000000000081526004016125ed9190613b11565b60405180910390fd5b565b612672838473ffffffffffffffffffffffffffffffffffffffff1663a9059cbb858560405160240161262b929190613ebb565b604051602081830303815290604052915060e01b6020820180517bffffffffffffffffffffffffffffffffffffffffffffffffffffffff8381831617835250505050613797565b505050565b61267f610fc4565b156126b6576040517fd93c066500000000000000000000000000000000000000000000000000000000815260040160405180910390fd5b565b6002600154036126f4576040517f3ee5aeb500000000000000000000000000000000000000000000000000000000815260040160405180910390fd5b6002600181905550565b5f8060105f9054906101000a900473ffffffffffffffffffffffffffffffffffffffff1673ffffffffffffffffffffffffffffffffffffffff1663b2306010600f5f9054906101000a900473ffffffffffffffffffffffffffffffffffffffff166040518263ffffffff1660e01b815260040161277b9190613b11565b602060405180830381865afa158015612796573d5f803e3d5ffd5b505050506040513d601f19601f820116820180604052508101906127ba9190613f37565b90505f60105f9054906101000a900473ffffffffffffffffffffffffffffffffffffffff1673ffffffffffffffffffffffffffffffffffffffff16631443d5b0836040518263ffffffff1660e01b81526004016128179190613f71565b6040805180830381865afa158015612831573d5f803e3d5ffd5b505050506040513d601f19601f820116820180604052508101906128559190614063565b90508060200151815f01518561286b9190613d8a565b6128759190613df8565b92505050919050565b5f4390505f601460109054906101000a90046fffffffffffffffffffffffffffffffff166fffffffffffffffffffffffffffffffff16826128bf9190613e28565b90505f81036128cf575050612ad3565b5f600460109054906101000a90046fffffffffffffffffffffffffffffffff166fffffffffffffffffffffffffffffffff16831190505f806013541190508180156129175750805b156129255750505050612ad3565b5f857f0000000000000000000000000000000000000000000000000000000000000000886129539190613d8a565b61295d9190613df8565b90506012548111612972575050505050612ad3565b5f601254826129819190613e28565b90505f85826129909190613df8565b9050846129d8578260128190555086601460106101000a8154816fffffffffffffffffffffffffffffffff02191690836fffffffffffffffffffffffffffffffff1602179055505b60145f9054906101000a90046fffffffffffffffffffffffffffffffff166fffffffffffffffffffffffffffffffff1681600160145f9054906101000a90046fffffffffffffffffffffffffffffffff16612a33919061408e565b6fffffffffffffffffffffffffffffffff16601354612a529190613d8a565b612a5c9190613e5b565b612a669190613df8565b60138190555060145f81819054906101000a90046fffffffffffffffffffffffffffffffff16612a95906140d1565b91906101000a8154816fffffffffffffffffffffffffffffffff02191690836fffffffffffffffffffffffffffffffff160217905550505050505050505b5050565b5f33905090565b5f80835f015103612b1b576040517f0f43956a00000000000000000000000000000000000000000000000000000000815260040160405180910390fd5b600460109054906101000a90046fffffffffffffffffffffffffffffffff166fffffffffffffffffffffffffffffffff16431115612bc1575f60135403612b7657612b65826126fe565b9050612b71818361287e565b612bbc565b5f612b7f612f36565b90507f00000000000000000000000000000000000000000000000000000000000000008184612bae9190613d8a565b612bb89190613df8565b9150505b612bcd565b612bca826126fe565b90505b5f612bda845f0151610f19565b905082811015612c16576040517f3455ae2800000000000000000000000000000000000000000000000000000000815260040160405180910390fd5b81845f01511015612c53576040517f42a83c8400000000000000000000000000000000000000000000000000000000815260040160405180910390fd5b5092915050565b5f43905060055f9054906101000a90046fffffffffffffffffffffffffffffffff166fffffffffffffffffffffffffffffffff168103612c9a5750612d4a565b5f60085403612ce9574360055f6101000a8154816fffffffffffffffffffffffffffffffff02191690836fffffffffffffffffffffffffffffffff160217905550612ce3613832565b50612d4a565b612cf161330b565b60035f828254612d019190613e5b565b925050819055508060055f6101000a8154816fffffffffffffffffffffffffffffffff02191690836fffffffffffffffffffffffffffffffff160217905550612d48613832565b505b565b60018081905550565b612d5d6138ed565b5f60025f6101000a81548160ff0219169083151502179055507f5db9ee0a495bf2e6ff9c91a7834c1ba4fdd244a5e8aa4e537bd38aeae4b073aa612d9f612ad7565b604051612dac9190613b11565b60405180910390a1565b5f8060105f9054906101000a900473ffffffffffffffffffffffffffffffffffffffff1673ffffffffffffffffffffffffffffffffffffffff1663b2306010600f5f9054906101000a900473ffffffffffffffffffffffffffffffffffffffff166040518263ffffffff1660e01b8152600401612e339190613b11565b602060405180830381865afa158015612e4e573d5f803e3d5ffd5b505050506040513d601f19601f82011682018060405250810190612e729190613f37565b90505f60105f9054906101000a900473ffffffffffffffffffffffffffffffffffffffff1673ffffffffffffffffffffffffffffffffffffffff16631443d5b0836040518263ffffffff1660e01b8152600401612ecf9190613f71565b6040805180830381865afa158015612ee9573d5f803e3d5ffd5b505050506040513d601f19601f82011682018060405250810190612f0d9190614063565b9050805f0151816020015185612f239190613d8a565b612f2d9190613df8565b92505050919050565b5f80601460109054906101000a90046fffffffffffffffffffffffffffffffff16600460109054906101000a90046fffffffffffffffffffffffffffffffff16612f80919061408e565b6fffffffffffffffffffffffffffffffff169050600460109054906101000a90046fffffffffffffffffffffffffffffffff166fffffffffffffffffffffffffffffffff1643118015612fd457505f601354145b156130d8575f6130037f00000000000000000000000000000000000000000000000000000000000000006126fe565b90505f601460109054906101000a90046fffffffffffffffffffffffffffffffff166fffffffffffffffffffffffffffffffff16436130429190613e28565b601254836130509190613e28565b61305a9190613df8565b9050601460109054906101000a90046fffffffffffffffffffffffffffffffff16600460109054906101000a90046fffffffffffffffffffffffffffffffff166130a4919061408e565b6fffffffffffffffffffffffffffffffff16816130c19190613d8a565b6012546130ce9190613e5b565b93505050506130f7565b806013546130e69190613d8a565b6012546130f39190613e5b565b9150505b90565b5f805f9054906101000a900473ffffffffffffffffffffffffffffffffffffffff169050815f806101000a81548173ffffffffffffffffffffffffffffffffffffffff021916908373ffffffffffffffffffffffffffffffffffffffff1602179055508173ffffffffffffffffffffffffffffffffffffffff168173ffffffffffffffffffffffffffffffffffffffff167f8be0079c531659141344cd1fd0a4f28419497f9722a3daafe3b4186f6b6457e060405160405180910390a35050565b5f805f600e5f9054906101000a900473ffffffffffffffffffffffffffffffffffffffff1673ffffffffffffffffffffffffffffffffffffffff166370a08231306040518263ffffffff1660e01b81526004016132189190613b11565b602060405180830381865afa158015613233573d5f803e3d5ffd5b505050506040513d601f19601f820116820180604052508101906132579190613d32565b90505f810361326c575f809250925050613307565b5f613278600854610f19565b90505f81836132879190613e28565b905060155f9054906101000a900460ff16156132ab57805f94509450505050613307565b6064600560109054906101000a90046fffffffffffffffffffffffffffffffff166fffffffffffffffffffffffffffffffff16826132e99190613d8a565b6132f39190613df8565b945084816133019190613e28565b93505050505b9091565b5f806008540361331d575f90506136b0565b5f4390505f60055f9054906101000a90046fffffffffffffffffffffffffffffffff1690505f80600c8054905090505f8060095490505b8281101561355657600c81815481106133705761336f613e8e565b5b905f5260205f2090600291828204019190066010029054906101000a90046fffffffffffffffffffffffffffffffff16935085846fffffffffffffffffffffffffffffffff16101561355657846fffffffffffffffffffffffffffffffff16846fffffffffffffffffffffffffffffffff161115613549575f613417866fffffffffffffffffffffffffffffffff16866fffffffffffffffffffffffffffffffff1661392d565b90505f600b5f80851461347957600c6001866134339190613e28565b8154811061344457613443613e8e565b5b905f5260205f2090600291828204019190066010029054906101000a90046fffffffffffffffffffffffffffffffff166134be565b600c5f8154811061348d5761348c613e8e565b5b905f5260205f2090600291828204019190066010029054906101000a90046fffffffffffffffffffffffffffffffff165b6fffffffffffffffffffffffffffffffff166fffffffffffffffffffffffffffffffff1681526020019081526020015f205490506008547f000000000000000000000000000000000000000000000000000000000000000083836135229190613d8a565b61352c9190613d8a565b6135369190613df8565b846135419190613e5b565b935085965050505b8080600101915050613354565b5f613573866fffffffffffffffffffffffffffffffff168861392d565b90505f87866fffffffffffffffffffffffffffffffff16111561361a57600b5f600c6001866135a29190613e28565b815481106135b3576135b2613e8e565b5b905f5260205f2090600291828204019190066010029054906101000a90046fffffffffffffffffffffffffffffffff166fffffffffffffffffffffffffffffffff166fffffffffffffffffffffffffffffffff1681526020019081526020015f2054613651565b600b5f876fffffffffffffffffffffffffffffffff166fffffffffffffffffffffffffffffffff1681526020019081526020015f20545b90506008547f000000000000000000000000000000000000000000000000000000000000000083836136839190613d8a565b61368d9190613d8a565b6136979190613df8565b846136a29190613e5b565b935083985050505050505050505b90565b6136bb612677565b600160025f6101000a81548160ff0219169083151502179055507f62e78cea01bee320cd4e420270b5ea74000d11b0c9f74754ebdbfc544b05a2586136fe612ad7565b60405161370b9190613b11565b60405180910390a1565b613791848573ffffffffffffffffffffffffffffffffffffffff166323b872dd86868660405160240161374a93929190614108565b604051602081830303815290604052915060e01b6020820180517bffffffffffffffffffffffffffffffffffffffffffffffffffffffff8381831617835250505050613797565b50505050565b5f8060205f8451602086015f885af1806137b6576040513d5f823e3d81fd5b3d92505f519150505f82146137cf5760018114156137ea565b5f8473ffffffffffffffffffffffffffffffffffffffff163b145b1561382c57836040517f5274afe70000000000000000000000000000000000000000000000000000000081526004016138239190613b11565b60405180910390fd5b50505050565b5f600c8054905090505f60095490505b818110156138e95760055f9054906101000a90046fffffffffffffffffffffffffffffffff166fffffffffffffffffffffffffffffffff16600c828154811061388e5761388d613e8e565b5b905f5260205f2090600291828204019190066010029054906101000a90046fffffffffffffffffffffffffffffffff166fffffffffffffffffffffffffffffffff16116138e957806009819055508080600101915050613842565b5050565b6138f5610fc4565b61392b576040517f8dfc202b00000000000000000000000000000000000000000000000000000000815260040160405180910390fd5b565b5f600460109054906101000a90046fffffffffffffffffffffffffffffffff166fffffffffffffffffffffffffffffffff1682116139785782826139719190613e28565b90506139f6565b600460109054906101000a90046fffffffffffffffffffffffffffffffff166fffffffffffffffffffffffffffffffff1683106139b7575f90506139f6565b82600460109054906101000a90046fffffffffffffffffffffffffffffffff166fffffffffffffffffffffffffffffffff166139f39190613e28565b90505b92915050565b5f604051905090565b5f80fd5b5f73ffffffffffffffffffffffffffffffffffffffff82169050919050565b5f613a3282613a09565b9050919050565b613a4281613a28565b8114613a4c575f80fd5b50565b5f81359050613a5d81613a39565b92915050565b5f60208284031215613a7857613a77613a05565b5b5f613a8584828501613a4f565b91505092915050565b5f819050919050565b613aa081613a8e565b82525050565b5f602082019050613ab95f830184613a97565b92915050565b5f6fffffffffffffffffffffffffffffffff82169050919050565b613ae381613abf565b82525050565b5f602082019050613afc5f830184613ada565b92915050565b613b0b81613a28565b82525050565b5f602082019050613b245f830184613b02565b92915050565b613b3381613a8e565b8114613b3d575f80fd5b50565b5f81359050613b4e81613b2a565b92915050565b5f60208284031215613b6957613b68613a05565b5b5f613b7684828501613b40565b91505092915050565b5f819050919050565b5f613ba2613b9d613b9884613a09565b613b7f565b613a09565b9050919050565b5f613bb382613b88565b9050919050565b5f613bc482613ba9565b9050919050565b613bd481613bba565b82525050565b5f602082019050613bed5f830184613bcb565b92915050565b5f8115159050919050565b613c0781613bf3565b82525050565b5f602082019050613c205f830184613bfe565b92915050565b5f608082019050613c395f830187613ada565b613c466020830186613ada565b613c536040830185613a97565b613c606060830184613a97565b95945050505050565b5f613c7382613ba9565b9050919050565b613c8381613c69565b82525050565b5f602082019050613c9c5f830184613c7a565b92915050565b5f604082019050613cb55f830185613a97565b613cc26020830184613a97565b9392505050565b613cd281613abf565b8114613cdc575f80fd5b50565b5f81359050613ced81613cc9565b92915050565b5f60208284031215613d0857613d07613a05565b5b5f613d1584828501613cdf565b91505092915050565b5f81519050613d2c81613b2a565b92915050565b5f60208284031215613d4757613d46613a05565b5b5f613d5484828501613d1e565b91505092915050565b7f4e487b71000000000000000000000000000000000000000000000000000000005f52601160045260245ffd5b5f613d9482613a8e565b9150613d9f83613a8e565b9250828202613dad81613a8e565b91508282048414831517613dc457613dc3613d5d565b5b5092915050565b7f4e487b71000000000000000000000000000000000000000000000000000000005f52601260045260245ffd5b5f613e0282613a8e565b9150613e0d83613a8e565b925082613e1d57613e1c613dcb565b5b828204905092915050565b5f613e3282613a8e565b9150613e3d83613a8e565b9250828203905081811115613e5557613e54613d5d565b5b92915050565b5f613e6582613a8e565b9150613e7083613a8e565b9250828201905080821115613e8857613e87613d5d565b5b92915050565b7f4e487b71000000000000000000000000000000000000000000000000000000005f52603260045260245ffd5b5f604082019050613ece5f830185613b02565b613edb6020830184613a97565b9392505050565b5f7fffff00000000000000000000000000000000000000000000000000000000000082169050919050565b613f1681613ee2565b8114613f20575f80fd5b50565b5f81519050613f3181613f0d565b92915050565b5f60208284031215613f4c57613f4b613a05565b5b5f613f5984828501613f23565b91505092915050565b613f6b81613ee2565b82525050565b5f602082019050613f845f830184613f62565b92915050565b5f80fd5b5f601f19601f8301169050919050565b7f4e487b71000000000000000000000000000000000000000000000000000000005f52604160045260245ffd5b613fd482613f8e565b810181811067ffffffffffffffff82111715613ff357613ff2613f9e565b5b80604052505050565b5f6140056139fc565b90506140118282613fcb565b919050565b5f6040828403121561402b5761402a613f8a565b5b6140356040613ffc565b90505f61404484828501613d1e565b5f83015250602061405784828501613d1e565b60208301525092915050565b5f6040828403121561407857614077613a05565b5b5f61408584828501614016565b91505092915050565b5f61409882613abf565b91506140a383613abf565b925082820390506fffffffffffffffffffffffffffffffff8111156140cb576140ca613d5d565b5b92915050565b5f6140db82613abf565b91506fffffffffffffffffffffffffffffffff82036140fd576140fc613d5d565b5b600182019050919050565b5f60608201905061411b5f830186613b02565b6141286020830185613b02565b6141356040830184613a97565b94935050505056fea264697066735822122035072b57315dbaa92dec4c1d8b0ba0f2b65f98048663c751c779fa48da07ea1d64736f6c634300081a0033",
		"linkReferences": {}
	},
	"methodIdentifiers": {
		"BASE_PRECISION()": "72cacb70",
		"MAX_DECIMALS()": "0417cf8e",
		"ONE_VTOKEN()": "bb8afc7b",
		"SCALING_FACTOR()": "ef4cadc5",
		"acceptedNativeAsset()": "8e70fa8c",
		"acceptedVAsset()": "99dc0390",
		"avgNativeExRateGradient()": "b66a72df",
		"changeBlocks(uint256)": "976251e6",
		"claimLeftoverProjectToken()": "ab7302bb",
		"claimOwnerInterest()": "72e48cf3",
		"claimPlatformFee()": "9c8aea90",
		"claimProjectTokens()": "7950ea7e",
		"cumulativeExchangeRate()": "33d8773d",
		"emissionRateChanges(uint128)": "b87a6aeb",
		"endBlock()": "083c6323",
		"getClaimableProjectToken(address)": "80729f17",
		"getEmissionRate()": "c0a77da9",
		"getPoolInfo()": "60246c88",
		"getStakerNativeAmount(address)": "7d334107",
		"getStakingRange()": "fce88e6f",
		"getTotalProjectToken()": "f73a8b5c",
		"getTotalStakedVTokens()": "534a9d00",
		"getWithdrawableVTokens(uint256)": "5bf0fa89",
		"lastNativeExRate()": "9b4f8321",
		"lastNativeExRateUpdateBlock()": "b1f0af1b",
		"lastProcessedChangeBlockIndex()": "a748afb0",
		"maxStakers()": "4f7ff503",
		"maxVAssetPerStaker()": "81cadea0",
		"nativeExRateSampleCount()": "06508ebc",
		"owner()": "8da5cb5b",
		"ownerShareOfInterest()": "84d38d48",
		"pause()": "8456cb59",
		"paused()": "5c975abb",
		"platformAdminAddress()": "129989a3",
		"platformFeeClaimed()": "d065cf8e",
		"projectToken()": "4b60ce77",
		"recoverWrongToken(address)": "018bcf5c",
		"renounceOwnership()": "715018a6",
		"setXCMOracleAddress(address)": "aac9ce5c",
		"stake(uint256)": "a694fc3a",
		"stakers(address)": "9168ae72",
		"startBlock()": "48cd4cb1",
		"tickBlock()": "bfc55b8a",
		"totalNativeStake()": "544c2d76",
		"transferOwnership(address)": "f2fde38b",
		"unpause()": "3f4ba83a",
		"unstake(uint256)": "2e17de78",
		"unstakeWithoutProjectToken(uint256)": "b64a025e",
		"xcmOracle()": "6cf56846"
	},
	"storageLayout": {
		"storage": [
			{
				"astId": 39589,
				"contract": "src/non-upgradeable/Launchpool.sol:Launchpool",
				"label": "_owner",
				"offset": 0,
				"slot": "0",
				"type": "t_address"
			},
			{
				"astId": 42204,
				"contract": "src/non-upgradeable/Launchpool.sol:Launchpool",
				"label": "_status",
				"offset": 0,
				"slot": "1",
				"type": "t_uint256"
			},
			{
				"astId": 42085,
				"contract": "src/non-upgradeable/Launchpool.sol:Launchpool",
				"label": "_paused",
				"offset": 0,
				"slot": "2",
				"type": "t_bool"
			},
			{
				"astId": 52707,
				"contract": "src/non-upgradeable/Launchpool.sol:Launchpool",
				"label": "cumulativeExchangeRate",
				"offset": 0,
				"slot": "3",
				"type": "t_uint256"
			},
			{
				"astId": 52709,
				"contract": "src/non-upgradeable/Launchpool.sol:Launchpool",
				"label": "startBlock",
				"offset": 0,
				"slot": "4",
				"type": "t_uint128"
			},
			{
				"astId": 52711,
				"contract": "src/non-upgradeable/Launchpool.sol:Launchpool",
				"label": "endBlock",
				"offset": 16,
				"slot": "4",
				"type": "t_uint128"
			},
			{
				"astId": 52713,
				"contract": "src/non-upgradeable/Launchpool.sol:Launchpool",
				"label": "tickBlock",
				"offset": 0,
				"slot": "5",
				"type": "t_uint128"
			},
			{
				"astId": 52716,
				"contract": "src/non-upgradeable/Launchpool.sol:Launchpool",
				"label": "ownerShareOfInterest",
				"offset": 16,
				"slot": "5",
				"type": "t_uint128"
			},
			{
				"astId": 52718,
				"contract": "src/non-upgradeable/Launchpool.sol:Launchpool",
				"label": "maxVAssetPerStaker",
				"offset": 0,
				"slot": "6",
				"type": "t_uint256"
			},
			{
				"astId": 52720,
				"contract": "src/non-upgradeable/Launchpool.sol:Launchpool",
				"label": "maxStakers",
				"offset": 0,
				"slot": "7",
				"type": "t_uint256"
			},
			{
				"astId": 52722,
				"contract": "src/non-upgradeable/Launchpool.sol:Launchpool",
				"label": "totalNativeStake",
				"offset": 0,
				"slot": "8",
				"type": "t_uint256"
			},
			{
				"astId": 52732,
				"contract": "src/non-upgradeable/Launchpool.sol:Launchpool",
				"label": "lastProcessedChangeBlockIndex",
				"offset": 0,
				"slot": "9",
				"type": "t_uint256"
			},
			{
				"astId": 52735,
				"contract": "src/non-upgradeable/Launchpool.sol:Launchpool",
				"label": "platformAdminAddress",
				"offset": 0,
				"slot": "10",
				"type": "t_address"
			},
			{
				"astId": 52739,
				"contract": "src/non-upgradeable/Launchpool.sol:Launchpool",
				"label": "emissionRateChanges",
				"offset": 0,
				"slot": "11",
				"type": "t_mapping(t_uint128,t_uint256)"
			},
			{
				"astId": 52742,
				"contract": "src/non-upgradeable/Launchpool.sol:Launchpool",
				"label": "changeBlocks",
				"offset": 0,
				"slot": "12",
				"type": "t_array(t_uint128)dyn_storage"
			},
			{
				"astId": 52745,
				"contract": "src/non-upgradeable/Launchpool.sol:Launchpool",
				"label": "projectToken",
				"offset": 0,
				"slot": "13",
				"type": "t_contract(IERC20)41277"
			},
			{
				"astId": 52748,
				"contract": "src/non-upgradeable/Launchpool.sol:Launchpool",
				"label": "acceptedVAsset",
				"offset": 0,
				"slot": "14",
				"type": "t_contract(IERC20)41277"
			},
			{
				"astId": 52751,
				"contract": "src/non-upgradeable/Launchpool.sol:Launchpool",
				"label": "acceptedNativeAsset",
				"offset": 0,
				"slot": "15",
				"type": "t_contract(IERC20)41277"
			},
			{
				"astId": 52754,
				"contract": "src/non-upgradeable/Launchpool.sol:Launchpool",
				"label": "xcmOracle",
				"offset": 0,
				"slot": "16",
				"type": "t_contract(IXCMOracle)52082"
			},
			{
				"astId": 52759,
				"contract": "src/non-upgradeable/Launchpool.sol:Launchpool",
				"label": "stakers",
				"offset": 0,
				"slot": "17",
				"type": "t_mapping(t_address,t_struct(Staker)52705_storage)"
			},
			{
				"astId": 52761,
				"contract": "src/non-upgradeable/Launchpool.sol:Launchpool",
				"label": "lastNativeExRate",
				"offset": 0,
				"slot": "18",
				"type": "t_uint256"
			},
			{
				"astId": 52763,
				"contract": "src/non-upgradeable/Launchpool.sol:Launchpool",
				"label": "avgNativeExRateGradient",
				"offset": 0,
				"slot": "19",
				"type": "t_uint256"
			},
			{
				"astId": 52765,
				"contract": "src/non-upgradeable/Launchpool.sol:Launchpool",
				"label": "nativeExRateSampleCount",
				"offset": 0,
				"slot": "20",
				"type": "t_uint128"
			},
			{
				"astId": 52767,
				"contract": "src/non-upgradeable/Launchpool.sol:Launchpool",
				"label": "lastNativeExRateUpdateBlock",
				"offset": 16,
				"slot": "20",
				"type": "t_uint128"
			},
			{
				"astId": 52771,
				"contract": "src/non-upgradeable/Launchpool.sol:Launchpool",
				"label": "platformFeeClaimed",
				"offset": 0,
				"slot": "21",
				"type": "t_bool"
			}
		],
		"types": {
			"t_address": {
				"encoding": "inplace",
				"label": "address",
				"numberOfBytes": "20"
			},
			"t_array(t_uint128)dyn_storage": {
				"encoding": "dynamic_array",
				"label": "uint128[]",
				"numberOfBytes": "32",
				"base": "t_uint128"
			},
			"t_bool": {
				"encoding": "inplace",
				"label": "bool",
				"numberOfBytes": "1"
			},
			"t_contract(IERC20)41277": {
				"encoding": "inplace",
				"label": "contract IERC20",
				"numberOfBytes": "20"
			},
			"t_contract(IXCMOracle)52082": {
				"encoding": "inplace",
				"label": "contract IXCMOracle",
				"numberOfBytes": "20"
			},
			"t_mapping(t_address,t_struct(Staker)52705_storage)": {
				"encoding": "mapping",
				"key": "t_address",
				"label": "mapping(address => struct Launchpool.Staker)",
				"numberOfBytes": "32",
				"value": "t_struct(Staker)52705_storage"
			},
			"t_mapping(t_uint128,t_uint256)": {
				"encoding": "mapping",
				"key": "t_uint128",
				"label": "mapping(uint128 => uint256)",
				"numberOfBytes": "32",
				"value": "t_uint256"
			},
			"t_struct(Staker)52705_storage": {
				"encoding": "inplace",
				"label": "struct Launchpool.Staker",
				"numberOfBytes": "64",
				"members": [
					{
						"astId": 52702,
						"contract": "src/non-upgradeable/Launchpool.sol:Launchpool",
						"label": "nativeAmount",
						"offset": 0,
						"slot": "0",
						"type": "t_uint256"
					},
					{
						"astId": 52704,
						"contract": "src/non-upgradeable/Launchpool.sol:Launchpool",
						"label": "claimOffset",
						"offset": 0,
						"slot": "1",
						"type": "t_uint256"
					}
				]
			},
			"t_uint128": {
				"encoding": "inplace",
				"label": "uint128",
				"numberOfBytes": "16"
			},
			"t_uint256": {
				"encoding": "inplace",
				"label": "uint256",
				"numberOfBytes": "32"
			}
		}
	},
	"id": 69
}